{
  "contracts/Polpick.sol": {
    "PolPick": {
      "abi": [
        {
          "inputs": [
            {
              "internalType": "address",
              "name": "_newGameController",
              "type": "address"
            }
          ],
          "stateMutability": "nonpayable",
          "type": "constructor"
        },
        {
          "inputs": [
            {
              "internalType": "address",
              "name": "owner",
              "type": "address"
            }
          ],
          "name": "OwnableInvalidOwner",
          "type": "error"
        },
        {
          "inputs": [
            {
              "internalType": "address",
              "name": "account",
              "type": "address"
            }
          ],
          "name": "OwnableUnauthorizedAccount",
          "type": "error"
        },
        {
          "inputs": [],
          "name": "PendingDistributions",
          "type": "error"
        },
        {
          "inputs": [],
          "name": "ReentrancyGuardReentrantCall",
          "type": "error"
        },
        {
          "anonymous": false,
          "inputs": [],
          "name": "GameStarted",
          "type": "event"
        },
        {
          "anonymous": false,
          "inputs": [
            {
              "indexed": false,
              "internalType": "bytes",
              "name": "reason",
              "type": "bytes"
            }
          ],
          "name": "GameStopped",
          "type": "event"
        },
        {
          "anonymous": false,
          "inputs": [
            {
              "indexed": true,
              "internalType": "address",
              "name": "previousOwner",
              "type": "address"
            },
            {
              "indexed": true,
              "internalType": "address",
              "name": "newOwner",
              "type": "address"
            }
          ],
          "name": "OwnershipTransferred",
          "type": "event"
        },
        {
          "anonymous": false,
          "inputs": [
            {
              "indexed": false,
              "internalType": "bytes",
              "name": "poolId",
              "type": "bytes"
            },
            {
              "indexed": false,
              "internalType": "uint256",
              "name": "totalWinners",
              "type": "uint256"
            },
            {
              "indexed": false,
              "internalType": "uint256",
              "name": "from",
              "type": "uint256"
            },
            {
              "indexed": false,
              "internalType": "uint256",
              "name": "to",
              "type": "uint256"
            },
            {
              "indexed": false,
              "internalType": "int64",
              "name": "timestamp",
              "type": "int64"
            }
          ],
          "name": "RoundDistributed",
          "type": "event"
        },
        {
          "anonymous": false,
          "inputs": [
            {
              "indexed": false,
              "internalType": "bytes",
              "name": "poolId",
              "type": "bytes"
            },
            {
              "indexed": false,
              "internalType": "int64",
              "name": "timestamp",
              "type": "int64"
            },
            {
              "indexed": false,
              "internalType": "int32",
              "name": "startPrice",
              "type": "int32"
            },
            {
              "indexed": false,
              "internalType": "int32",
              "name": "endPrice",
              "type": "int32"
            },
            {
              "indexed": true,
              "internalType": "bytes",
              "name": "indexedPoolId",
              "type": "bytes"
            }
          ],
          "name": "RoundEnded",
          "type": "event"
        },
        {
          "anonymous": false,
          "inputs": [
            {
              "indexed": false,
              "internalType": "bytes",
              "name": "poolId",
              "type": "bytes"
            },
            {
              "indexed": false,
              "internalType": "int64",
              "name": "timestamp",
              "type": "int64"
            },
            {
              "indexed": false,
              "internalType": "int32",
              "name": "price",
              "type": "int32"
            },
            {
              "indexed": false,
              "internalType": "uint256",
              "name": "minTradeAmount",
              "type": "uint256"
            },
            {
              "indexed": false,
              "internalType": "uint256",
              "name": "maxTradeAmount",
              "type": "uint256"
            },
            {
              "indexed": false,
              "internalType": "uint256",
              "name": "poolTradesLimit",
              "type": "uint256"
            },
            {
              "indexed": true,
              "internalType": "bytes",
              "name": "indexedPoolId",
              "type": "bytes"
            }
          ],
          "name": "RoundStarted",
          "type": "event"
        },
        {
          "anonymous": false,
          "inputs": [
            {
              "indexed": false,
              "internalType": "bytes",
              "name": "poolId",
              "type": "bytes"
            },
            {
              "indexed": false,
              "internalType": "address",
              "name": "sender",
              "type": "address"
            },
            {
              "indexed": false,
              "internalType": "uint256",
              "name": "amount",
              "type": "uint256"
            },
            {
              "indexed": false,
              "internalType": "string",
              "name": "prediction",
              "type": "string"
            },
            {
              "indexed": false,
              "internalType": "uint256",
              "name": "newTotal",
              "type": "uint256"
            },
            {
              "indexed": true,
              "internalType": "bytes",
              "name": "indexedPoolId",
              "type": "bytes"
            },
            {
              "indexed": true,
              "internalType": "address",
              "name": "indexedSender",
              "type": "address"
            },
            {
              "indexed": false,
              "internalType": "string",
              "name": "avatarUrl",
              "type": "string"
            },
            {
              "indexed": false,
              "internalType": "string",
              "name": "countryCode",
              "type": "string"
            },
            {
              "indexed": false,
              "internalType": "int64",
              "name": "roundStartTime",
              "type": "int64"
            },
            {
              "indexed": false,
              "internalType": "string",
              "name": "whiteLabelId",
              "type": "string"
            },
            {
              "indexed": false,
              "internalType": "string",
              "name": "gameId",
              "type": "string"
            }
          ],
          "name": "TradePlaced",
          "type": "event"
        },
        {
          "anonymous": false,
          "inputs": [
            {
              "indexed": false,
              "internalType": "bytes",
              "name": "poolId",
              "type": "bytes"
            },
            {
              "indexed": false,
              "internalType": "address",
              "name": "sender",
              "type": "address"
            },
            {
              "indexed": false,
              "internalType": "uint256",
              "name": "amount",
              "type": "uint256"
            },
            {
              "indexed": false,
              "internalType": "string",
              "name": "whiteLabelId",
              "type": "string"
            }
          ],
          "name": "TradeReturned",
          "type": "event"
        },
        {
          "anonymous": false,
          "inputs": [
            {
              "indexed": false,
              "internalType": "bytes",
              "name": "poolId",
              "type": "bytes"
            },
            {
              "indexed": false,
              "internalType": "address",
              "name": "sender",
              "type": "address"
            },
            {
              "indexed": false,
              "internalType": "uint256",
              "name": "tradeAmount",
              "type": "uint256"
            },
            {
              "indexed": false,
              "internalType": "uint256",
              "name": "winningsAmount",
              "type": "uint256"
            },
            {
              "indexed": true,
              "internalType": "address",
              "name": "indexedSender",
              "type": "address"
            },
            {
              "indexed": false,
              "internalType": "string",
              "name": "whiteLabelId",
              "type": "string"
            },
            {
              "indexed": false,
              "internalType": "uint8",
              "name": "feePercentage",
              "type": "uint8"
            },
            {
              "indexed": false,
              "internalType": "uint8",
              "name": "feeJackpotPercentage",
              "type": "uint8"
            }
          ],
          "name": "TradeWinningsSent",
          "type": "event"
        },
        {
          "inputs": [
            {
              "internalType": "bytes",
              "name": "poolId",
              "type": "bytes"
            },
            {
              "internalType": "uint256",
              "name": "newMinBetAmount",
              "type": "uint256"
            },
            {
              "internalType": "uint256",
              "name": "newMaxBetAmount",
              "type": "uint256"
            }
          ],
          "name": "changeBetAmounts",
          "outputs": [],
          "stateMutability": "nonpayable",
          "type": "function"
        },
        {
          "inputs": [
            {
              "internalType": "address",
              "name": "newGameControllerAddress",
              "type": "address"
            }
          ],
          "name": "changeGameControllerAddress",
          "outputs": [],
          "stateMutability": "nonpayable",
          "type": "function"
        },
        {
          "inputs": [
            {
              "internalType": "address",
              "name": "newFeeAddress",
              "type": "address"
            }
          ],
          "name": "changeGameFeeAddress",
          "outputs": [],
          "stateMutability": "nonpayable",
          "type": "function"
        },
        {
          "inputs": [
            {
              "internalType": "address",
              "name": "newFeeJackpotAddress",
              "type": "address"
            }
          ],
          "name": "changeGameFeeJackpotAddress",
          "outputs": [],
          "stateMutability": "nonpayable",
          "type": "function"
        },
        {
          "inputs": [
            {
              "internalType": "uint8",
              "name": "newFeeJackpotPercentage",
              "type": "uint8"
            }
          ],
          "name": "changeGameFeeJackpotPercentage",
          "outputs": [],
          "stateMutability": "nonpayable",
          "type": "function"
        },
        {
          "inputs": [
            {
              "internalType": "uint8",
              "name": "newFeePercentage",
              "type": "uint8"
            }
          ],
          "name": "changeGameFeePercentage",
          "outputs": [],
          "stateMutability": "nonpayable",
          "type": "function"
        },
        {
          "inputs": [
            {
              "internalType": "address",
              "name": "newServiceFeeAddress",
              "type": "address"
            }
          ],
          "name": "changeGameServiceFeeAddress",
          "outputs": [],
          "stateMutability": "nonpayable",
          "type": "function"
        },
        {
          "inputs": [
            {
              "internalType": "uint8",
              "name": "newFeeServicePercentage",
              "type": "uint8"
            }
          ],
          "name": "changeGameServicePercentage",
          "outputs": [],
          "stateMutability": "nonpayable",
          "type": "function"
        },
        {
          "inputs": [
            {
              "internalType": "bytes",
              "name": "poolId",
              "type": "bytes"
            },
            {
              "internalType": "uint256",
              "name": "minBetAmount",
              "type": "uint256"
            },
            {
              "internalType": "uint256",
              "name": "maxBetAmount",
              "type": "uint256"
            },
            {
              "internalType": "uint256",
              "name": "poolBetsLimit",
              "type": "uint256"
            }
          ],
          "name": "createPool",
          "outputs": [],
          "stateMutability": "nonpayable",
          "type": "function"
        },
        {
          "inputs": [
            {
              "internalType": "bytes",
              "name": "poolId",
              "type": "bytes"
            },
            {
              "internalType": "uint32",
              "name": "batchSize",
              "type": "uint32"
            },
            {
              "internalType": "int64",
              "name": "timeMS",
              "type": "int64"
            }
          ],
          "name": "distribute",
          "outputs": [],
          "stateMutability": "nonpayable",
          "type": "function"
        },
        {
          "inputs": [],
          "name": "feeAddress",
          "outputs": [
            {
              "internalType": "address",
              "name": "",
              "type": "address"
            }
          ],
          "stateMutability": "view",
          "type": "function"
        },
        {
          "inputs": [],
          "name": "feeJackpotAddress",
          "outputs": [
            {
              "internalType": "address",
              "name": "",
              "type": "address"
            }
          ],
          "stateMutability": "view",
          "type": "function"
        },
        {
          "inputs": [],
          "name": "feeJackpotPercentage",
          "outputs": [
            {
              "internalType": "uint8",
              "name": "",
              "type": "uint8"
            }
          ],
          "stateMutability": "view",
          "type": "function"
        },
        {
          "inputs": [],
          "name": "feePercentage",
          "outputs": [
            {
              "internalType": "uint8",
              "name": "",
              "type": "uint8"
            }
          ],
          "stateMutability": "view",
          "type": "function"
        },
        {
          "inputs": [],
          "name": "gameController",
          "outputs": [
            {
              "internalType": "address",
              "name": "",
              "type": "address"
            }
          ],
          "stateMutability": "view",
          "type": "function"
        },
        {
          "inputs": [],
          "name": "getContractBalance",
          "outputs": [
            {
              "internalType": "uint256",
              "name": "",
              "type": "uint256"
            }
          ],
          "stateMutability": "view",
          "type": "function"
        },
        {
          "inputs": [
            {
              "internalType": "bytes",
              "name": "poolId",
              "type": "bytes"
            }
          ],
          "name": "hasPendingDistributions",
          "outputs": [
            {
              "internalType": "bool",
              "name": "",
              "type": "bool"
            }
          ],
          "stateMutability": "view",
          "type": "function"
        },
        {
          "inputs": [
            {
              "internalType": "bytes",
              "name": "poolId",
              "type": "bytes"
            }
          ],
          "name": "isPoolOpen",
          "outputs": [
            {
              "internalType": "bool",
              "name": "",
              "type": "bool"
            }
          ],
          "stateMutability": "view",
          "type": "function"
        },
        {
          "inputs": [],
          "name": "isRunning",
          "outputs": [
            {
              "internalType": "bool",
              "name": "",
              "type": "bool"
            }
          ],
          "stateMutability": "view",
          "type": "function"
        },
        {
          "inputs": [
            {
              "components": [
                {
                  "internalType": "bytes",
                  "name": "poolId",
                  "type": "bytes"
                },
                {
                  "internalType": "string",
                  "name": "avatarUrl",
                  "type": "string"
                },
                {
                  "internalType": "string",
                  "name": "countryCode",
                  "type": "string"
                },
                {
                  "internalType": "bool",
                  "name": "upOrDown",
                  "type": "bool"
                },
                {
                  "internalType": "string",
                  "name": "whiteLabelId",
                  "type": "string"
                },
                {
                  "internalType": "string",
                  "name": "gameId",
                  "type": "string"
                }
              ],
              "internalType": "struct PolPick.makeTradeStruct",
              "name": "userTrade",
              "type": "tuple"
            }
          ],
          "name": "makeTrade",
          "outputs": [],
          "stateMutability": "payable",
          "type": "function"
        },
        {
          "inputs": [],
          "name": "notRunningReason",
          "outputs": [
            {
              "internalType": "bytes",
              "name": "",
              "type": "bytes"
            }
          ],
          "stateMutability": "view",
          "type": "function"
        },
        {
          "inputs": [],
          "name": "owner",
          "outputs": [
            {
              "internalType": "address",
              "name": "",
              "type": "address"
            }
          ],
          "stateMutability": "view",
          "type": "function"
        },
        {
          "inputs": [
            {
              "internalType": "bytes",
              "name": "",
              "type": "bytes"
            }
          ],
          "name": "pools",
          "outputs": [
            {
              "internalType": "bool",
              "name": "created",
              "type": "bool"
            },
            {
              "internalType": "int32",
              "name": "startPrice",
              "type": "int32"
            },
            {
              "internalType": "int32",
              "name": "endPrice",
              "type": "int32"
            },
            {
              "internalType": "uint256",
              "name": "minBetAmount",
              "type": "uint256"
            },
            {
              "internalType": "uint256",
              "name": "maxBetAmount",
              "type": "uint256"
            },
            {
              "internalType": "uint256",
              "name": "poolBetsLimit",
              "type": "uint256"
            },
            {
              "components": [
                {
                  "internalType": "uint256[]",
                  "name": "bets",
                  "type": "uint256[]"
                },
                {
                  "internalType": "address[]",
                  "name": "addresses",
                  "type": "address[]"
                },
                {
                  "internalType": "string[]",
                  "name": "avatars",
                  "type": "string[]"
                },
                {
                  "internalType": "string[]",
                  "name": "countries",
                  "type": "string[]"
                },
                {
                  "internalType": "string[]",
                  "name": "whiteLabelIds",
                  "type": "string[]"
                },
                {
                  "internalType": "uint256",
                  "name": "total",
                  "type": "uint256"
                },
                {
                  "internalType": "uint256",
                  "name": "distributedCount",
                  "type": "uint256"
                },
                {
                  "internalType": "uint256",
                  "name": "totalDistributed",
                  "type": "uint256"
                }
              ],
              "internalType": "struct PolPick.BetGroup",
              "name": "upBetGroup",
              "type": "tuple"
            },
            {
              "components": [
                {
                  "internalType": "uint256[]",
                  "name": "bets",
                  "type": "uint256[]"
                },
                {
                  "internalType": "address[]",
                  "name": "addresses",
                  "type": "address[]"
                },
                {
                  "internalType": "string[]",
                  "name": "avatars",
                  "type": "string[]"
                },
                {
                  "internalType": "string[]",
                  "name": "countries",
                  "type": "string[]"
                },
                {
                  "internalType": "string[]",
                  "name": "whiteLabelIds",
                  "type": "string[]"
                },
                {
                  "internalType": "uint256",
                  "name": "total",
                  "type": "uint256"
                },
                {
                  "internalType": "uint256",
                  "name": "distributedCount",
                  "type": "uint256"
                },
                {
                  "internalType": "uint256",
                  "name": "totalDistributed",
                  "type": "uint256"
                }
              ],
              "internalType": "struct PolPick.BetGroup",
              "name": "downBetGroup",
              "type": "tuple"
            },
            {
              "internalType": "int64",
              "name": "roundStartTime",
              "type": "int64"
            }
          ],
          "stateMutability": "view",
          "type": "function"
        },
        {
          "inputs": [],
          "name": "renounceOwnership",
          "outputs": [],
          "stateMutability": "nonpayable",
          "type": "function"
        },
        {
          "inputs": [],
          "name": "serviceFeeAddress",
          "outputs": [
            {
              "internalType": "address",
              "name": "",
              "type": "address"
            }
          ],
          "stateMutability": "view",
          "type": "function"
        },
        {
          "inputs": [],
          "name": "serviceFeePercentage",
          "outputs": [
            {
              "internalType": "uint8",
              "name": "",
              "type": "uint8"
            }
          ],
          "stateMutability": "view",
          "type": "function"
        },
        {
          "inputs": [],
          "name": "startGame",
          "outputs": [],
          "stateMutability": "nonpayable",
          "type": "function"
        },
        {
          "inputs": [
            {
              "internalType": "bytes",
              "name": "reason",
              "type": "bytes"
            }
          ],
          "name": "stopGame",
          "outputs": [],
          "stateMutability": "nonpayable",
          "type": "function"
        },
        {
          "inputs": [
            {
              "internalType": "address",
              "name": "newOwner",
              "type": "address"
            }
          ],
          "name": "transferOwnership",
          "outputs": [],
          "stateMutability": "nonpayable",
          "type": "function"
        },
        {
          "inputs": [
            {
              "internalType": "bytes",
              "name": "poolId",
              "type": "bytes"
            },
            {
              "internalType": "int64",
              "name": "timeMS",
              "type": "int64"
            },
            {
              "internalType": "int32",
              "name": "price",
              "type": "int32"
            },
            {
              "internalType": "uint32",
              "name": "batchSize",
              "type": "uint32"
            }
          ],
          "name": "trigger",
          "outputs": [],
          "stateMutability": "nonpayable",
          "type": "function"
        }
      ],
      "evm": {
        "bytecode": {
          "linkReferences": {},
          "object": "6080604052600b600460006101000a81548160ff021916908360ff1602179055506001600460016101000a81548160ff021916908360ff1602179055506001600460026101000a81548160ff021916908360ff16021790555033600460036101000a81548173ffffffffffffffffffffffffffffffffffffffff021916908373ffffffffffffffffffffffffffffffffffffffff16021790555033600560006101000a81548173ffffffffffffffffffffffffffffffffffffffff021916908373ffffffffffffffffffffffffffffffffffffffff16021790555033600660006101000a81548173ffffffffffffffffffffffffffffffffffffffff021916908373ffffffffffffffffffffffffffffffffffffffff1602179055503480156200012857600080fd5b50604051620058c2380380620058c283398181016040528101906200014e919062000353565b80600073ffffffffffffffffffffffffffffffffffffffff168173ffffffffffffffffffffffffffffffffffffffff1603620001c45760006040517f1e4fbdf7000000000000000000000000000000000000000000000000000000008152600401620001bb919062000396565b60405180910390fd5b620001d5816200022560201b60201c565b506001808190555080600260006101000a81548173ffffffffffffffffffffffffffffffffffffffff021916908373ffffffffffffffffffffffffffffffffffffffff16021790555050620003b3565b60008060009054906101000a900473ffffffffffffffffffffffffffffffffffffffff169050816000806101000a81548173ffffffffffffffffffffffffffffffffffffffff021916908373ffffffffffffffffffffffffffffffffffffffff1602179055508173ffffffffffffffffffffffffffffffffffffffff168173ffffffffffffffffffffffffffffffffffffffff167f8be0079c531659141344cd1fd0a4f28419497f9722a3daafe3b4186f6b6457e060405160405180910390a35050565b600080fd5b600073ffffffffffffffffffffffffffffffffffffffff82169050919050565b60006200031b82620002ee565b9050919050565b6200032d816200030e565b81146200033957600080fd5b50565b6000815190506200034d8162000322565b92915050565b6000602082840312156200036c576200036b620002e9565b5b60006200037c848285016200033c565b91505092915050565b62000390816200030e565b82525050565b6000602082019050620003ad600083018462000385565b92915050565b6154ff80620003c36000396000f3fe6080604052600436106101cd5760003560e01c8063715018a6116100f7578063ae38a8b911610095578063e470996911610064578063e470996914610623578063eab79b7d1461064c578063f2fde38b14610675578063f68256a81461069e576101cd565b8063ae38a8b91461058f578063afad745a146105ba578063d4c770cf146105e3578063d65ab5f21461060c576101cd565b8063a001ecdd116100d1578063a001ecdd146104e9578063a7c3324d14610514578063a813cf9b1461053d578063a9b99af514610566576101cd565b8063715018a61461047e5780638da5cb5b14610495578063900b7b3f146104c0576101cd565b80633b9fe1ee1161016f578063595dc8971161013e578063595dc897146103d4578063603ef649146103fd5780636518a0a9146104285780636f9fb98a14610453576101cd565b80633b9fe1ee146103105780633fafac921461033b578063412753581461038057806341581768146103ab576101cd565b80631c2db192116101ab5780631c2db192146102565780631d0d625b1461027f5780632014e5d1146102a857806330efabd4146102d3576101cd565b80630c2f915e146101d25780630d62d0311461020f578063159dc6341461022b575b600080fd5b3480156101de57600080fd5b506101f960048036038101906101f491906135ef565b6106c9565b6040516102069190613657565b60405180910390f35b61022960048036038101906102249190613696565b610733565b005b34801561023757600080fd5b50610240610f33565b60405161024d91906136fb565b60405180910390f35b34801561026257600080fd5b5061027d60048036038101906102789190613774565b610f46565b005b34801561028b57600080fd5b506102a660048036038101906102a19190613774565b610f92565b005b3480156102b457600080fd5b506102bd610fde565b6040516102ca9190613657565b60405180910390f35b3480156102df57600080fd5b506102fa60048036038101906102f591906135ef565b610ff1565b6040516103079190613657565b60405180910390f35b34801561031c57600080fd5b50610325611037565b60405161033291906137b0565b60405180910390f35b34801561034757600080fd5b50610362600480360381019061035d919061390c565b61105d565b60405161037799989796959493929190613d2f565b60405180910390f35b34801561038c57600080fd5b50610395611829565b6040516103a291906137b0565b60405180910390f35b3480156103b757600080fd5b506103d260048036038101906103cd9190613774565b61184f565b005b3480156103e057600080fd5b506103fb60048036038101906103f69190613774565b61189b565b005b34801561040957600080fd5b506104126118e7565b60405161041f91906136fb565b60405180910390f35b34801561043457600080fd5b5061043d6118fa565b60405161044a9190613e1f565b60405180910390f35b34801561045f57600080fd5b50610468611988565b6040516104759190613e41565b60405180910390f35b34801561048a57600080fd5b50610493611990565b005b3480156104a157600080fd5b506104aa6119a4565b6040516104b791906137b0565b60405180910390f35b3480156104cc57600080fd5b506104e760048036038101906104e29190613e88565b6119cd565b005b3480156104f557600080fd5b506104fe611a3a565b60405161050b91906136fb565b60405180910390f35b34801561052057600080fd5b5061053b60048036038101906105369190613f1d565b611a4d565b005b34801561054957600080fd5b50610564600480360381019061055f9190613fbd565b612235565b005b34801561057257600080fd5b5061058d6004803603810190610588919061405d565b6123d2565b005b34801561059b57600080fd5b506105a4612730565b6040516105b191906137b0565b60405180910390f35b3480156105c657600080fd5b506105e160048036038101906105dc9190613e88565b612756565b005b3480156105ef57600080fd5b5061060a60048036038101906106059190613e88565b6127c3565b005b34801561061857600080fd5b50610621612830565b005b34801561062f57600080fd5b5061064a600480360381019061064591906140e5565b6128a0565b005b34801561065857600080fd5b50610673600480360381019061066e91906135ef565b6129eb565b005b34801561068157600080fd5b5061069c60048036038101906106979190613774565b612a5d565b005b3480156106aa57600080fd5b506106b3612ae3565b6040516106c091906137b0565b60405180910390f35b600080600384846040516106de92919061419d565b9081526020016040518091039020600c01600001805490506003858560405161070892919061419d565b90815260200160405180910390206004016000018054905061072a91906141e5565b11905092915050565b8080600001906107439190614228565b61074d8282610ff1565b61078c576040517f08c379a00000000000000000000000000000000000000000000000000000000081526004016107839061430e565b60405180910390fd5b600660149054906101000a900460ff166107db576040517f08c379a00000000000000000000000000000000000000000000000000000000081526004016107d29061437a565b60405180910390fd5b8280600001906107eb9190614228565b600382826040516107fd92919061419d565b908152602001604051809103902060000160009054906101000a900460ff1661085b576040517f08c379a0000000000000000000000000000000000000000000000000000000008152600401610852906143e6565b60405180910390fd5b61086433612b09565b6108a3576040517f08c379a000000000000000000000000000000000000000000000000000000000815260040161089a90614452565b60405180910390fd5b600034116108e6576040517f08c379a00000000000000000000000000000000000000000000000000000000081526004016108dd906144be565b60405180910390fd5b60038580600001906108f89190614228565b60405161090692919061419d565b90815260200160405180910390206001015434101561095a576040517f08c379a000000000000000000000000000000000000000000000000000000000815260040161095190614550565b60405180910390fd5b600385806000019061096c9190614228565b60405161097a92919061419d565b9081526020016040518091039020600201543411156109ce576040517f08c379a00000000000000000000000000000000000000000000000000000000081526004016109c5906145e2565b60405180910390fd5b60008560600160208101906109e3919061462e565b15610b1057600160038780600001906109fc9190614228565b604051610a0a92919061419d565b908152602001604051809103902060030154610a26919061465b565b6003878060000190610a389190614228565b604051610a4692919061419d565b9081526020016040518091039020600401600001805490501115610a9f576040517f08c379a0000000000000000000000000000000000000000000000000000000008152600401610a9690614701565b60405180910390fd5b610b096003878060000190610ab49190614228565b604051610ac292919061419d565b908152602001604051809103902060040134888060200190610ae49190614721565b8a8060400190610af49190614721565b8c8060800190610b049190614721565b612b41565b9050610c34565b60016003878060000190610b249190614228565b604051610b3292919061419d565b908152602001604051809103902060030154610b4e919061465b565b6003878060000190610b609190614228565b604051610b6e92919061419d565b9081526020016040518091039020600c01600001805490501115610bc7576040517f08c379a0000000000000000000000000000000000000000000000000000000008152600401610bbe90614701565b60405180910390fd5b610c316003878060000190610bdc9190614228565b604051610bea92919061419d565b9081526020016040518091039020600c0134888060200190610c0c9190614721565b8a8060400190610c1c9190614721565b8c8060800190610c2c9190614721565b612b41565b90505b610c3c61341b565b868060200190610c4c9190614721565b8080601f016020809104026020016040519081016040528093929190818152602001838380828437600081840152601f19601f820116905080830192505050505050508160000181905250868060400190610ca79190614721565b8080601f016020809104026020016040519081016040528093929190818152602001838380828437600081840152601f19601f820116905080830192505050505050508160200181905250868060800190610d029190614721565b8080601f016020809104026020016040519081016040528093929190818152602001838380828437600081840152601f19601f8201169050808301925050505050505081604001819052506003878060000190610d5f9190614228565b604051610d6d92919061419d565b908152602001604051809103902060140160009054906101000a900460070b816060019060070b908160070b81525050868060a00190610dad9190614721565b8080601f016020809104026020016040519081016040528093929190818152602001838380828437600081840152601f19601f8201169050808301925050505050505081608001819052503373ffffffffffffffffffffffffffffffffffffffff16878060000190610e1f9190614228565b604051610e2d92919061419d565b60405180910390207f1ba68e8df7ae1e0dd153767b3bdad5fc9e7469ae2210b7c067ef0a4477848dbc898060000190610e669190614228565b33348d6060016020810190610e7b919061462e565b610eba576040518060400160405280600481526020017f444f574e00000000000000000000000000000000000000000000000000000000815250610ef1565b6040518060400160405280600281526020017f55500000000000000000000000000000000000000000000000000000000000008152505b8989600001518a602001518b606001518c604001518d60800151604051610f229b9a999897969594939291906147ea565b60405180910390a350505050505050565b600460019054906101000a900460ff1681565b610f4e612cc1565b80600560006101000a81548173ffffffffffffffffffffffffffffffffffffffff021916908373ffffffffffffffffffffffffffffffffffffffff16021790555050565b610f9a612cc1565b80600260006101000a81548173ffffffffffffffffffffffffffffffffffffffff021916908373ffffffffffffffffffffffffffffffffffffffff16021790555050565b600660149054906101000a900460ff1681565b60008060006003858560405161100892919061419d565b908152602001604051809103902060000160019054906101000a900460030b60030b1490508091505092915050565b600560009054906101000a900473ffffffffffffffffffffffffffffffffffffffff1681565b6003818051602081018201805184825260208301602085012081835280955050505050506000915090508060000160009054906101000a900460ff16908060000160019054906101000a900460030b908060000160059054906101000a900460030b9080600101549080600201549080600301549080600401604051806101000160405290816000820180548060200260200160405190810160405280929190818152602001828054801561113157602002820191906000526020600020905b81548152602001906001019080831161111d575b50505050508152602001600182018054806020026020016040519081016040528092919081815260200182805480156111bf57602002820191906000526020600020905b8160009054906101000a900473ffffffffffffffffffffffffffffffffffffffff1673ffffffffffffffffffffffffffffffffffffffff1681526020019060010190808311611175575b5050505050815260200160028201805480602002602001604051908101604052809291908181526020016000905b8282101561129957838290600052602060002001805461120c906148e1565b80601f0160208091040260200160405190810160405280929190818152602001828054611238906148e1565b80156112855780601f1061125a57610100808354040283529160200191611285565b820191906000526020600020905b81548152906001019060200180831161126857829003601f168201915b5050505050815260200190600101906111ed565b50505050815260200160038201805480602002602001604051908101604052809291908181526020016000905b828210156113725783829060005260206000200180546112e5906148e1565b80601f0160208091040260200160405190810160405280929190818152602001828054611311906148e1565b801561135e5780601f106113335761010080835404028352916020019161135e565b820191906000526020600020905b81548152906001019060200180831161134157829003601f168201915b5050505050815260200190600101906112c6565b50505050815260200160048201805480602002602001604051908101604052809291908181526020016000905b8282101561144b5783829060005260206000200180546113be906148e1565b80601f01602080910402602001604051908101604052809291908181526020018280546113ea906148e1565b80156114375780601f1061140c57610100808354040283529160200191611437565b820191906000526020600020905b81548152906001019060200180831161141a57829003601f168201915b50505050508152602001906001019061139f565b50505050815260200160058201548152602001600682015481526020016007820154815250509080600c0160405180610100016040529081600082018054806020026020016040519081016040528092919081815260200182805480156114d157602002820191906000526020600020905b8154815260200190600101908083116114bd575b505050505081526020016001820180548060200260200160405190810160405280929190818152602001828054801561155f57602002820191906000526020600020905b8160009054906101000a900473ffffffffffffffffffffffffffffffffffffffff1673ffffffffffffffffffffffffffffffffffffffff1681526020019060010190808311611515575b5050505050815260200160028201805480602002602001604051908101604052809291908181526020016000905b828210156116395783829060005260206000200180546115ac906148e1565b80601f01602080910402602001604051908101604052809291908181526020018280546115d8906148e1565b80156116255780601f106115fa57610100808354040283529160200191611625565b820191906000526020600020905b81548152906001019060200180831161160857829003601f168201915b50505050508152602001906001019061158d565b50505050815260200160038201805480602002602001604051908101604052809291908181526020016000905b82821015611712578382906000526020600020018054611685906148e1565b80601f01602080910402602001604051908101604052809291908181526020018280546116b1906148e1565b80156116fe5780601f106116d3576101008083540402835291602001916116fe565b820191906000526020600020905b8154815290600101906020018083116116e157829003601f168201915b505050505081526020019060010190611666565b50505050815260200160048201805480602002602001604051908101604052809291908181526020016000905b828210156117eb57838290600052602060002001805461175e906148e1565b80601f016020809104026020016040519081016040528092919081815260200182805461178a906148e1565b80156117d75780601f106117ac576101008083540402835291602001916117d7565b820191906000526020600020905b8154815290600101906020018083116117ba57829003601f168201915b50505050508152602001906001019061173f565b5050505081526020016005820154815260200160068201548152602001600782015481525050908060140160009054906101000a900460070b905089565b600460039054906101000a900473ffffffffffffffffffffffffffffffffffffffff1681565b611857612cc1565b80600660006101000a81548173ffffffffffffffffffffffffffffffffffffffff021916908373ffffffffffffffffffffffffffffffffffffffff16021790555050565b6118a3612cc1565b80600460036101000a81548173ffffffffffffffffffffffffffffffffffffffff021916908373ffffffffffffffffffffffffffffffffffffffff16021790555050565b600460029054906101000a900460ff1681565b60078054611907906148e1565b80601f0160208091040260200160405190810160405280929190818152602001828054611933906148e1565b80156119805780601f1061195557610100808354040283529160200191611980565b820191906000526020600020905b81548152906001019060200180831161196357829003601f168201915b505050505081565b600047905090565b611998612cc1565b6119a26000612d48565b565b60008060009054906101000a900473ffffffffffffffffffffffffffffffffffffffff16905090565b6119d5612cc1565b60648160ff161115611a1c576040517f08c379a0000000000000000000000000000000000000000000000000000000008152600401611a1390614984565b60405180910390fd5b80600460016101000a81548160ff021916908360ff16021790555050565b600460009054906101000a900460ff1681565b600260009054906101000a900473ffffffffffffffffffffffffffffffffffffffff1673ffffffffffffffffffffffffffffffffffffffff163373ffffffffffffffffffffffffffffffffffffffff1614611add576040517f08c379a0000000000000000000000000000000000000000000000000000000008152600401611ad4906149f0565b60405180910390fd5b838360038282604051611af192919061419d565b908152602001604051809103902060000160009054906101000a900460ff16611b4f576040517f08c379a0000000000000000000000000000000000000000000000000000000008152600401611b46906143e6565b60405180910390fd5b611b57612e0c565b600060038787604051611b6b92919061419d565b90815260200160405180910390209050600081600401600001805490501480611b9e5750600081600c0160000180549050145b80611bd057508060000160059054906101000a900460030b60030b8160000160019054906101000a900460030b60030b145b15611dbd578060000160059054906101000a900460030b60030b8160000160019054906101000a900460030b60030b03611d13576000816004019050600082600c019050600082600601549050600082600601549050611c328b8b868c612e52565b611c3e8b8b858c612e52565b7fd86802201c3bf5d79ef71027c49cdfdee99fa298848917618ba148d098f15f748b8b86600001805490508588600601548d604051611c8296959493929190614a10565b60405180910390a17fd86802201c3bf5d79ef71027c49cdfdee99fa298848917618ba148d098f15f748b8b85600001805490508487600601548d604051611cce96959493929190614a10565b60405180910390a183600001805490508460060154148015611cfa575082600001805490508360060154145b15611d0a57611d098b8b612ffa565b5b50505050611db7565b60008082600c016000018054905014611d2f5781600c01611d34565b816004015b9050600081600601549050611d4b8989848a612e52565b7fd86802201c3bf5d79ef71027c49cdfdee99fa298848917618ba148d098f15f74898984600001805490508486600601548b604051611d8f96959493929190614a10565b60405180910390a18160000180549050826006015403611db457611db38989612ffa565b5b50505b50612225565b600081600c01905060008260040190508260000160059054906101000a900460030b60030b8360000160019054906101000a900460030b60030b1215611e0a5782600401915082600c0190505b6000611e168383613186565b905060008863ffffffff168260e0015111611e35578160e00151611e3d565b8863ffffffff165b90506000818560060154611e5191906141e5565b90506000856006015490505b818110156120e857600060648760050154606487608001518a6000018681548110611e8b57611e8a614a6c565b5b9060005260206000200154611ea09190614a9b565b611eaa9190614a9b565b611eb49190614b0c565b611ebe9190614b0c565b9050611f89876001018381548110611ed957611ed8614a6c565b5b9060005260206000200160009054906101000a900473ffffffffffffffffffffffffffffffffffffffff166064600460009054906101000a900460ff1660ff168a6000018681548110611f2f57611f2e614a6c565b5b9060005260206000200154611f449190614a9b565b611f4e9190614b0c565b896000018581548110611f6457611f63614a6c565b5b9060005260206000200154611f79919061465b565b83611f8491906141e5565b613359565b866001018281548110611f9f57611f9e614a6c565b5b9060005260206000200160009054906101000a900473ffffffffffffffffffffffffffffffffffffffff1673ffffffffffffffffffffffffffffffffffffffff167fc6f8d1369ef8a4d7d8373cd5079d27245ff35d49aba7ff57de55fbaf8d53813b8f8f8a600101868154811061201957612018614a6c565b5b9060005260206000200160009054906101000a900473ffffffffffffffffffffffffffffffffffffffff168b600001878154811061205a57612059614a6c565b5b9060005260206000200154868d600401898154811061207c5761207b614a6c565b5b90600052602060002001600460009054906101000a900460ff16600460019054906101000a900460ff166040516120ba989796959493929190614bd6565b60405180910390a28087600701546120d291906141e5565b8760070181905550508080600101915050611e5d565b507fd86802201c3bf5d79ef71027c49cdfdee99fa298848917618ba148d098f15f748c8c87600001805490508860060154858e60405161212d96959493929190614a10565b60405180910390a1808560060181905550846000018054905085600601540361221e57612180600460039054906101000a900473ffffffffffffffffffffffffffffffffffffffff168460c00151613359565b6121b0600560009054906101000a900473ffffffffffffffffffffffffffffffffffffffff168460400151613359565b6121e0600660009054906101000a900473ffffffffffffffffffffffffffffffffffffffff168460600151613359565b612213600460039054906101000a900473ffffffffffffffffffffffffffffffffffffffff1661220e611988565b613359565b61221d8c8c612ffa565b5b5050505050505b61222d61340a565b505050505050565b600260009054906101000a900473ffffffffffffffffffffffffffffffffffffffff1673ffffffffffffffffffffffffffffffffffffffff163373ffffffffffffffffffffffffffffffffffffffff16146122c5576040517f08c379a00000000000000000000000000000000000000000000000000000000081526004016122bc906149f0565b60405180910390fd5b8383600382826040516122d992919061419d565b908152602001604051809103902060000160009054906101000a900460ff16612337576040517f08c379a000000000000000000000000000000000000000000000000000000000815260040161232e906143e6565b60405180910390fd5b8284111561237a576040517f08c379a000000000000000000000000000000000000000000000000000000000815260040161237190614cc7565b60405180910390fd5b836003878760405161238d92919061419d565b90815260200160405180910390206001018190555082600387876040516123b592919061419d565b908152602001604051809103902060020181905550505050505050565b600260009054906101000a900473ffffffffffffffffffffffffffffffffffffffff1673ffffffffffffffffffffffffffffffffffffffff163373ffffffffffffffffffffffffffffffffffffffff1614612462576040517f08c379a0000000000000000000000000000000000000000000000000000000008152600401612459906149f0565b60405180910390fd5b84846003828260405161247692919061419d565b908152602001604051809103902060000160009054906101000a900460ff166124d4576040517f08c379a00000000000000000000000000000000000000000000000000000000081526004016124cb906143e6565b60405180910390fd5b6000600388886040516124e892919061419d565b908152602001604051809103902090506125028888610ff1565b1561262757600660149054906101000a900460ff16612556576040517f08c379a000000000000000000000000000000000000000000000000000000000815260040161254d90614d59565b60405180910390fd5b848160000160016101000a81548163ffffffff021916908360030b63ffffffff160217905550858160140160006101000a81548167ffffffffffffffff021916908360070b67ffffffffffffffff16021790555087876040516125ba92919061419d565b60405180910390207f977f157300bb4d69d09b3e083fb55a17a0c02f978e5b220c08173c63de9665aa8989898560000160019054906101000a900460030b86600101548760020154886003015460405161261a9796959493929190614d79565b60405180910390a2612726565b60008160000160059054906101000a900460030b60030b036126f357848160000160056101000a81548163ffffffff021916908360030b63ffffffff160217905550878760405161267992919061419d565b60405180910390207fe097bf610f5827ffcdd36eb07b790e6ee02dd498f911ab45664208cfad9323b08989898560000160019054906101000a900460030b8660000160059054906101000a900460030b6040516126da959493929190614de3565b60405180910390a26126ee88888689611a4d565b612725565b6040517fd56be5db00000000000000000000000000000000000000000000000000000000815260040160405180910390fd5b5b5050505050505050565b600660009054906101000a900473ffffffffffffffffffffffffffffffffffffffff1681565b61275e612cc1565b60648160ff1611156127a5576040517f08c379a000000000000000000000000000000000000000000000000000000000815260040161279c90614ea3565b60405180910390fd5b80600460026101000a81548160ff021916908360ff16021790555050565b6127cb612cc1565b60648160ff161115612812576040517f08c379a000000000000000000000000000000000000000000000000000000000815260040161280990614f0f565b60405180910390fd5b80600460006101000a81548160ff021916908360ff16021790555050565b612838612cc1565b6001600660146101000a81548160ff021916908315150217905550604051806020016040528060008152506007908161287191906150db565b507f762f260439bb4be3ef6e4dc2786e2e7bd187d3d80b79057d7a424fe98563e33560405160405180910390a1565b600260009054906101000a900473ffffffffffffffffffffffffffffffffffffffff1673ffffffffffffffffffffffffffffffffffffffff163373ffffffffffffffffffffffffffffffffffffffff1614612930576040517f08c379a0000000000000000000000000000000000000000000000000000000008152600401612927906149f0565b60405180910390fd5b60016003868660405161294492919061419d565b908152602001604051809103902060000160006101000a81548160ff021916908315150217905550826003868660405161297f92919061419d565b90815260200160405180910390206001018190555081600386866040516129a792919061419d565b90815260200160405180910390206002018190555080600386866040516129cf92919061419d565b9081526020016040518091039020600301819055505050505050565b6129f3612cc1565b6000600660146101000a81548160ff021916908315150217905550818160079182612a1f9291906151b8565b507fbbed56c796999ec9481de9169e54d6f193c57a335189c8b82053d80e263fdbd68282604051612a51929190615288565b60405180910390a15050565b612a65612cc1565b600073ffffffffffffffffffffffffffffffffffffffff168173ffffffffffffffffffffffffffffffffffffffff1603612ad75760006040517f1e4fbdf7000000000000000000000000000000000000000000000000000000008152600401612ace91906137b0565b60405180910390fd5b612ae081612d48565b50565b600260009054906101000a900473ffffffffffffffffffffffffffffffffffffffff1681565b60003273ffffffffffffffffffffffffffffffffffffffff168273ffffffffffffffffffffffffffffffffffffffff16149050919050565b60008860000188908060018154018082558091505060019003906000526020600020016000909190919091505588600101339080600181540180825580915050600190039060005260206000200160009091909190916101000a81548173ffffffffffffffffffffffffffffffffffffffff021916908373ffffffffffffffffffffffffffffffffffffffff16021790555088600201878790918060018154018082558091505060019003906000526020600020016000909192909192909192909192509182612c129291906152fd565b5088600301858590918060018154018082558091505060019003906000526020600020016000909192909192909192909192509182612c529291906152fd565b5088600401838390918060018154018082558091505060019003906000526020600020016000909192909192909192909192509182612c929291906152fd565b5087896005016000828254612ca791906141e5565b925050819055508860050154905098975050505050505050565b612cc9613413565b73ffffffffffffffffffffffffffffffffffffffff16612ce76119a4565b73ffffffffffffffffffffffffffffffffffffffff1614612d4657612d0a613413565b6040517f118cdaa7000000000000000000000000000000000000000000000000000000008152600401612d3d91906137b0565b60405180910390fd5b565b60008060009054906101000a900473ffffffffffffffffffffffffffffffffffffffff169050816000806101000a81548173ffffffffffffffffffffffffffffffffffffffff021916908373ffffffffffffffffffffffffffffffffffffffff1602179055508173ffffffffffffffffffffffffffffffffffffffff168173ffffffffffffffffffffffffffffffffffffffff167f8be0079c531659141344cd1fd0a4f28419497f9722a3daafe3b4186f6b6457e060405160405180910390a35050565b600260015403612e48576040517f3ee5aeb500000000000000000000000000000000000000000000000000000000815260040160405180910390fd5b6002600181905550565b600082600601548360000180549050612e6b919061465b565b905060008263ffffffff168211612e825781612e8a565b8263ffffffff165b90506000818560060154612e9e91906141e5565b90506000856006015490505b81811015612fe757612f1c866001018281548110612ecb57612eca614a6c565b5b9060005260206000200160009054906101000a900473ffffffffffffffffffffffffffffffffffffffff16876000018381548110612f0c57612f0b614a6c565b5b9060005260206000200154613359565b7fb9b3cf88e16ddd6b941ffa04b763047af17bafd3cdecef4d26d46f43e64c12058888886001018481548110612f5557612f54614a6c565b5b9060005260206000200160009054906101000a900473ffffffffffffffffffffffffffffffffffffffff16896000018581548110612f9657612f95614a6c565b5b90600052602060002001548a6004018681548110612fb757612fb6614a6c565b5b90600052602060002001604051612fd29594939291906153cd565b60405180910390a18080600101915050612eaa565b5080856006018190555050505050505050565b6003828260405161300c92919061419d565b90815260200160405180910390206004016000808201600061302e919061344d565b60018201600061303e919061346e565b60028201600061304e919061348f565b60038201600061305e919061348f565b60048201600061306e919061348f565b60058201600090556006820160009055600782016000905550506003828260405161309a92919061419d565b9081526020016040518091039020600c01600080820160006130bc919061344d565b6001820160006130cc919061346e565b6002820160006130dc919061348f565b6003820160006130ec919061348f565b6004820160006130fc919061348f565b60058201600090556006820160009055600782016000905550506003828260405161312892919061419d565b908152602001604051809103902060000160016101000a81549063ffffffff02191690556003828260405161315e92919061419d565b908152602001604051809103902060000160056101000a81549063ffffffff02191690555050565b61318e6134b0565b60006064600460009054906101000a900460ff1660ff16846005015486600501546131b991906141e5565b6131c39190614a9b565b6131cd9190614b0c565b905060006064600460019054906101000a900460ff1660ff16836131f19190614a9b565b6131fb9190614b0c565b905060006064600460029054906101000a900460ff1660ff168461321f9190614a9b565b6132299190614b0c565b90506000818361323991906141e5565b84613244919061465b565b905060006064600460009054906101000a900460ff1660ff16886005015461326c9190614a9b565b6132769190614b0c565b8760050154613285919061465b565b905060006064600460009054906101000a900460ff1660ff168a600501546132ad9190614a9b565b6132b79190614b0c565b89600501546132c6919061465b565b9050600089600601548a600001805490506132e1919061465b565b90506040518061010001604052806064600460009054906101000a900460ff1660ff168d600501546133139190614a9b565b61331d9190614b0c565b81526020018881526020018781526020018681526020018481526020018381526020018581526020018281525097505050505050505092915050565b60008273ffffffffffffffffffffffffffffffffffffffff168260405161337f90615448565b60006040518083038185875af1925050503d80600081146133bc576040519150601f19603f3d011682016040523d82523d6000602084013e6133c1565b606091505b5050905080613405576040517f08c379a00000000000000000000000000000000000000000000000000000000081526004016133fc906154a9565b60405180910390fd5b505050565b60018081905550565b600033905090565b6040518060a00160405280606081526020016060815260200160608152602001600060070b8152602001606081525090565b508054600082559060005260206000209081019061346b91906134f5565b50565b508054600082559060005260206000209081019061348c91906134f5565b50565b50805460008255906000526020600020908101906134ad9190613512565b50565b60405180610100016040528060008152602001600081526020016000815260200160008152602001600081526020016000815260200160008152602001600081525090565b5b8082111561350e5760008160009055506001016134f6565b5090565b5b8082111561353257600081816135299190613536565b50600101613513565b5090565b508054613542906148e1565b6000825580601f106135545750613573565b601f01602090049060005260206000209081019061357291906134f5565b5b50565b6000604051905090565b600080fd5b600080fd5b600080fd5b600080fd5b600080fd5b60008083601f8401126135af576135ae61358a565b5b8235905067ffffffffffffffff8111156135cc576135cb61358f565b5b6020830191508360018202830111156135e8576135e7613594565b5b9250929050565b6000806020838503121561360657613605613580565b5b600083013567ffffffffffffffff81111561362457613623613585565b5b61363085828601613599565b92509250509250929050565b60008115159050919050565b6136518161363c565b82525050565b600060208201905061366c6000830184613648565b92915050565b600080fd5b600060c0828403121561368d5761368c613672565b5b81905092915050565b6000602082840312156136ac576136ab613580565b5b600082013567ffffffffffffffff8111156136ca576136c9613585565b5b6136d684828501613677565b91505092915050565b600060ff82169050919050565b6136f5816136df565b82525050565b600060208201905061371060008301846136ec565b92915050565b600073ffffffffffffffffffffffffffffffffffffffff82169050919050565b600061374182613716565b9050919050565b61375181613736565b811461375c57600080fd5b50565b60008135905061376e81613748565b92915050565b60006020828403121561378a57613789613580565b5b60006137988482850161375f565b91505092915050565b6137aa81613736565b82525050565b60006020820190506137c560008301846137a1565b92915050565b600080fd5b6000601f19601f8301169050919050565b7f4e487b7100000000000000000000000000000000000000000000000000000000600052604160045260246000fd5b613819826137d0565b810181811067ffffffffffffffff82111715613838576138376137e1565b5b80604052505050565b600061384b613576565b90506138578282613810565b919050565b600067ffffffffffffffff821115613877576138766137e1565b5b613880826137d0565b9050602081019050919050565b82818337600083830152505050565b60006138af6138aa8461385c565b613841565b9050828152602081018484840111156138cb576138ca6137cb565b5b6138d684828561388d565b509392505050565b600082601f8301126138f3576138f261358a565b5b813561390384826020860161389c565b91505092915050565b60006020828403121561392257613921613580565b5b600082013567ffffffffffffffff8111156139405761393f613585565b5b61394c848285016138de565b91505092915050565b60008160030b9050919050565b61396b81613955565b82525050565b6000819050919050565b61398481613971565b82525050565b600081519050919050565b600082825260208201905092915050565b6000819050602082019050919050565b6139bf81613971565b82525050565b60006139d183836139b6565b60208301905092915050565b6000602082019050919050565b60006139f58261398a565b6139ff8185613995565b9350613a0a836139a6565b8060005b83811015613a3b578151613a2288826139c5565b9750613a2d836139dd565b925050600181019050613a0e565b5085935050505092915050565b600081519050919050565b600082825260208201905092915050565b6000819050602082019050919050565b613a7d81613736565b82525050565b6000613a8f8383613a74565b60208301905092915050565b6000602082019050919050565b6000613ab382613a48565b613abd8185613a53565b9350613ac883613a64565b8060005b83811015613af9578151613ae08882613a83565b9750613aeb83613a9b565b925050600181019050613acc565b5085935050505092915050565b600081519050919050565b600082825260208201905092915050565b6000819050602082019050919050565b600081519050919050565b600082825260208201905092915050565b60005b83811015613b6c578082015181840152602081019050613b51565b60008484015250505050565b6000613b8382613b32565b613b8d8185613b3d565b9350613b9d818560208601613b4e565b613ba6816137d0565b840191505092915050565b6000613bbd8383613b78565b905092915050565b6000602082019050919050565b6000613bdd82613b06565b613be78185613b11565b935083602082028501613bf985613b22565b8060005b85811015613c355784840389528151613c168582613bb1565b9450613c2183613bc5565b925060208a01995050600181019050613bfd565b50829750879550505050505092915050565b6000610100830160008301518482036000860152613c6582826139ea565b91505060208301518482036020860152613c7f8282613aa8565b91505060408301518482036040860152613c998282613bd2565b91505060608301518482036060860152613cb38282613bd2565b91505060808301518482036080860152613ccd8282613bd2565b91505060a0830151613ce260a08601826139b6565b5060c0830151613cf560c08601826139b6565b5060e0830151613d0860e08601826139b6565b508091505092915050565b60008160070b9050919050565b613d2981613d13565b82525050565b600061012082019050613d45600083018c613648565b613d52602083018b613962565b613d5f604083018a613962565b613d6c606083018961397b565b613d79608083018861397b565b613d8660a083018761397b565b81810360c0830152613d988186613c47565b905081810360e0830152613dac8185613c47565b9050613dbc610100830184613d20565b9a9950505050505050505050565b600081519050919050565b600082825260208201905092915050565b6000613df182613dca565b613dfb8185613dd5565b9350613e0b818560208601613b4e565b613e14816137d0565b840191505092915050565b60006020820190508181036000830152613e398184613de6565b905092915050565b6000602082019050613e56600083018461397b565b92915050565b613e65816136df565b8114613e7057600080fd5b50565b600081359050613e8281613e5c565b92915050565b600060208284031215613e9e57613e9d613580565b5b6000613eac84828501613e73565b91505092915050565b600063ffffffff82169050919050565b613ece81613eb5565b8114613ed957600080fd5b50565b600081359050613eeb81613ec5565b92915050565b613efa81613d13565b8114613f0557600080fd5b50565b600081359050613f1781613ef1565b92915050565b60008060008060608587031215613f3757613f36613580565b5b600085013567ffffffffffffffff811115613f5557613f54613585565b5b613f6187828801613599565b94509450506020613f7487828801613edc565b9250506040613f8587828801613f08565b91505092959194509250565b613f9a81613971565b8114613fa557600080fd5b50565b600081359050613fb781613f91565b92915050565b60008060008060608587031215613fd757613fd6613580565b5b600085013567ffffffffffffffff811115613ff557613ff4613585565b5b61400187828801613599565b9450945050602061401487828801613fa8565b925050604061402587828801613fa8565b91505092959194509250565b61403a81613955565b811461404557600080fd5b50565b60008135905061405781614031565b92915050565b60008060008060006080868803121561407957614078613580565b5b600086013567ffffffffffffffff81111561409757614096613585565b5b6140a388828901613599565b955095505060206140b688828901613f08565b93505060406140c788828901614048565b92505060606140d888828901613edc565b9150509295509295909350565b60008060008060006080868803121561410157614100613580565b5b600086013567ffffffffffffffff81111561411f5761411e613585565b5b61412b88828901613599565b9550955050602061413e88828901613fa8565b935050604061414f88828901613fa8565b925050606061416088828901613fa8565b9150509295509295909350565b600081905092915050565b6000614184838561416d565b935061419183858461388d565b82840190509392505050565b60006141aa828486614178565b91508190509392505050565b7f4e487b7100000000000000000000000000000000000000000000000000000000600052601160045260246000fd5b60006141f082613971565b91506141fb83613971565b9250828201905080821115614213576142126141b6565b5b92915050565b600080fd5b600080fd5b600080fd5b6000808335600160200384360303811261424557614244614219565b5b80840192508235915067ffffffffffffffff8211156142675761426661421e565b5b60208301925060018202360383131561428357614282614223565b5b509250929050565b600082825260208201905092915050565b7f5468697320706f6f6c20686173206120726f756e6420696e2070726f6772657360008201527f7300000000000000000000000000000000000000000000000000000000000000602082015250565b60006142f860218361428b565b91506143038261429c565b604082019050919050565b60006020820190508181036000830152614327816142eb565b9050919050565b7f5468652067616d65206973206e6f742072756e6e696e67000000000000000000600082015250565b600061436460178361428b565b915061436f8261432e565b602082019050919050565b6000602082019050818103600083015261439381614357565b9050919050565b7f506f6f6c20646f6573206e6f7420657869737400000000000000000000000000600082015250565b60006143d060138361428b565b91506143db8261439a565b602082019050919050565b600060208201905081810360008301526143ff816143c3565b9050919050565b7f6d75737420626520454f41000000000000000000000000000000000000000000600082015250565b600061443c600b8361428b565b915061444782614406565b602082019050919050565b6000602082019050818103600083015261446b8161442f565b9050919050565b7f76616c7565206d7573742062652067726561746572207468616e207a65726f00600082015250565b60006144a8601f8361428b565b91506144b382614472565b602082019050919050565b600060208201905081810360008301526144d78161449b565b9050919050565b7f616d6f756e742073686f756c6420626520686967686572207468616e2074686560008201527f206d696e696d756d000000000000000000000000000000000000000000000000602082015250565b600061453a60288361428b565b9150614545826144de565b604082019050919050565b600060208201905081810360008301526145698161452d565b9050919050565b7f616d6f756e742073686f756c64206265206c6f776572207468616e207468652060008201527f6d6178696d756d00000000000000000000000000000000000000000000000000602082015250565b60006145cc60278361428b565b91506145d782614570565b604082019050919050565b600060208201905081810360008301526145fb816145bf565b9050919050565b61460b8161363c565b811461461657600080fd5b50565b60008135905061462881614602565b92915050565b60006020828403121561464457614643613580565b5b600061465284828501614619565b91505092915050565b600061466682613971565b915061467183613971565b9250828203905081811115614689576146886141b6565b5b92915050565b7f506f6f6c2069732066756c6c2c207761697420666f72206e65787420726f756e60008201527f6400000000000000000000000000000000000000000000000000000000000000602082015250565b60006146eb60218361428b565b91506146f68261468f565b604082019050919050565b6000602082019050818103600083015261471a816146de565b9050919050565b6000808335600160200384360303811261473e5761473d614219565b5b80840192508235915067ffffffffffffffff8211156147605761475f61421e565b5b60208301925060018202360383131561477c5761477b614223565b5b509250929050565b60006147908385613dd5565b935061479d83858461388d565b6147a6836137d0565b840190509392505050565b60006147bc82613b32565b6147c6818561428b565b93506147d6818560208601613b4e565b6147df816137d0565b840191505092915050565b6000610140820190508181036000830152614806818d8f614784565b9050614815602083018c6137a1565b614822604083018b61397b565b8181036060830152614834818a6147b1565b9050614843608083018961397b565b81810360a083015261485581886147b1565b905081810360c083015261486981876147b1565b905061487860e0830186613d20565b81810361010083015261488b81856147b1565b90508181036101208301526148a081846147b1565b90509c9b505050505050505050505050565b7f4e487b7100000000000000000000000000000000000000000000000000000000600052602260045260246000fd5b600060028204905060018216806148f957607f821691505b60208210810361490c5761490b6148b2565b5b50919050565b7f57726f6e67206a61636b706f74206665652070657263656e746167652076616c60008201527f7565000000000000000000000000000000000000000000000000000000000000602082015250565b600061496e60228361428b565b915061497982614912565b604082019050919050565b6000602082019050818103600083015261499d81614961565b9050919050565b7f4f6e6c792067616d6520636f6e74726f6c6c65722063616e20646f2074686973600082015250565b60006149da60208361428b565b91506149e5826149a4565b602082019050919050565b60006020820190508181036000830152614a09816149cd565b9050919050565b600060a0820190508181036000830152614a2b81888a614784565b9050614a3a602083018761397b565b614a47604083018661397b565b614a54606083018561397b565b614a616080830184613d20565b979650505050505050565b7f4e487b7100000000000000000000000000000000000000000000000000000000600052603260045260246000fd5b6000614aa682613971565b9150614ab183613971565b9250828202614abf81613971565b91508282048414831517614ad657614ad56141b6565b5b5092915050565b7f4e487b7100000000000000000000000000000000000000000000000000000000600052601260045260246000fd5b6000614b1782613971565b9150614b2283613971565b925082614b3257614b31614add565b5b828204905092915050565b60008190508160005260206000209050919050565b60008154614b5f816148e1565b614b69818661428b565b94506001821660008114614b845760018114614b9a57614bcd565b60ff198316865281151560200286019350614bcd565b614ba385614b3d565b60005b83811015614bc557815481890152600182019150602081019050614ba6565b808801955050505b50505092915050565b600060e0820190508181036000830152614bf1818a8c614784565b9050614c0060208301896137a1565b614c0d604083018861397b565b614c1a606083018761397b565b8181036080830152614c2c8186614b52565b9050614c3b60a08301856136ec565b614c4860c08301846136ec565b9998505050505050505050565b7f4d696e696d756d2062657420616d6f756e74206d757374206265206c6573732060008201527f7468616e206d6178696d756d2062657420616d6f756e74000000000000000000602082015250565b6000614cb160378361428b565b9150614cbc82614c55565b604082019050919050565b60006020820190508181036000830152614ce081614ca4565b9050919050565b7f5468652067616d65206973206e6f742072756e6e696e672c20726f756e64732060008201527f63616e206f6e6c7920626520656e646564206174207468697320706f696e7400602082015250565b6000614d43603f8361428b565b9150614d4e82614ce7565b604082019050919050565b60006020820190508181036000830152614d7281614d36565b9050919050565b600060c0820190508181036000830152614d9481898b614784565b9050614da36020830188613d20565b614db06040830187613962565b614dbd606083018661397b565b614dca608083018561397b565b614dd760a083018461397b565b98975050505050505050565b60006080820190508181036000830152614dfe818789614784565b9050614e0d6020830186613d20565b614e1a6040830185613962565b614e276060830184613962565b9695505050505050565b7f57726f6e672053657276696365206665652070657263656e746167652076616c60008201527f7565000000000000000000000000000000000000000000000000000000000000602082015250565b6000614e8d60228361428b565b9150614e9882614e31565b604082019050919050565b60006020820190508181036000830152614ebc81614e80565b9050919050565b7f57726f6e67206665652070657263656e746167652076616c7565000000000000600082015250565b6000614ef9601a8361428b565b9150614f0482614ec3565b602082019050919050565b60006020820190508181036000830152614f2881614eec565b9050919050565b60008190508160005260206000209050919050565b60006020601f8301049050919050565b600082821b905092915050565b600060088302614f917fffffffffffffffffffffffffffffffffffffffffffffffffffffffffffffffff82614f54565b614f9b8683614f54565b95508019841693508086168417925050509392505050565b6000819050919050565b6000614fd8614fd3614fce84613971565b614fb3565b613971565b9050919050565b6000819050919050565b614ff283614fbd565b615006614ffe82614fdf565b848454614f61565b825550505050565b600090565b61501b61500e565b615026818484614fe9565b505050565b5b8181101561504a5761503f600082615013565b60018101905061502c565b5050565b601f82111561508f5761506081614f2f565b61506984614f44565b81016020851015615078578190505b61508c61508485614f44565b83018261502b565b50505b505050565b600082821c905092915050565b60006150b260001984600802615094565b1980831691505092915050565b60006150cb83836150a1565b9150826002028217905092915050565b6150e482613b32565b67ffffffffffffffff8111156150fd576150fc6137e1565b5b61510782546148e1565b61511282828561504e565b600060209050601f8311600181146151455760008415615133578287015190505b61513d85826150bf565b8655506151a5565b601f19841661515386614f2f565b60005b8281101561517b57848901518255600182019150602085019450602081019050615156565b868310156151985784890151615194601f8916826150a1565b8355505b6001600288020188555050505b505050505050565b600082905092915050565b6151c283836151ad565b67ffffffffffffffff8111156151db576151da6137e1565b5b6151e582546148e1565b6151f082828561504e565b6000601f83116001811461521f576000841561520d578287013590505b61521785826150bf565b86555061527f565b601f19841661522d86614f2f565b60005b8281101561525557848901358255600182019150602085019450602081019050615230565b86831015615272578489013561526e601f8916826150a1565b8355505b6001600288020188555050505b50505050505050565b600060208201905081810360008301526152a3818486614784565b90509392505050565b600082905092915050565b601f8211156152f8576152c981614b3d565b6152d284614f44565b810160208510156152e1578190505b6152f56152ed85614f44565b83018261502b565b50505b505050565b61530783836152ac565b67ffffffffffffffff8111156153205761531f6137e1565b5b61532a82546148e1565b6153358282856152b7565b6000601f8311600181146153645760008415615352578287013590505b61535c85826150bf565b8655506153c4565b601f19841661537286614b3d565b60005b8281101561539a57848901358255600182019150602085019450602081019050615375565b868310156153b757848901356153b3601f8916826150a1565b8355505b6001600288020188555050505b50505050505050565b600060808201905081810360008301526153e8818789614784565b90506153f760208301866137a1565b615404604083018561397b565b81810360608301526154168184614b52565b90509695505050505050565b50565b600061543260008361416d565b915061543d82615422565b600082019050919050565b600061545382615425565b9150819050919050565b7f436f756c646e27742073656e6420657468657200000000000000000000000000600082015250565b600061549360138361428b565b915061549e8261545d565b602082019050919050565b600060208201905081810360008301526154c281615486565b905091905056fea2646970667358221220a1906eaa6265eb3dfc1bacfbbaf784220d2af050bc9a29992bd07a110950075964736f6c63430008180033",
          "opcodes": "PUSH1 0x80 PUSH1 0x40 MSTORE PUSH1 0xB PUSH1 0x4 PUSH1 0x0 PUSH2 0x100 EXP DUP2 SLOAD DUP2 PUSH1 0xFF MUL NOT AND SWAP1 DUP4 PUSH1 0xFF AND MUL OR SWAP1 SSTORE POP PUSH1 0x1 PUSH1 0x4 PUSH1 0x1 PUSH2 0x100 EXP DUP2 SLOAD DUP2 PUSH1 0xFF MUL NOT AND SWAP1 DUP4 PUSH1 0xFF AND MUL OR SWAP1 SSTORE POP PUSH1 0x1 PUSH1 0x4 PUSH1 0x2 PUSH2 0x100 EXP DUP2 SLOAD DUP2 PUSH1 0xFF MUL NOT AND SWAP1 DUP4 PUSH1 0xFF AND MUL OR SWAP1 SSTORE POP CALLER PUSH1 0x4 PUSH1 0x3 PUSH2 0x100 EXP DUP2 SLOAD DUP2 PUSH20 0xFFFFFFFFFFFFFFFFFFFFFFFFFFFFFFFFFFFFFFFF MUL NOT AND SWAP1 DUP4 PUSH20 0xFFFFFFFFFFFFFFFFFFFFFFFFFFFFFFFFFFFFFFFF AND MUL OR SWAP1 SSTORE POP CALLER PUSH1 0x5 PUSH1 0x0 PUSH2 0x100 EXP DUP2 SLOAD DUP2 PUSH20 0xFFFFFFFFFFFFFFFFFFFFFFFFFFFFFFFFFFFFFFFF MUL NOT AND SWAP1 DUP4 PUSH20 0xFFFFFFFFFFFFFFFFFFFFFFFFFFFFFFFFFFFFFFFF AND MUL OR SWAP1 SSTORE POP CALLER PUSH1 0x6 PUSH1 0x0 PUSH2 0x100 EXP DUP2 SLOAD DUP2 PUSH20 0xFFFFFFFFFFFFFFFFFFFFFFFFFFFFFFFFFFFFFFFF MUL NOT AND SWAP1 DUP4 PUSH20 0xFFFFFFFFFFFFFFFFFFFFFFFFFFFFFFFFFFFFFFFF AND MUL OR SWAP1 SSTORE POP CALLVALUE DUP1 ISZERO PUSH3 0x128 JUMPI PUSH1 0x0 DUP1 REVERT JUMPDEST POP PUSH1 0x40 MLOAD PUSH3 0x58C2 CODESIZE SUB DUP1 PUSH3 0x58C2 DUP4 CODECOPY DUP2 DUP2 ADD PUSH1 0x40 MSTORE DUP2 ADD SWAP1 PUSH3 0x14E SWAP2 SWAP1 PUSH3 0x353 JUMP JUMPDEST DUP1 PUSH1 0x0 PUSH20 0xFFFFFFFFFFFFFFFFFFFFFFFFFFFFFFFFFFFFFFFF AND DUP2 PUSH20 0xFFFFFFFFFFFFFFFFFFFFFFFFFFFFFFFFFFFFFFFF AND SUB PUSH3 0x1C4 JUMPI PUSH1 0x0 PUSH1 0x40 MLOAD PUSH32 0x1E4FBDF700000000000000000000000000000000000000000000000000000000 DUP2 MSTORE PUSH1 0x4 ADD PUSH3 0x1BB SWAP2 SWAP1 PUSH3 0x396 JUMP JUMPDEST PUSH1 0x40 MLOAD DUP1 SWAP2 SUB SWAP1 REVERT JUMPDEST PUSH3 0x1D5 DUP2 PUSH3 0x225 PUSH1 0x20 SHL PUSH1 0x20 SHR JUMP JUMPDEST POP PUSH1 0x1 DUP1 DUP2 SWAP1 SSTORE POP DUP1 PUSH1 0x2 PUSH1 0x0 PUSH2 0x100 EXP DUP2 SLOAD DUP2 PUSH20 0xFFFFFFFFFFFFFFFFFFFFFFFFFFFFFFFFFFFFFFFF MUL NOT AND SWAP1 DUP4 PUSH20 0xFFFFFFFFFFFFFFFFFFFFFFFFFFFFFFFFFFFFFFFF AND MUL OR SWAP1 SSTORE POP POP PUSH3 0x3B3 JUMP JUMPDEST PUSH1 0x0 DUP1 PUSH1 0x0 SWAP1 SLOAD SWAP1 PUSH2 0x100 EXP SWAP1 DIV PUSH20 0xFFFFFFFFFFFFFFFFFFFFFFFFFFFFFFFFFFFFFFFF AND SWAP1 POP DUP2 PUSH1 0x0 DUP1 PUSH2 0x100 EXP DUP2 SLOAD DUP2 PUSH20 0xFFFFFFFFFFFFFFFFFFFFFFFFFFFFFFFFFFFFFFFF MUL NOT AND SWAP1 DUP4 PUSH20 0xFFFFFFFFFFFFFFFFFFFFFFFFFFFFFFFFFFFFFFFF AND MUL OR SWAP1 SSTORE POP DUP2 PUSH20 0xFFFFFFFFFFFFFFFFFFFFFFFFFFFFFFFFFFFFFFFF AND DUP2 PUSH20 0xFFFFFFFFFFFFFFFFFFFFFFFFFFFFFFFFFFFFFFFF AND PUSH32 0x8BE0079C531659141344CD1FD0A4F28419497F9722A3DAAFE3B4186F6B6457E0 PUSH1 0x40 MLOAD PUSH1 0x40 MLOAD DUP1 SWAP2 SUB SWAP1 LOG3 POP POP JUMP JUMPDEST PUSH1 0x0 DUP1 REVERT JUMPDEST PUSH1 0x0 PUSH20 0xFFFFFFFFFFFFFFFFFFFFFFFFFFFFFFFFFFFFFFFF DUP3 AND SWAP1 POP SWAP2 SWAP1 POP JUMP JUMPDEST PUSH1 0x0 PUSH3 0x31B DUP3 PUSH3 0x2EE JUMP JUMPDEST SWAP1 POP SWAP2 SWAP1 POP JUMP JUMPDEST PUSH3 0x32D DUP2 PUSH3 0x30E JUMP JUMPDEST DUP2 EQ PUSH3 0x339 JUMPI PUSH1 0x0 DUP1 REVERT JUMPDEST POP JUMP JUMPDEST PUSH1 0x0 DUP2 MLOAD SWAP1 POP PUSH3 0x34D DUP2 PUSH3 0x322 JUMP JUMPDEST SWAP3 SWAP2 POP POP JUMP JUMPDEST PUSH1 0x0 PUSH1 0x20 DUP3 DUP5 SUB SLT ISZERO PUSH3 0x36C JUMPI PUSH3 0x36B PUSH3 0x2E9 JUMP JUMPDEST JUMPDEST PUSH1 0x0 PUSH3 0x37C DUP5 DUP3 DUP6 ADD PUSH3 0x33C JUMP JUMPDEST SWAP2 POP POP SWAP3 SWAP2 POP POP JUMP JUMPDEST PUSH3 0x390 DUP2 PUSH3 0x30E JUMP JUMPDEST DUP3 MSTORE POP POP JUMP JUMPDEST PUSH1 0x0 PUSH1 0x20 DUP3 ADD SWAP1 POP PUSH3 0x3AD PUSH1 0x0 DUP4 ADD DUP5 PUSH3 0x385 JUMP JUMPDEST SWAP3 SWAP2 POP POP JUMP JUMPDEST PUSH2 0x54FF DUP1 PUSH3 0x3C3 PUSH1 0x0 CODECOPY PUSH1 0x0 RETURN INVALID PUSH1 0x80 PUSH1 0x40 MSTORE PUSH1 0x4 CALLDATASIZE LT PUSH2 0x1CD JUMPI PUSH1 0x0 CALLDATALOAD PUSH1 0xE0 SHR DUP1 PUSH4 0x715018A6 GT PUSH2 0xF7 JUMPI DUP1 PUSH4 0xAE38A8B9 GT PUSH2 0x95 JUMPI DUP1 PUSH4 0xE4709969 GT PUSH2 0x64 JUMPI DUP1 PUSH4 0xE4709969 EQ PUSH2 0x623 JUMPI DUP1 PUSH4 0xEAB79B7D EQ PUSH2 0x64C JUMPI DUP1 PUSH4 0xF2FDE38B EQ PUSH2 0x675 JUMPI DUP1 PUSH4 0xF68256A8 EQ PUSH2 0x69E JUMPI PUSH2 0x1CD JUMP JUMPDEST DUP1 PUSH4 0xAE38A8B9 EQ PUSH2 0x58F JUMPI DUP1 PUSH4 0xAFAD745A EQ PUSH2 0x5BA JUMPI DUP1 PUSH4 0xD4C770CF EQ PUSH2 0x5E3 JUMPI DUP1 PUSH4 0xD65AB5F2 EQ PUSH2 0x60C JUMPI PUSH2 0x1CD JUMP JUMPDEST DUP1 PUSH4 0xA001ECDD GT PUSH2 0xD1 JUMPI DUP1 PUSH4 0xA001ECDD EQ PUSH2 0x4E9 JUMPI DUP1 PUSH4 0xA7C3324D EQ PUSH2 0x514 JUMPI DUP1 PUSH4 0xA813CF9B EQ PUSH2 0x53D JUMPI DUP1 PUSH4 0xA9B99AF5 EQ PUSH2 0x566 JUMPI PUSH2 0x1CD JUMP JUMPDEST DUP1 PUSH4 0x715018A6 EQ PUSH2 0x47E JUMPI DUP1 PUSH4 0x8DA5CB5B EQ PUSH2 0x495 JUMPI DUP1 PUSH4 0x900B7B3F EQ PUSH2 0x4C0 JUMPI PUSH2 0x1CD JUMP JUMPDEST DUP1 PUSH4 0x3B9FE1EE GT PUSH2 0x16F JUMPI DUP1 PUSH4 0x595DC897 GT PUSH2 0x13E JUMPI DUP1 PUSH4 0x595DC897 EQ PUSH2 0x3D4 JUMPI DUP1 PUSH4 0x603EF649 EQ PUSH2 0x3FD JUMPI DUP1 PUSH4 0x6518A0A9 EQ PUSH2 0x428 JUMPI DUP1 PUSH4 0x6F9FB98A EQ PUSH2 0x453 JUMPI PUSH2 0x1CD JUMP JUMPDEST DUP1 PUSH4 0x3B9FE1EE EQ PUSH2 0x310 JUMPI DUP1 PUSH4 0x3FAFAC92 EQ PUSH2 0x33B JUMPI DUP1 PUSH4 0x41275358 EQ PUSH2 0x380 JUMPI DUP1 PUSH4 0x41581768 EQ PUSH2 0x3AB JUMPI PUSH2 0x1CD JUMP JUMPDEST DUP1 PUSH4 0x1C2DB192 GT PUSH2 0x1AB JUMPI DUP1 PUSH4 0x1C2DB192 EQ PUSH2 0x256 JUMPI DUP1 PUSH4 0x1D0D625B EQ PUSH2 0x27F JUMPI DUP1 PUSH4 0x2014E5D1 EQ PUSH2 0x2A8 JUMPI DUP1 PUSH4 0x30EFABD4 EQ PUSH2 0x2D3 JUMPI PUSH2 0x1CD JUMP JUMPDEST DUP1 PUSH4 0xC2F915E EQ PUSH2 0x1D2 JUMPI DUP1 PUSH4 0xD62D031 EQ PUSH2 0x20F JUMPI DUP1 PUSH4 0x159DC634 EQ PUSH2 0x22B JUMPI JUMPDEST PUSH1 0x0 DUP1 REVERT JUMPDEST CALLVALUE DUP1 ISZERO PUSH2 0x1DE JUMPI PUSH1 0x0 DUP1 REVERT JUMPDEST POP PUSH2 0x1F9 PUSH1 0x4 DUP1 CALLDATASIZE SUB DUP2 ADD SWAP1 PUSH2 0x1F4 SWAP2 SWAP1 PUSH2 0x35EF JUMP JUMPDEST PUSH2 0x6C9 JUMP JUMPDEST PUSH1 0x40 MLOAD PUSH2 0x206 SWAP2 SWAP1 PUSH2 0x3657 JUMP JUMPDEST PUSH1 0x40 MLOAD DUP1 SWAP2 SUB SWAP1 RETURN JUMPDEST PUSH2 0x229 PUSH1 0x4 DUP1 CALLDATASIZE SUB DUP2 ADD SWAP1 PUSH2 0x224 SWAP2 SWAP1 PUSH2 0x3696 JUMP JUMPDEST PUSH2 0x733 JUMP JUMPDEST STOP JUMPDEST CALLVALUE DUP1 ISZERO PUSH2 0x237 JUMPI PUSH1 0x0 DUP1 REVERT JUMPDEST POP PUSH2 0x240 PUSH2 0xF33 JUMP JUMPDEST PUSH1 0x40 MLOAD PUSH2 0x24D SWAP2 SWAP1 PUSH2 0x36FB JUMP JUMPDEST PUSH1 0x40 MLOAD DUP1 SWAP2 SUB SWAP1 RETURN JUMPDEST CALLVALUE DUP1 ISZERO PUSH2 0x262 JUMPI PUSH1 0x0 DUP1 REVERT JUMPDEST POP PUSH2 0x27D PUSH1 0x4 DUP1 CALLDATASIZE SUB DUP2 ADD SWAP1 PUSH2 0x278 SWAP2 SWAP1 PUSH2 0x3774 JUMP JUMPDEST PUSH2 0xF46 JUMP JUMPDEST STOP JUMPDEST CALLVALUE DUP1 ISZERO PUSH2 0x28B JUMPI PUSH1 0x0 DUP1 REVERT JUMPDEST POP PUSH2 0x2A6 PUSH1 0x4 DUP1 CALLDATASIZE SUB DUP2 ADD SWAP1 PUSH2 0x2A1 SWAP2 SWAP1 PUSH2 0x3774 JUMP JUMPDEST PUSH2 0xF92 JUMP JUMPDEST STOP JUMPDEST CALLVALUE DUP1 ISZERO PUSH2 0x2B4 JUMPI PUSH1 0x0 DUP1 REVERT JUMPDEST POP PUSH2 0x2BD PUSH2 0xFDE JUMP JUMPDEST PUSH1 0x40 MLOAD PUSH2 0x2CA SWAP2 SWAP1 PUSH2 0x3657 JUMP JUMPDEST PUSH1 0x40 MLOAD DUP1 SWAP2 SUB SWAP1 RETURN JUMPDEST CALLVALUE DUP1 ISZERO PUSH2 0x2DF JUMPI PUSH1 0x0 DUP1 REVERT JUMPDEST POP PUSH2 0x2FA PUSH1 0x4 DUP1 CALLDATASIZE SUB DUP2 ADD SWAP1 PUSH2 0x2F5 SWAP2 SWAP1 PUSH2 0x35EF JUMP JUMPDEST PUSH2 0xFF1 JUMP JUMPDEST PUSH1 0x40 MLOAD PUSH2 0x307 SWAP2 SWAP1 PUSH2 0x3657 JUMP JUMPDEST PUSH1 0x40 MLOAD DUP1 SWAP2 SUB SWAP1 RETURN JUMPDEST CALLVALUE DUP1 ISZERO PUSH2 0x31C JUMPI PUSH1 0x0 DUP1 REVERT JUMPDEST POP PUSH2 0x325 PUSH2 0x1037 JUMP JUMPDEST PUSH1 0x40 MLOAD PUSH2 0x332 SWAP2 SWAP1 PUSH2 0x37B0 JUMP JUMPDEST PUSH1 0x40 MLOAD DUP1 SWAP2 SUB SWAP1 RETURN JUMPDEST CALLVALUE DUP1 ISZERO PUSH2 0x347 JUMPI PUSH1 0x0 DUP1 REVERT JUMPDEST POP PUSH2 0x362 PUSH1 0x4 DUP1 CALLDATASIZE SUB DUP2 ADD SWAP1 PUSH2 0x35D SWAP2 SWAP1 PUSH2 0x390C JUMP JUMPDEST PUSH2 0x105D JUMP JUMPDEST PUSH1 0x40 MLOAD PUSH2 0x377 SWAP10 SWAP9 SWAP8 SWAP7 SWAP6 SWAP5 SWAP4 SWAP3 SWAP2 SWAP1 PUSH2 0x3D2F JUMP JUMPDEST PUSH1 0x40 MLOAD DUP1 SWAP2 SUB SWAP1 RETURN JUMPDEST CALLVALUE DUP1 ISZERO PUSH2 0x38C JUMPI PUSH1 0x0 DUP1 REVERT JUMPDEST POP PUSH2 0x395 PUSH2 0x1829 JUMP JUMPDEST PUSH1 0x40 MLOAD PUSH2 0x3A2 SWAP2 SWAP1 PUSH2 0x37B0 JUMP JUMPDEST PUSH1 0x40 MLOAD DUP1 SWAP2 SUB SWAP1 RETURN JUMPDEST CALLVALUE DUP1 ISZERO PUSH2 0x3B7 JUMPI PUSH1 0x0 DUP1 REVERT JUMPDEST POP PUSH2 0x3D2 PUSH1 0x4 DUP1 CALLDATASIZE SUB DUP2 ADD SWAP1 PUSH2 0x3CD SWAP2 SWAP1 PUSH2 0x3774 JUMP JUMPDEST PUSH2 0x184F JUMP JUMPDEST STOP JUMPDEST CALLVALUE DUP1 ISZERO PUSH2 0x3E0 JUMPI PUSH1 0x0 DUP1 REVERT JUMPDEST POP PUSH2 0x3FB PUSH1 0x4 DUP1 CALLDATASIZE SUB DUP2 ADD SWAP1 PUSH2 0x3F6 SWAP2 SWAP1 PUSH2 0x3774 JUMP JUMPDEST PUSH2 0x189B JUMP JUMPDEST STOP JUMPDEST CALLVALUE DUP1 ISZERO PUSH2 0x409 JUMPI PUSH1 0x0 DUP1 REVERT JUMPDEST POP PUSH2 0x412 PUSH2 0x18E7 JUMP JUMPDEST PUSH1 0x40 MLOAD PUSH2 0x41F SWAP2 SWAP1 PUSH2 0x36FB JUMP JUMPDEST PUSH1 0x40 MLOAD DUP1 SWAP2 SUB SWAP1 RETURN JUMPDEST CALLVALUE DUP1 ISZERO PUSH2 0x434 JUMPI PUSH1 0x0 DUP1 REVERT JUMPDEST POP PUSH2 0x43D PUSH2 0x18FA JUMP JUMPDEST PUSH1 0x40 MLOAD PUSH2 0x44A SWAP2 SWAP1 PUSH2 0x3E1F JUMP JUMPDEST PUSH1 0x40 MLOAD DUP1 SWAP2 SUB SWAP1 RETURN JUMPDEST CALLVALUE DUP1 ISZERO PUSH2 0x45F JUMPI PUSH1 0x0 DUP1 REVERT JUMPDEST POP PUSH2 0x468 PUSH2 0x1988 JUMP JUMPDEST PUSH1 0x40 MLOAD PUSH2 0x475 SWAP2 SWAP1 PUSH2 0x3E41 JUMP JUMPDEST PUSH1 0x40 MLOAD DUP1 SWAP2 SUB SWAP1 RETURN JUMPDEST CALLVALUE DUP1 ISZERO PUSH2 0x48A JUMPI PUSH1 0x0 DUP1 REVERT JUMPDEST POP PUSH2 0x493 PUSH2 0x1990 JUMP JUMPDEST STOP JUMPDEST CALLVALUE DUP1 ISZERO PUSH2 0x4A1 JUMPI PUSH1 0x0 DUP1 REVERT JUMPDEST POP PUSH2 0x4AA PUSH2 0x19A4 JUMP JUMPDEST PUSH1 0x40 MLOAD PUSH2 0x4B7 SWAP2 SWAP1 PUSH2 0x37B0 JUMP JUMPDEST PUSH1 0x40 MLOAD DUP1 SWAP2 SUB SWAP1 RETURN JUMPDEST CALLVALUE DUP1 ISZERO PUSH2 0x4CC JUMPI PUSH1 0x0 DUP1 REVERT JUMPDEST POP PUSH2 0x4E7 PUSH1 0x4 DUP1 CALLDATASIZE SUB DUP2 ADD SWAP1 PUSH2 0x4E2 SWAP2 SWAP1 PUSH2 0x3E88 JUMP JUMPDEST PUSH2 0x19CD JUMP JUMPDEST STOP JUMPDEST CALLVALUE DUP1 ISZERO PUSH2 0x4F5 JUMPI PUSH1 0x0 DUP1 REVERT JUMPDEST POP PUSH2 0x4FE PUSH2 0x1A3A JUMP JUMPDEST PUSH1 0x40 MLOAD PUSH2 0x50B SWAP2 SWAP1 PUSH2 0x36FB JUMP JUMPDEST PUSH1 0x40 MLOAD DUP1 SWAP2 SUB SWAP1 RETURN JUMPDEST CALLVALUE DUP1 ISZERO PUSH2 0x520 JUMPI PUSH1 0x0 DUP1 REVERT JUMPDEST POP PUSH2 0x53B PUSH1 0x4 DUP1 CALLDATASIZE SUB DUP2 ADD SWAP1 PUSH2 0x536 SWAP2 SWAP1 PUSH2 0x3F1D JUMP JUMPDEST PUSH2 0x1A4D JUMP JUMPDEST STOP JUMPDEST CALLVALUE DUP1 ISZERO PUSH2 0x549 JUMPI PUSH1 0x0 DUP1 REVERT JUMPDEST POP PUSH2 0x564 PUSH1 0x4 DUP1 CALLDATASIZE SUB DUP2 ADD SWAP1 PUSH2 0x55F SWAP2 SWAP1 PUSH2 0x3FBD JUMP JUMPDEST PUSH2 0x2235 JUMP JUMPDEST STOP JUMPDEST CALLVALUE DUP1 ISZERO PUSH2 0x572 JUMPI PUSH1 0x0 DUP1 REVERT JUMPDEST POP PUSH2 0x58D PUSH1 0x4 DUP1 CALLDATASIZE SUB DUP2 ADD SWAP1 PUSH2 0x588 SWAP2 SWAP1 PUSH2 0x405D JUMP JUMPDEST PUSH2 0x23D2 JUMP JUMPDEST STOP JUMPDEST CALLVALUE DUP1 ISZERO PUSH2 0x59B JUMPI PUSH1 0x0 DUP1 REVERT JUMPDEST POP PUSH2 0x5A4 PUSH2 0x2730 JUMP JUMPDEST PUSH1 0x40 MLOAD PUSH2 0x5B1 SWAP2 SWAP1 PUSH2 0x37B0 JUMP JUMPDEST PUSH1 0x40 MLOAD DUP1 SWAP2 SUB SWAP1 RETURN JUMPDEST CALLVALUE DUP1 ISZERO PUSH2 0x5C6 JUMPI PUSH1 0x0 DUP1 REVERT JUMPDEST POP PUSH2 0x5E1 PUSH1 0x4 DUP1 CALLDATASIZE SUB DUP2 ADD SWAP1 PUSH2 0x5DC SWAP2 SWAP1 PUSH2 0x3E88 JUMP JUMPDEST PUSH2 0x2756 JUMP JUMPDEST STOP JUMPDEST CALLVALUE DUP1 ISZERO PUSH2 0x5EF JUMPI PUSH1 0x0 DUP1 REVERT JUMPDEST POP PUSH2 0x60A PUSH1 0x4 DUP1 CALLDATASIZE SUB DUP2 ADD SWAP1 PUSH2 0x605 SWAP2 SWAP1 PUSH2 0x3E88 JUMP JUMPDEST PUSH2 0x27C3 JUMP JUMPDEST STOP JUMPDEST CALLVALUE DUP1 ISZERO PUSH2 0x618 JUMPI PUSH1 0x0 DUP1 REVERT JUMPDEST POP PUSH2 0x621 PUSH2 0x2830 JUMP JUMPDEST STOP JUMPDEST CALLVALUE DUP1 ISZERO PUSH2 0x62F JUMPI PUSH1 0x0 DUP1 REVERT JUMPDEST POP PUSH2 0x64A PUSH1 0x4 DUP1 CALLDATASIZE SUB DUP2 ADD SWAP1 PUSH2 0x645 SWAP2 SWAP1 PUSH2 0x40E5 JUMP JUMPDEST PUSH2 0x28A0 JUMP JUMPDEST STOP JUMPDEST CALLVALUE DUP1 ISZERO PUSH2 0x658 JUMPI PUSH1 0x0 DUP1 REVERT JUMPDEST POP PUSH2 0x673 PUSH1 0x4 DUP1 CALLDATASIZE SUB DUP2 ADD SWAP1 PUSH2 0x66E SWAP2 SWAP1 PUSH2 0x35EF JUMP JUMPDEST PUSH2 0x29EB JUMP JUMPDEST STOP JUMPDEST CALLVALUE DUP1 ISZERO PUSH2 0x681 JUMPI PUSH1 0x0 DUP1 REVERT JUMPDEST POP PUSH2 0x69C PUSH1 0x4 DUP1 CALLDATASIZE SUB DUP2 ADD SWAP1 PUSH2 0x697 SWAP2 SWAP1 PUSH2 0x3774 JUMP JUMPDEST PUSH2 0x2A5D JUMP JUMPDEST STOP JUMPDEST CALLVALUE DUP1 ISZERO PUSH2 0x6AA JUMPI PUSH1 0x0 DUP1 REVERT JUMPDEST POP PUSH2 0x6B3 PUSH2 0x2AE3 JUMP JUMPDEST PUSH1 0x40 MLOAD PUSH2 0x6C0 SWAP2 SWAP1 PUSH2 0x37B0 JUMP JUMPDEST PUSH1 0x40 MLOAD DUP1 SWAP2 SUB SWAP1 RETURN JUMPDEST PUSH1 0x0 DUP1 PUSH1 0x3 DUP5 DUP5 PUSH1 0x40 MLOAD PUSH2 0x6DE SWAP3 SWAP2 SWAP1 PUSH2 0x419D JUMP JUMPDEST SWAP1 DUP2 MSTORE PUSH1 0x20 ADD PUSH1 0x40 MLOAD DUP1 SWAP2 SUB SWAP1 KECCAK256 PUSH1 0xC ADD PUSH1 0x0 ADD DUP1 SLOAD SWAP1 POP PUSH1 0x3 DUP6 DUP6 PUSH1 0x40 MLOAD PUSH2 0x708 SWAP3 SWAP2 SWAP1 PUSH2 0x419D JUMP JUMPDEST SWAP1 DUP2 MSTORE PUSH1 0x20 ADD PUSH1 0x40 MLOAD DUP1 SWAP2 SUB SWAP1 KECCAK256 PUSH1 0x4 ADD PUSH1 0x0 ADD DUP1 SLOAD SWAP1 POP PUSH2 0x72A SWAP2 SWAP1 PUSH2 0x41E5 JUMP JUMPDEST GT SWAP1 POP SWAP3 SWAP2 POP POP JUMP JUMPDEST DUP1 DUP1 PUSH1 0x0 ADD SWAP1 PUSH2 0x743 SWAP2 SWAP1 PUSH2 0x4228 JUMP JUMPDEST PUSH2 0x74D DUP3 DUP3 PUSH2 0xFF1 JUMP JUMPDEST PUSH2 0x78C JUMPI PUSH1 0x40 MLOAD PUSH32 0x8C379A000000000000000000000000000000000000000000000000000000000 DUP2 MSTORE PUSH1 0x4 ADD PUSH2 0x783 SWAP1 PUSH2 0x430E JUMP JUMPDEST PUSH1 0x40 MLOAD DUP1 SWAP2 SUB SWAP1 REVERT JUMPDEST PUSH1 0x6 PUSH1 0x14 SWAP1 SLOAD SWAP1 PUSH2 0x100 EXP SWAP1 DIV PUSH1 0xFF AND PUSH2 0x7DB JUMPI PUSH1 0x40 MLOAD PUSH32 0x8C379A000000000000000000000000000000000000000000000000000000000 DUP2 MSTORE PUSH1 0x4 ADD PUSH2 0x7D2 SWAP1 PUSH2 0x437A JUMP JUMPDEST PUSH1 0x40 MLOAD DUP1 SWAP2 SUB SWAP1 REVERT JUMPDEST DUP3 DUP1 PUSH1 0x0 ADD SWAP1 PUSH2 0x7EB SWAP2 SWAP1 PUSH2 0x4228 JUMP JUMPDEST PUSH1 0x3 DUP3 DUP3 PUSH1 0x40 MLOAD PUSH2 0x7FD SWAP3 SWAP2 SWAP1 PUSH2 0x419D JUMP JUMPDEST SWAP1 DUP2 MSTORE PUSH1 0x20 ADD PUSH1 0x40 MLOAD DUP1 SWAP2 SUB SWAP1 KECCAK256 PUSH1 0x0 ADD PUSH1 0x0 SWAP1 SLOAD SWAP1 PUSH2 0x100 EXP SWAP1 DIV PUSH1 0xFF AND PUSH2 0x85B JUMPI PUSH1 0x40 MLOAD PUSH32 0x8C379A000000000000000000000000000000000000000000000000000000000 DUP2 MSTORE PUSH1 0x4 ADD PUSH2 0x852 SWAP1 PUSH2 0x43E6 JUMP JUMPDEST PUSH1 0x40 MLOAD DUP1 SWAP2 SUB SWAP1 REVERT JUMPDEST PUSH2 0x864 CALLER PUSH2 0x2B09 JUMP JUMPDEST PUSH2 0x8A3 JUMPI PUSH1 0x40 MLOAD PUSH32 0x8C379A000000000000000000000000000000000000000000000000000000000 DUP2 MSTORE PUSH1 0x4 ADD PUSH2 0x89A SWAP1 PUSH2 0x4452 JUMP JUMPDEST PUSH1 0x40 MLOAD DUP1 SWAP2 SUB SWAP1 REVERT JUMPDEST PUSH1 0x0 CALLVALUE GT PUSH2 0x8E6 JUMPI PUSH1 0x40 MLOAD PUSH32 0x8C379A000000000000000000000000000000000000000000000000000000000 DUP2 MSTORE PUSH1 0x4 ADD PUSH2 0x8DD SWAP1 PUSH2 0x44BE JUMP JUMPDEST PUSH1 0x40 MLOAD DUP1 SWAP2 SUB SWAP1 REVERT JUMPDEST PUSH1 0x3 DUP6 DUP1 PUSH1 0x0 ADD SWAP1 PUSH2 0x8F8 SWAP2 SWAP1 PUSH2 0x4228 JUMP JUMPDEST PUSH1 0x40 MLOAD PUSH2 0x906 SWAP3 SWAP2 SWAP1 PUSH2 0x419D JUMP JUMPDEST SWAP1 DUP2 MSTORE PUSH1 0x20 ADD PUSH1 0x40 MLOAD DUP1 SWAP2 SUB SWAP1 KECCAK256 PUSH1 0x1 ADD SLOAD CALLVALUE LT ISZERO PUSH2 0x95A JUMPI PUSH1 0x40 MLOAD PUSH32 0x8C379A000000000000000000000000000000000000000000000000000000000 DUP2 MSTORE PUSH1 0x4 ADD PUSH2 0x951 SWAP1 PUSH2 0x4550 JUMP JUMPDEST PUSH1 0x40 MLOAD DUP1 SWAP2 SUB SWAP1 REVERT JUMPDEST PUSH1 0x3 DUP6 DUP1 PUSH1 0x0 ADD SWAP1 PUSH2 0x96C SWAP2 SWAP1 PUSH2 0x4228 JUMP JUMPDEST PUSH1 0x40 MLOAD PUSH2 0x97A SWAP3 SWAP2 SWAP1 PUSH2 0x419D JUMP JUMPDEST SWAP1 DUP2 MSTORE PUSH1 0x20 ADD PUSH1 0x40 MLOAD DUP1 SWAP2 SUB SWAP1 KECCAK256 PUSH1 0x2 ADD SLOAD CALLVALUE GT ISZERO PUSH2 0x9CE JUMPI PUSH1 0x40 MLOAD PUSH32 0x8C379A000000000000000000000000000000000000000000000000000000000 DUP2 MSTORE PUSH1 0x4 ADD PUSH2 0x9C5 SWAP1 PUSH2 0x45E2 JUMP JUMPDEST PUSH1 0x40 MLOAD DUP1 SWAP2 SUB SWAP1 REVERT JUMPDEST PUSH1 0x0 DUP6 PUSH1 0x60 ADD PUSH1 0x20 DUP2 ADD SWAP1 PUSH2 0x9E3 SWAP2 SWAP1 PUSH2 0x462E JUMP JUMPDEST ISZERO PUSH2 0xB10 JUMPI PUSH1 0x1 PUSH1 0x3 DUP8 DUP1 PUSH1 0x0 ADD SWAP1 PUSH2 0x9FC SWAP2 SWAP1 PUSH2 0x4228 JUMP JUMPDEST PUSH1 0x40 MLOAD PUSH2 0xA0A SWAP3 SWAP2 SWAP1 PUSH2 0x419D JUMP JUMPDEST SWAP1 DUP2 MSTORE PUSH1 0x20 ADD PUSH1 0x40 MLOAD DUP1 SWAP2 SUB SWAP1 KECCAK256 PUSH1 0x3 ADD SLOAD PUSH2 0xA26 SWAP2 SWAP1 PUSH2 0x465B JUMP JUMPDEST PUSH1 0x3 DUP8 DUP1 PUSH1 0x0 ADD SWAP1 PUSH2 0xA38 SWAP2 SWAP1 PUSH2 0x4228 JUMP JUMPDEST PUSH1 0x40 MLOAD PUSH2 0xA46 SWAP3 SWAP2 SWAP1 PUSH2 0x419D JUMP JUMPDEST SWAP1 DUP2 MSTORE PUSH1 0x20 ADD PUSH1 0x40 MLOAD DUP1 SWAP2 SUB SWAP1 KECCAK256 PUSH1 0x4 ADD PUSH1 0x0 ADD DUP1 SLOAD SWAP1 POP GT ISZERO PUSH2 0xA9F JUMPI PUSH1 0x40 MLOAD PUSH32 0x8C379A000000000000000000000000000000000000000000000000000000000 DUP2 MSTORE PUSH1 0x4 ADD PUSH2 0xA96 SWAP1 PUSH2 0x4701 JUMP JUMPDEST PUSH1 0x40 MLOAD DUP1 SWAP2 SUB SWAP1 REVERT JUMPDEST PUSH2 0xB09 PUSH1 0x3 DUP8 DUP1 PUSH1 0x0 ADD SWAP1 PUSH2 0xAB4 SWAP2 SWAP1 PUSH2 0x4228 JUMP JUMPDEST PUSH1 0x40 MLOAD PUSH2 0xAC2 SWAP3 SWAP2 SWAP1 PUSH2 0x419D JUMP JUMPDEST SWAP1 DUP2 MSTORE PUSH1 0x20 ADD PUSH1 0x40 MLOAD DUP1 SWAP2 SUB SWAP1 KECCAK256 PUSH1 0x4 ADD CALLVALUE DUP9 DUP1 PUSH1 0x20 ADD SWAP1 PUSH2 0xAE4 SWAP2 SWAP1 PUSH2 0x4721 JUMP JUMPDEST DUP11 DUP1 PUSH1 0x40 ADD SWAP1 PUSH2 0xAF4 SWAP2 SWAP1 PUSH2 0x4721 JUMP JUMPDEST DUP13 DUP1 PUSH1 0x80 ADD SWAP1 PUSH2 0xB04 SWAP2 SWAP1 PUSH2 0x4721 JUMP JUMPDEST PUSH2 0x2B41 JUMP JUMPDEST SWAP1 POP PUSH2 0xC34 JUMP JUMPDEST PUSH1 0x1 PUSH1 0x3 DUP8 DUP1 PUSH1 0x0 ADD SWAP1 PUSH2 0xB24 SWAP2 SWAP1 PUSH2 0x4228 JUMP JUMPDEST PUSH1 0x40 MLOAD PUSH2 0xB32 SWAP3 SWAP2 SWAP1 PUSH2 0x419D JUMP JUMPDEST SWAP1 DUP2 MSTORE PUSH1 0x20 ADD PUSH1 0x40 MLOAD DUP1 SWAP2 SUB SWAP1 KECCAK256 PUSH1 0x3 ADD SLOAD PUSH2 0xB4E SWAP2 SWAP1 PUSH2 0x465B JUMP JUMPDEST PUSH1 0x3 DUP8 DUP1 PUSH1 0x0 ADD SWAP1 PUSH2 0xB60 SWAP2 SWAP1 PUSH2 0x4228 JUMP JUMPDEST PUSH1 0x40 MLOAD PUSH2 0xB6E SWAP3 SWAP2 SWAP1 PUSH2 0x419D JUMP JUMPDEST SWAP1 DUP2 MSTORE PUSH1 0x20 ADD PUSH1 0x40 MLOAD DUP1 SWAP2 SUB SWAP1 KECCAK256 PUSH1 0xC ADD PUSH1 0x0 ADD DUP1 SLOAD SWAP1 POP GT ISZERO PUSH2 0xBC7 JUMPI PUSH1 0x40 MLOAD PUSH32 0x8C379A000000000000000000000000000000000000000000000000000000000 DUP2 MSTORE PUSH1 0x4 ADD PUSH2 0xBBE SWAP1 PUSH2 0x4701 JUMP JUMPDEST PUSH1 0x40 MLOAD DUP1 SWAP2 SUB SWAP1 REVERT JUMPDEST PUSH2 0xC31 PUSH1 0x3 DUP8 DUP1 PUSH1 0x0 ADD SWAP1 PUSH2 0xBDC SWAP2 SWAP1 PUSH2 0x4228 JUMP JUMPDEST PUSH1 0x40 MLOAD PUSH2 0xBEA SWAP3 SWAP2 SWAP1 PUSH2 0x419D JUMP JUMPDEST SWAP1 DUP2 MSTORE PUSH1 0x20 ADD PUSH1 0x40 MLOAD DUP1 SWAP2 SUB SWAP1 KECCAK256 PUSH1 0xC ADD CALLVALUE DUP9 DUP1 PUSH1 0x20 ADD SWAP1 PUSH2 0xC0C SWAP2 SWAP1 PUSH2 0x4721 JUMP JUMPDEST DUP11 DUP1 PUSH1 0x40 ADD SWAP1 PUSH2 0xC1C SWAP2 SWAP1 PUSH2 0x4721 JUMP JUMPDEST DUP13 DUP1 PUSH1 0x80 ADD SWAP1 PUSH2 0xC2C SWAP2 SWAP1 PUSH2 0x4721 JUMP JUMPDEST PUSH2 0x2B41 JUMP JUMPDEST SWAP1 POP JUMPDEST PUSH2 0xC3C PUSH2 0x341B JUMP JUMPDEST DUP7 DUP1 PUSH1 0x20 ADD SWAP1 PUSH2 0xC4C SWAP2 SWAP1 PUSH2 0x4721 JUMP JUMPDEST DUP1 DUP1 PUSH1 0x1F ADD PUSH1 0x20 DUP1 SWAP2 DIV MUL PUSH1 0x20 ADD PUSH1 0x40 MLOAD SWAP1 DUP2 ADD PUSH1 0x40 MSTORE DUP1 SWAP4 SWAP3 SWAP2 SWAP1 DUP2 DUP2 MSTORE PUSH1 0x20 ADD DUP4 DUP4 DUP1 DUP3 DUP5 CALLDATACOPY PUSH1 0x0 DUP2 DUP5 ADD MSTORE PUSH1 0x1F NOT PUSH1 0x1F DUP3 ADD AND SWAP1 POP DUP1 DUP4 ADD SWAP3 POP POP POP POP POP POP POP DUP2 PUSH1 0x0 ADD DUP2 SWAP1 MSTORE POP DUP7 DUP1 PUSH1 0x40 ADD SWAP1 PUSH2 0xCA7 SWAP2 SWAP1 PUSH2 0x4721 JUMP JUMPDEST DUP1 DUP1 PUSH1 0x1F ADD PUSH1 0x20 DUP1 SWAP2 DIV MUL PUSH1 0x20 ADD PUSH1 0x40 MLOAD SWAP1 DUP2 ADD PUSH1 0x40 MSTORE DUP1 SWAP4 SWAP3 SWAP2 SWAP1 DUP2 DUP2 MSTORE PUSH1 0x20 ADD DUP4 DUP4 DUP1 DUP3 DUP5 CALLDATACOPY PUSH1 0x0 DUP2 DUP5 ADD MSTORE PUSH1 0x1F NOT PUSH1 0x1F DUP3 ADD AND SWAP1 POP DUP1 DUP4 ADD SWAP3 POP POP POP POP POP POP POP DUP2 PUSH1 0x20 ADD DUP2 SWAP1 MSTORE POP DUP7 DUP1 PUSH1 0x80 ADD SWAP1 PUSH2 0xD02 SWAP2 SWAP1 PUSH2 0x4721 JUMP JUMPDEST DUP1 DUP1 PUSH1 0x1F ADD PUSH1 0x20 DUP1 SWAP2 DIV MUL PUSH1 0x20 ADD PUSH1 0x40 MLOAD SWAP1 DUP2 ADD PUSH1 0x40 MSTORE DUP1 SWAP4 SWAP3 SWAP2 SWAP1 DUP2 DUP2 MSTORE PUSH1 0x20 ADD DUP4 DUP4 DUP1 DUP3 DUP5 CALLDATACOPY PUSH1 0x0 DUP2 DUP5 ADD MSTORE PUSH1 0x1F NOT PUSH1 0x1F DUP3 ADD AND SWAP1 POP DUP1 DUP4 ADD SWAP3 POP POP POP POP POP POP POP DUP2 PUSH1 0x40 ADD DUP2 SWAP1 MSTORE POP PUSH1 0x3 DUP8 DUP1 PUSH1 0x0 ADD SWAP1 PUSH2 0xD5F SWAP2 SWAP1 PUSH2 0x4228 JUMP JUMPDEST PUSH1 0x40 MLOAD PUSH2 0xD6D SWAP3 SWAP2 SWAP1 PUSH2 0x419D JUMP JUMPDEST SWAP1 DUP2 MSTORE PUSH1 0x20 ADD PUSH1 0x40 MLOAD DUP1 SWAP2 SUB SWAP1 KECCAK256 PUSH1 0x14 ADD PUSH1 0x0 SWAP1 SLOAD SWAP1 PUSH2 0x100 EXP SWAP1 DIV PUSH1 0x7 SIGNEXTEND DUP2 PUSH1 0x60 ADD SWAP1 PUSH1 0x7 SIGNEXTEND SWAP1 DUP2 PUSH1 0x7 SIGNEXTEND DUP2 MSTORE POP POP DUP7 DUP1 PUSH1 0xA0 ADD SWAP1 PUSH2 0xDAD SWAP2 SWAP1 PUSH2 0x4721 JUMP JUMPDEST DUP1 DUP1 PUSH1 0x1F ADD PUSH1 0x20 DUP1 SWAP2 DIV MUL PUSH1 0x20 ADD PUSH1 0x40 MLOAD SWAP1 DUP2 ADD PUSH1 0x40 MSTORE DUP1 SWAP4 SWAP3 SWAP2 SWAP1 DUP2 DUP2 MSTORE PUSH1 0x20 ADD DUP4 DUP4 DUP1 DUP3 DUP5 CALLDATACOPY PUSH1 0x0 DUP2 DUP5 ADD MSTORE PUSH1 0x1F NOT PUSH1 0x1F DUP3 ADD AND SWAP1 POP DUP1 DUP4 ADD SWAP3 POP POP POP POP POP POP POP DUP2 PUSH1 0x80 ADD DUP2 SWAP1 MSTORE POP CALLER PUSH20 0xFFFFFFFFFFFFFFFFFFFFFFFFFFFFFFFFFFFFFFFF AND DUP8 DUP1 PUSH1 0x0 ADD SWAP1 PUSH2 0xE1F SWAP2 SWAP1 PUSH2 0x4228 JUMP JUMPDEST PUSH1 0x40 MLOAD PUSH2 0xE2D SWAP3 SWAP2 SWAP1 PUSH2 0x419D JUMP JUMPDEST PUSH1 0x40 MLOAD DUP1 SWAP2 SUB SWAP1 KECCAK256 PUSH32 0x1BA68E8DF7AE1E0DD153767B3BDAD5FC9E7469AE2210B7C067EF0A4477848DBC DUP10 DUP1 PUSH1 0x0 ADD SWAP1 PUSH2 0xE66 SWAP2 SWAP1 PUSH2 0x4228 JUMP JUMPDEST CALLER CALLVALUE DUP14 PUSH1 0x60 ADD PUSH1 0x20 DUP2 ADD SWAP1 PUSH2 0xE7B SWAP2 SWAP1 PUSH2 0x462E JUMP JUMPDEST PUSH2 0xEBA JUMPI PUSH1 0x40 MLOAD DUP1 PUSH1 0x40 ADD PUSH1 0x40 MSTORE DUP1 PUSH1 0x4 DUP2 MSTORE PUSH1 0x20 ADD PUSH32 0x444F574E00000000000000000000000000000000000000000000000000000000 DUP2 MSTORE POP PUSH2 0xEF1 JUMP JUMPDEST PUSH1 0x40 MLOAD DUP1 PUSH1 0x40 ADD PUSH1 0x40 MSTORE DUP1 PUSH1 0x2 DUP2 MSTORE PUSH1 0x20 ADD PUSH32 0x5550000000000000000000000000000000000000000000000000000000000000 DUP2 MSTORE POP JUMPDEST DUP10 DUP10 PUSH1 0x0 ADD MLOAD DUP11 PUSH1 0x20 ADD MLOAD DUP12 PUSH1 0x60 ADD MLOAD DUP13 PUSH1 0x40 ADD MLOAD DUP14 PUSH1 0x80 ADD MLOAD PUSH1 0x40 MLOAD PUSH2 0xF22 SWAP12 SWAP11 SWAP10 SWAP9 SWAP8 SWAP7 SWAP6 SWAP5 SWAP4 SWAP3 SWAP2 SWAP1 PUSH2 0x47EA JUMP JUMPDEST PUSH1 0x40 MLOAD DUP1 SWAP2 SUB SWAP1 LOG3 POP POP POP POP POP POP POP JUMP JUMPDEST PUSH1 0x4 PUSH1 0x1 SWAP1 SLOAD SWAP1 PUSH2 0x100 EXP SWAP1 DIV PUSH1 0xFF AND DUP2 JUMP JUMPDEST PUSH2 0xF4E PUSH2 0x2CC1 JUMP JUMPDEST DUP1 PUSH1 0x5 PUSH1 0x0 PUSH2 0x100 EXP DUP2 SLOAD DUP2 PUSH20 0xFFFFFFFFFFFFFFFFFFFFFFFFFFFFFFFFFFFFFFFF MUL NOT AND SWAP1 DUP4 PUSH20 0xFFFFFFFFFFFFFFFFFFFFFFFFFFFFFFFFFFFFFFFF AND MUL OR SWAP1 SSTORE POP POP JUMP JUMPDEST PUSH2 0xF9A PUSH2 0x2CC1 JUMP JUMPDEST DUP1 PUSH1 0x2 PUSH1 0x0 PUSH2 0x100 EXP DUP2 SLOAD DUP2 PUSH20 0xFFFFFFFFFFFFFFFFFFFFFFFFFFFFFFFFFFFFFFFF MUL NOT AND SWAP1 DUP4 PUSH20 0xFFFFFFFFFFFFFFFFFFFFFFFFFFFFFFFFFFFFFFFF AND MUL OR SWAP1 SSTORE POP POP JUMP JUMPDEST PUSH1 0x6 PUSH1 0x14 SWAP1 SLOAD SWAP1 PUSH2 0x100 EXP SWAP1 DIV PUSH1 0xFF AND DUP2 JUMP JUMPDEST PUSH1 0x0 DUP1 PUSH1 0x0 PUSH1 0x3 DUP6 DUP6 PUSH1 0x40 MLOAD PUSH2 0x1008 SWAP3 SWAP2 SWAP1 PUSH2 0x419D JUMP JUMPDEST SWAP1 DUP2 MSTORE PUSH1 0x20 ADD PUSH1 0x40 MLOAD DUP1 SWAP2 SUB SWAP1 KECCAK256 PUSH1 0x0 ADD PUSH1 0x1 SWAP1 SLOAD SWAP1 PUSH2 0x100 EXP SWAP1 DIV PUSH1 0x3 SIGNEXTEND PUSH1 0x3 SIGNEXTEND EQ SWAP1 POP DUP1 SWAP2 POP POP SWAP3 SWAP2 POP POP JUMP JUMPDEST PUSH1 0x5 PUSH1 0x0 SWAP1 SLOAD SWAP1 PUSH2 0x100 EXP SWAP1 DIV PUSH20 0xFFFFFFFFFFFFFFFFFFFFFFFFFFFFFFFFFFFFFFFF AND DUP2 JUMP JUMPDEST PUSH1 0x3 DUP2 DUP1 MLOAD PUSH1 0x20 DUP2 ADD DUP3 ADD DUP1 MLOAD DUP5 DUP3 MSTORE PUSH1 0x20 DUP4 ADD PUSH1 0x20 DUP6 ADD KECCAK256 DUP2 DUP4 MSTORE DUP1 SWAP6 POP POP POP POP POP POP PUSH1 0x0 SWAP2 POP SWAP1 POP DUP1 PUSH1 0x0 ADD PUSH1 0x0 SWAP1 SLOAD SWAP1 PUSH2 0x100 EXP SWAP1 DIV PUSH1 0xFF AND SWAP1 DUP1 PUSH1 0x0 ADD PUSH1 0x1 SWAP1 SLOAD SWAP1 PUSH2 0x100 EXP SWAP1 DIV PUSH1 0x3 SIGNEXTEND SWAP1 DUP1 PUSH1 0x0 ADD PUSH1 0x5 SWAP1 SLOAD SWAP1 PUSH2 0x100 EXP SWAP1 DIV PUSH1 0x3 SIGNEXTEND SWAP1 DUP1 PUSH1 0x1 ADD SLOAD SWAP1 DUP1 PUSH1 0x2 ADD SLOAD SWAP1 DUP1 PUSH1 0x3 ADD SLOAD SWAP1 DUP1 PUSH1 0x4 ADD PUSH1 0x40 MLOAD DUP1 PUSH2 0x100 ADD PUSH1 0x40 MSTORE SWAP1 DUP2 PUSH1 0x0 DUP3 ADD DUP1 SLOAD DUP1 PUSH1 0x20 MUL PUSH1 0x20 ADD PUSH1 0x40 MLOAD SWAP1 DUP2 ADD PUSH1 0x40 MSTORE DUP1 SWAP3 SWAP2 SWAP1 DUP2 DUP2 MSTORE PUSH1 0x20 ADD DUP3 DUP1 SLOAD DUP1 ISZERO PUSH2 0x1131 JUMPI PUSH1 0x20 MUL DUP3 ADD SWAP2 SWAP1 PUSH1 0x0 MSTORE PUSH1 0x20 PUSH1 0x0 KECCAK256 SWAP1 JUMPDEST DUP2 SLOAD DUP2 MSTORE PUSH1 0x20 ADD SWAP1 PUSH1 0x1 ADD SWAP1 DUP1 DUP4 GT PUSH2 0x111D JUMPI JUMPDEST POP POP POP POP POP DUP2 MSTORE PUSH1 0x20 ADD PUSH1 0x1 DUP3 ADD DUP1 SLOAD DUP1 PUSH1 0x20 MUL PUSH1 0x20 ADD PUSH1 0x40 MLOAD SWAP1 DUP2 ADD PUSH1 0x40 MSTORE DUP1 SWAP3 SWAP2 SWAP1 DUP2 DUP2 MSTORE PUSH1 0x20 ADD DUP3 DUP1 SLOAD DUP1 ISZERO PUSH2 0x11BF JUMPI PUSH1 0x20 MUL DUP3 ADD SWAP2 SWAP1 PUSH1 0x0 MSTORE PUSH1 0x20 PUSH1 0x0 KECCAK256 SWAP1 JUMPDEST DUP2 PUSH1 0x0 SWAP1 SLOAD SWAP1 PUSH2 0x100 EXP SWAP1 DIV PUSH20 0xFFFFFFFFFFFFFFFFFFFFFFFFFFFFFFFFFFFFFFFF AND PUSH20 0xFFFFFFFFFFFFFFFFFFFFFFFFFFFFFFFFFFFFFFFF AND DUP2 MSTORE PUSH1 0x20 ADD SWAP1 PUSH1 0x1 ADD SWAP1 DUP1 DUP4 GT PUSH2 0x1175 JUMPI JUMPDEST POP POP POP POP POP DUP2 MSTORE PUSH1 0x20 ADD PUSH1 0x2 DUP3 ADD DUP1 SLOAD DUP1 PUSH1 0x20 MUL PUSH1 0x20 ADD PUSH1 0x40 MLOAD SWAP1 DUP2 ADD PUSH1 0x40 MSTORE DUP1 SWAP3 SWAP2 SWAP1 DUP2 DUP2 MSTORE PUSH1 0x20 ADD PUSH1 0x0 SWAP1 JUMPDEST DUP3 DUP3 LT ISZERO PUSH2 0x1299 JUMPI DUP4 DUP3 SWAP1 PUSH1 0x0 MSTORE PUSH1 0x20 PUSH1 0x0 KECCAK256 ADD DUP1 SLOAD PUSH2 0x120C SWAP1 PUSH2 0x48E1 JUMP JUMPDEST DUP1 PUSH1 0x1F ADD PUSH1 0x20 DUP1 SWAP2 DIV MUL PUSH1 0x20 ADD PUSH1 0x40 MLOAD SWAP1 DUP2 ADD PUSH1 0x40 MSTORE DUP1 SWAP3 SWAP2 SWAP1 DUP2 DUP2 MSTORE PUSH1 0x20 ADD DUP3 DUP1 SLOAD PUSH2 0x1238 SWAP1 PUSH2 0x48E1 JUMP JUMPDEST DUP1 ISZERO PUSH2 0x1285 JUMPI DUP1 PUSH1 0x1F LT PUSH2 0x125A JUMPI PUSH2 0x100 DUP1 DUP4 SLOAD DIV MUL DUP4 MSTORE SWAP2 PUSH1 0x20 ADD SWAP2 PUSH2 0x1285 JUMP JUMPDEST DUP3 ADD SWAP2 SWAP1 PUSH1 0x0 MSTORE PUSH1 0x20 PUSH1 0x0 KECCAK256 SWAP1 JUMPDEST DUP2 SLOAD DUP2 MSTORE SWAP1 PUSH1 0x1 ADD SWAP1 PUSH1 0x20 ADD DUP1 DUP4 GT PUSH2 0x1268 JUMPI DUP3 SWAP1 SUB PUSH1 0x1F AND DUP3 ADD SWAP2 JUMPDEST POP POP POP POP POP DUP2 MSTORE PUSH1 0x20 ADD SWAP1 PUSH1 0x1 ADD SWAP1 PUSH2 0x11ED JUMP JUMPDEST POP POP POP POP DUP2 MSTORE PUSH1 0x20 ADD PUSH1 0x3 DUP3 ADD DUP1 SLOAD DUP1 PUSH1 0x20 MUL PUSH1 0x20 ADD PUSH1 0x40 MLOAD SWAP1 DUP2 ADD PUSH1 0x40 MSTORE DUP1 SWAP3 SWAP2 SWAP1 DUP2 DUP2 MSTORE PUSH1 0x20 ADD PUSH1 0x0 SWAP1 JUMPDEST DUP3 DUP3 LT ISZERO PUSH2 0x1372 JUMPI DUP4 DUP3 SWAP1 PUSH1 0x0 MSTORE PUSH1 0x20 PUSH1 0x0 KECCAK256 ADD DUP1 SLOAD PUSH2 0x12E5 SWAP1 PUSH2 0x48E1 JUMP JUMPDEST DUP1 PUSH1 0x1F ADD PUSH1 0x20 DUP1 SWAP2 DIV MUL PUSH1 0x20 ADD PUSH1 0x40 MLOAD SWAP1 DUP2 ADD PUSH1 0x40 MSTORE DUP1 SWAP3 SWAP2 SWAP1 DUP2 DUP2 MSTORE PUSH1 0x20 ADD DUP3 DUP1 SLOAD PUSH2 0x1311 SWAP1 PUSH2 0x48E1 JUMP JUMPDEST DUP1 ISZERO PUSH2 0x135E JUMPI DUP1 PUSH1 0x1F LT PUSH2 0x1333 JUMPI PUSH2 0x100 DUP1 DUP4 SLOAD DIV MUL DUP4 MSTORE SWAP2 PUSH1 0x20 ADD SWAP2 PUSH2 0x135E JUMP JUMPDEST DUP3 ADD SWAP2 SWAP1 PUSH1 0x0 MSTORE PUSH1 0x20 PUSH1 0x0 KECCAK256 SWAP1 JUMPDEST DUP2 SLOAD DUP2 MSTORE SWAP1 PUSH1 0x1 ADD SWAP1 PUSH1 0x20 ADD DUP1 DUP4 GT PUSH2 0x1341 JUMPI DUP3 SWAP1 SUB PUSH1 0x1F AND DUP3 ADD SWAP2 JUMPDEST POP POP POP POP POP DUP2 MSTORE PUSH1 0x20 ADD SWAP1 PUSH1 0x1 ADD SWAP1 PUSH2 0x12C6 JUMP JUMPDEST POP POP POP POP DUP2 MSTORE PUSH1 0x20 ADD PUSH1 0x4 DUP3 ADD DUP1 SLOAD DUP1 PUSH1 0x20 MUL PUSH1 0x20 ADD PUSH1 0x40 MLOAD SWAP1 DUP2 ADD PUSH1 0x40 MSTORE DUP1 SWAP3 SWAP2 SWAP1 DUP2 DUP2 MSTORE PUSH1 0x20 ADD PUSH1 0x0 SWAP1 JUMPDEST DUP3 DUP3 LT ISZERO PUSH2 0x144B JUMPI DUP4 DUP3 SWAP1 PUSH1 0x0 MSTORE PUSH1 0x20 PUSH1 0x0 KECCAK256 ADD DUP1 SLOAD PUSH2 0x13BE SWAP1 PUSH2 0x48E1 JUMP JUMPDEST DUP1 PUSH1 0x1F ADD PUSH1 0x20 DUP1 SWAP2 DIV MUL PUSH1 0x20 ADD PUSH1 0x40 MLOAD SWAP1 DUP2 ADD PUSH1 0x40 MSTORE DUP1 SWAP3 SWAP2 SWAP1 DUP2 DUP2 MSTORE PUSH1 0x20 ADD DUP3 DUP1 SLOAD PUSH2 0x13EA SWAP1 PUSH2 0x48E1 JUMP JUMPDEST DUP1 ISZERO PUSH2 0x1437 JUMPI DUP1 PUSH1 0x1F LT PUSH2 0x140C JUMPI PUSH2 0x100 DUP1 DUP4 SLOAD DIV MUL DUP4 MSTORE SWAP2 PUSH1 0x20 ADD SWAP2 PUSH2 0x1437 JUMP JUMPDEST DUP3 ADD SWAP2 SWAP1 PUSH1 0x0 MSTORE PUSH1 0x20 PUSH1 0x0 KECCAK256 SWAP1 JUMPDEST DUP2 SLOAD DUP2 MSTORE SWAP1 PUSH1 0x1 ADD SWAP1 PUSH1 0x20 ADD DUP1 DUP4 GT PUSH2 0x141A JUMPI DUP3 SWAP1 SUB PUSH1 0x1F AND DUP3 ADD SWAP2 JUMPDEST POP POP POP POP POP DUP2 MSTORE PUSH1 0x20 ADD SWAP1 PUSH1 0x1 ADD SWAP1 PUSH2 0x139F JUMP JUMPDEST POP POP POP POP DUP2 MSTORE PUSH1 0x20 ADD PUSH1 0x5 DUP3 ADD SLOAD DUP2 MSTORE PUSH1 0x20 ADD PUSH1 0x6 DUP3 ADD SLOAD DUP2 MSTORE PUSH1 0x20 ADD PUSH1 0x7 DUP3 ADD SLOAD DUP2 MSTORE POP POP SWAP1 DUP1 PUSH1 0xC ADD PUSH1 0x40 MLOAD DUP1 PUSH2 0x100 ADD PUSH1 0x40 MSTORE SWAP1 DUP2 PUSH1 0x0 DUP3 ADD DUP1 SLOAD DUP1 PUSH1 0x20 MUL PUSH1 0x20 ADD PUSH1 0x40 MLOAD SWAP1 DUP2 ADD PUSH1 0x40 MSTORE DUP1 SWAP3 SWAP2 SWAP1 DUP2 DUP2 MSTORE PUSH1 0x20 ADD DUP3 DUP1 SLOAD DUP1 ISZERO PUSH2 0x14D1 JUMPI PUSH1 0x20 MUL DUP3 ADD SWAP2 SWAP1 PUSH1 0x0 MSTORE PUSH1 0x20 PUSH1 0x0 KECCAK256 SWAP1 JUMPDEST DUP2 SLOAD DUP2 MSTORE PUSH1 0x20 ADD SWAP1 PUSH1 0x1 ADD SWAP1 DUP1 DUP4 GT PUSH2 0x14BD JUMPI JUMPDEST POP POP POP POP POP DUP2 MSTORE PUSH1 0x20 ADD PUSH1 0x1 DUP3 ADD DUP1 SLOAD DUP1 PUSH1 0x20 MUL PUSH1 0x20 ADD PUSH1 0x40 MLOAD SWAP1 DUP2 ADD PUSH1 0x40 MSTORE DUP1 SWAP3 SWAP2 SWAP1 DUP2 DUP2 MSTORE PUSH1 0x20 ADD DUP3 DUP1 SLOAD DUP1 ISZERO PUSH2 0x155F JUMPI PUSH1 0x20 MUL DUP3 ADD SWAP2 SWAP1 PUSH1 0x0 MSTORE PUSH1 0x20 PUSH1 0x0 KECCAK256 SWAP1 JUMPDEST DUP2 PUSH1 0x0 SWAP1 SLOAD SWAP1 PUSH2 0x100 EXP SWAP1 DIV PUSH20 0xFFFFFFFFFFFFFFFFFFFFFFFFFFFFFFFFFFFFFFFF AND PUSH20 0xFFFFFFFFFFFFFFFFFFFFFFFFFFFFFFFFFFFFFFFF AND DUP2 MSTORE PUSH1 0x20 ADD SWAP1 PUSH1 0x1 ADD SWAP1 DUP1 DUP4 GT PUSH2 0x1515 JUMPI JUMPDEST POP POP POP POP POP DUP2 MSTORE PUSH1 0x20 ADD PUSH1 0x2 DUP3 ADD DUP1 SLOAD DUP1 PUSH1 0x20 MUL PUSH1 0x20 ADD PUSH1 0x40 MLOAD SWAP1 DUP2 ADD PUSH1 0x40 MSTORE DUP1 SWAP3 SWAP2 SWAP1 DUP2 DUP2 MSTORE PUSH1 0x20 ADD PUSH1 0x0 SWAP1 JUMPDEST DUP3 DUP3 LT ISZERO PUSH2 0x1639 JUMPI DUP4 DUP3 SWAP1 PUSH1 0x0 MSTORE PUSH1 0x20 PUSH1 0x0 KECCAK256 ADD DUP1 SLOAD PUSH2 0x15AC SWAP1 PUSH2 0x48E1 JUMP JUMPDEST DUP1 PUSH1 0x1F ADD PUSH1 0x20 DUP1 SWAP2 DIV MUL PUSH1 0x20 ADD PUSH1 0x40 MLOAD SWAP1 DUP2 ADD PUSH1 0x40 MSTORE DUP1 SWAP3 SWAP2 SWAP1 DUP2 DUP2 MSTORE PUSH1 0x20 ADD DUP3 DUP1 SLOAD PUSH2 0x15D8 SWAP1 PUSH2 0x48E1 JUMP JUMPDEST DUP1 ISZERO PUSH2 0x1625 JUMPI DUP1 PUSH1 0x1F LT PUSH2 0x15FA JUMPI PUSH2 0x100 DUP1 DUP4 SLOAD DIV MUL DUP4 MSTORE SWAP2 PUSH1 0x20 ADD SWAP2 PUSH2 0x1625 JUMP JUMPDEST DUP3 ADD SWAP2 SWAP1 PUSH1 0x0 MSTORE PUSH1 0x20 PUSH1 0x0 KECCAK256 SWAP1 JUMPDEST DUP2 SLOAD DUP2 MSTORE SWAP1 PUSH1 0x1 ADD SWAP1 PUSH1 0x20 ADD DUP1 DUP4 GT PUSH2 0x1608 JUMPI DUP3 SWAP1 SUB PUSH1 0x1F AND DUP3 ADD SWAP2 JUMPDEST POP POP POP POP POP DUP2 MSTORE PUSH1 0x20 ADD SWAP1 PUSH1 0x1 ADD SWAP1 PUSH2 0x158D JUMP JUMPDEST POP POP POP POP DUP2 MSTORE PUSH1 0x20 ADD PUSH1 0x3 DUP3 ADD DUP1 SLOAD DUP1 PUSH1 0x20 MUL PUSH1 0x20 ADD PUSH1 0x40 MLOAD SWAP1 DUP2 ADD PUSH1 0x40 MSTORE DUP1 SWAP3 SWAP2 SWAP1 DUP2 DUP2 MSTORE PUSH1 0x20 ADD PUSH1 0x0 SWAP1 JUMPDEST DUP3 DUP3 LT ISZERO PUSH2 0x1712 JUMPI DUP4 DUP3 SWAP1 PUSH1 0x0 MSTORE PUSH1 0x20 PUSH1 0x0 KECCAK256 ADD DUP1 SLOAD PUSH2 0x1685 SWAP1 PUSH2 0x48E1 JUMP JUMPDEST DUP1 PUSH1 0x1F ADD PUSH1 0x20 DUP1 SWAP2 DIV MUL PUSH1 0x20 ADD PUSH1 0x40 MLOAD SWAP1 DUP2 ADD PUSH1 0x40 MSTORE DUP1 SWAP3 SWAP2 SWAP1 DUP2 DUP2 MSTORE PUSH1 0x20 ADD DUP3 DUP1 SLOAD PUSH2 0x16B1 SWAP1 PUSH2 0x48E1 JUMP JUMPDEST DUP1 ISZERO PUSH2 0x16FE JUMPI DUP1 PUSH1 0x1F LT PUSH2 0x16D3 JUMPI PUSH2 0x100 DUP1 DUP4 SLOAD DIV MUL DUP4 MSTORE SWAP2 PUSH1 0x20 ADD SWAP2 PUSH2 0x16FE JUMP JUMPDEST DUP3 ADD SWAP2 SWAP1 PUSH1 0x0 MSTORE PUSH1 0x20 PUSH1 0x0 KECCAK256 SWAP1 JUMPDEST DUP2 SLOAD DUP2 MSTORE SWAP1 PUSH1 0x1 ADD SWAP1 PUSH1 0x20 ADD DUP1 DUP4 GT PUSH2 0x16E1 JUMPI DUP3 SWAP1 SUB PUSH1 0x1F AND DUP3 ADD SWAP2 JUMPDEST POP POP POP POP POP DUP2 MSTORE PUSH1 0x20 ADD SWAP1 PUSH1 0x1 ADD SWAP1 PUSH2 0x1666 JUMP JUMPDEST POP POP POP POP DUP2 MSTORE PUSH1 0x20 ADD PUSH1 0x4 DUP3 ADD DUP1 SLOAD DUP1 PUSH1 0x20 MUL PUSH1 0x20 ADD PUSH1 0x40 MLOAD SWAP1 DUP2 ADD PUSH1 0x40 MSTORE DUP1 SWAP3 SWAP2 SWAP1 DUP2 DUP2 MSTORE PUSH1 0x20 ADD PUSH1 0x0 SWAP1 JUMPDEST DUP3 DUP3 LT ISZERO PUSH2 0x17EB JUMPI DUP4 DUP3 SWAP1 PUSH1 0x0 MSTORE PUSH1 0x20 PUSH1 0x0 KECCAK256 ADD DUP1 SLOAD PUSH2 0x175E SWAP1 PUSH2 0x48E1 JUMP JUMPDEST DUP1 PUSH1 0x1F ADD PUSH1 0x20 DUP1 SWAP2 DIV MUL PUSH1 0x20 ADD PUSH1 0x40 MLOAD SWAP1 DUP2 ADD PUSH1 0x40 MSTORE DUP1 SWAP3 SWAP2 SWAP1 DUP2 DUP2 MSTORE PUSH1 0x20 ADD DUP3 DUP1 SLOAD PUSH2 0x178A SWAP1 PUSH2 0x48E1 JUMP JUMPDEST DUP1 ISZERO PUSH2 0x17D7 JUMPI DUP1 PUSH1 0x1F LT PUSH2 0x17AC JUMPI PUSH2 0x100 DUP1 DUP4 SLOAD DIV MUL DUP4 MSTORE SWAP2 PUSH1 0x20 ADD SWAP2 PUSH2 0x17D7 JUMP JUMPDEST DUP3 ADD SWAP2 SWAP1 PUSH1 0x0 MSTORE PUSH1 0x20 PUSH1 0x0 KECCAK256 SWAP1 JUMPDEST DUP2 SLOAD DUP2 MSTORE SWAP1 PUSH1 0x1 ADD SWAP1 PUSH1 0x20 ADD DUP1 DUP4 GT PUSH2 0x17BA JUMPI DUP3 SWAP1 SUB PUSH1 0x1F AND DUP3 ADD SWAP2 JUMPDEST POP POP POP POP POP DUP2 MSTORE PUSH1 0x20 ADD SWAP1 PUSH1 0x1 ADD SWAP1 PUSH2 0x173F JUMP JUMPDEST POP POP POP POP DUP2 MSTORE PUSH1 0x20 ADD PUSH1 0x5 DUP3 ADD SLOAD DUP2 MSTORE PUSH1 0x20 ADD PUSH1 0x6 DUP3 ADD SLOAD DUP2 MSTORE PUSH1 0x20 ADD PUSH1 0x7 DUP3 ADD SLOAD DUP2 MSTORE POP POP SWAP1 DUP1 PUSH1 0x14 ADD PUSH1 0x0 SWAP1 SLOAD SWAP1 PUSH2 0x100 EXP SWAP1 DIV PUSH1 0x7 SIGNEXTEND SWAP1 POP DUP10 JUMP JUMPDEST PUSH1 0x4 PUSH1 0x3 SWAP1 SLOAD SWAP1 PUSH2 0x100 EXP SWAP1 DIV PUSH20 0xFFFFFFFFFFFFFFFFFFFFFFFFFFFFFFFFFFFFFFFF AND DUP2 JUMP JUMPDEST PUSH2 0x1857 PUSH2 0x2CC1 JUMP JUMPDEST DUP1 PUSH1 0x6 PUSH1 0x0 PUSH2 0x100 EXP DUP2 SLOAD DUP2 PUSH20 0xFFFFFFFFFFFFFFFFFFFFFFFFFFFFFFFFFFFFFFFF MUL NOT AND SWAP1 DUP4 PUSH20 0xFFFFFFFFFFFFFFFFFFFFFFFFFFFFFFFFFFFFFFFF AND MUL OR SWAP1 SSTORE POP POP JUMP JUMPDEST PUSH2 0x18A3 PUSH2 0x2CC1 JUMP JUMPDEST DUP1 PUSH1 0x4 PUSH1 0x3 PUSH2 0x100 EXP DUP2 SLOAD DUP2 PUSH20 0xFFFFFFFFFFFFFFFFFFFFFFFFFFFFFFFFFFFFFFFF MUL NOT AND SWAP1 DUP4 PUSH20 0xFFFFFFFFFFFFFFFFFFFFFFFFFFFFFFFFFFFFFFFF AND MUL OR SWAP1 SSTORE POP POP JUMP JUMPDEST PUSH1 0x4 PUSH1 0x2 SWAP1 SLOAD SWAP1 PUSH2 0x100 EXP SWAP1 DIV PUSH1 0xFF AND DUP2 JUMP JUMPDEST PUSH1 0x7 DUP1 SLOAD PUSH2 0x1907 SWAP1 PUSH2 0x48E1 JUMP JUMPDEST DUP1 PUSH1 0x1F ADD PUSH1 0x20 DUP1 SWAP2 DIV MUL PUSH1 0x20 ADD PUSH1 0x40 MLOAD SWAP1 DUP2 ADD PUSH1 0x40 MSTORE DUP1 SWAP3 SWAP2 SWAP1 DUP2 DUP2 MSTORE PUSH1 0x20 ADD DUP3 DUP1 SLOAD PUSH2 0x1933 SWAP1 PUSH2 0x48E1 JUMP JUMPDEST DUP1 ISZERO PUSH2 0x1980 JUMPI DUP1 PUSH1 0x1F LT PUSH2 0x1955 JUMPI PUSH2 0x100 DUP1 DUP4 SLOAD DIV MUL DUP4 MSTORE SWAP2 PUSH1 0x20 ADD SWAP2 PUSH2 0x1980 JUMP JUMPDEST DUP3 ADD SWAP2 SWAP1 PUSH1 0x0 MSTORE PUSH1 0x20 PUSH1 0x0 KECCAK256 SWAP1 JUMPDEST DUP2 SLOAD DUP2 MSTORE SWAP1 PUSH1 0x1 ADD SWAP1 PUSH1 0x20 ADD DUP1 DUP4 GT PUSH2 0x1963 JUMPI DUP3 SWAP1 SUB PUSH1 0x1F AND DUP3 ADD SWAP2 JUMPDEST POP POP POP POP POP DUP2 JUMP JUMPDEST PUSH1 0x0 SELFBALANCE SWAP1 POP SWAP1 JUMP JUMPDEST PUSH2 0x1998 PUSH2 0x2CC1 JUMP JUMPDEST PUSH2 0x19A2 PUSH1 0x0 PUSH2 0x2D48 JUMP JUMPDEST JUMP JUMPDEST PUSH1 0x0 DUP1 PUSH1 0x0 SWAP1 SLOAD SWAP1 PUSH2 0x100 EXP SWAP1 DIV PUSH20 0xFFFFFFFFFFFFFFFFFFFFFFFFFFFFFFFFFFFFFFFF AND SWAP1 POP SWAP1 JUMP JUMPDEST PUSH2 0x19D5 PUSH2 0x2CC1 JUMP JUMPDEST PUSH1 0x64 DUP2 PUSH1 0xFF AND GT ISZERO PUSH2 0x1A1C JUMPI PUSH1 0x40 MLOAD PUSH32 0x8C379A000000000000000000000000000000000000000000000000000000000 DUP2 MSTORE PUSH1 0x4 ADD PUSH2 0x1A13 SWAP1 PUSH2 0x4984 JUMP JUMPDEST PUSH1 0x40 MLOAD DUP1 SWAP2 SUB SWAP1 REVERT JUMPDEST DUP1 PUSH1 0x4 PUSH1 0x1 PUSH2 0x100 EXP DUP2 SLOAD DUP2 PUSH1 0xFF MUL NOT AND SWAP1 DUP4 PUSH1 0xFF AND MUL OR SWAP1 SSTORE POP POP JUMP JUMPDEST PUSH1 0x4 PUSH1 0x0 SWAP1 SLOAD SWAP1 PUSH2 0x100 EXP SWAP1 DIV PUSH1 0xFF AND DUP2 JUMP JUMPDEST PUSH1 0x2 PUSH1 0x0 SWAP1 SLOAD SWAP1 PUSH2 0x100 EXP SWAP1 DIV PUSH20 0xFFFFFFFFFFFFFFFFFFFFFFFFFFFFFFFFFFFFFFFF AND PUSH20 0xFFFFFFFFFFFFFFFFFFFFFFFFFFFFFFFFFFFFFFFF AND CALLER PUSH20 0xFFFFFFFFFFFFFFFFFFFFFFFFFFFFFFFFFFFFFFFF AND EQ PUSH2 0x1ADD JUMPI PUSH1 0x40 MLOAD PUSH32 0x8C379A000000000000000000000000000000000000000000000000000000000 DUP2 MSTORE PUSH1 0x4 ADD PUSH2 0x1AD4 SWAP1 PUSH2 0x49F0 JUMP JUMPDEST PUSH1 0x40 MLOAD DUP1 SWAP2 SUB SWAP1 REVERT JUMPDEST DUP4 DUP4 PUSH1 0x3 DUP3 DUP3 PUSH1 0x40 MLOAD PUSH2 0x1AF1 SWAP3 SWAP2 SWAP1 PUSH2 0x419D JUMP JUMPDEST SWAP1 DUP2 MSTORE PUSH1 0x20 ADD PUSH1 0x40 MLOAD DUP1 SWAP2 SUB SWAP1 KECCAK256 PUSH1 0x0 ADD PUSH1 0x0 SWAP1 SLOAD SWAP1 PUSH2 0x100 EXP SWAP1 DIV PUSH1 0xFF AND PUSH2 0x1B4F JUMPI PUSH1 0x40 MLOAD PUSH32 0x8C379A000000000000000000000000000000000000000000000000000000000 DUP2 MSTORE PUSH1 0x4 ADD PUSH2 0x1B46 SWAP1 PUSH2 0x43E6 JUMP JUMPDEST PUSH1 0x40 MLOAD DUP1 SWAP2 SUB SWAP1 REVERT JUMPDEST PUSH2 0x1B57 PUSH2 0x2E0C JUMP JUMPDEST PUSH1 0x0 PUSH1 0x3 DUP8 DUP8 PUSH1 0x40 MLOAD PUSH2 0x1B6B SWAP3 SWAP2 SWAP1 PUSH2 0x419D JUMP JUMPDEST SWAP1 DUP2 MSTORE PUSH1 0x20 ADD PUSH1 0x40 MLOAD DUP1 SWAP2 SUB SWAP1 KECCAK256 SWAP1 POP PUSH1 0x0 DUP2 PUSH1 0x4 ADD PUSH1 0x0 ADD DUP1 SLOAD SWAP1 POP EQ DUP1 PUSH2 0x1B9E JUMPI POP PUSH1 0x0 DUP2 PUSH1 0xC ADD PUSH1 0x0 ADD DUP1 SLOAD SWAP1 POP EQ JUMPDEST DUP1 PUSH2 0x1BD0 JUMPI POP DUP1 PUSH1 0x0 ADD PUSH1 0x5 SWAP1 SLOAD SWAP1 PUSH2 0x100 EXP SWAP1 DIV PUSH1 0x3 SIGNEXTEND PUSH1 0x3 SIGNEXTEND DUP2 PUSH1 0x0 ADD PUSH1 0x1 SWAP1 SLOAD SWAP1 PUSH2 0x100 EXP SWAP1 DIV PUSH1 0x3 SIGNEXTEND PUSH1 0x3 SIGNEXTEND EQ JUMPDEST ISZERO PUSH2 0x1DBD JUMPI DUP1 PUSH1 0x0 ADD PUSH1 0x5 SWAP1 SLOAD SWAP1 PUSH2 0x100 EXP SWAP1 DIV PUSH1 0x3 SIGNEXTEND PUSH1 0x3 SIGNEXTEND DUP2 PUSH1 0x0 ADD PUSH1 0x1 SWAP1 SLOAD SWAP1 PUSH2 0x100 EXP SWAP1 DIV PUSH1 0x3 SIGNEXTEND PUSH1 0x3 SIGNEXTEND SUB PUSH2 0x1D13 JUMPI PUSH1 0x0 DUP2 PUSH1 0x4 ADD SWAP1 POP PUSH1 0x0 DUP3 PUSH1 0xC ADD SWAP1 POP PUSH1 0x0 DUP3 PUSH1 0x6 ADD SLOAD SWAP1 POP PUSH1 0x0 DUP3 PUSH1 0x6 ADD SLOAD SWAP1 POP PUSH2 0x1C32 DUP12 DUP12 DUP7 DUP13 PUSH2 0x2E52 JUMP JUMPDEST PUSH2 0x1C3E DUP12 DUP12 DUP6 DUP13 PUSH2 0x2E52 JUMP JUMPDEST PUSH32 0xD86802201C3BF5D79EF71027C49CDFDEE99FA298848917618BA148D098F15F74 DUP12 DUP12 DUP7 PUSH1 0x0 ADD DUP1 SLOAD SWAP1 POP DUP6 DUP9 PUSH1 0x6 ADD SLOAD DUP14 PUSH1 0x40 MLOAD PUSH2 0x1C82 SWAP7 SWAP6 SWAP5 SWAP4 SWAP3 SWAP2 SWAP1 PUSH2 0x4A10 JUMP JUMPDEST PUSH1 0x40 MLOAD DUP1 SWAP2 SUB SWAP1 LOG1 PUSH32 0xD86802201C3BF5D79EF71027C49CDFDEE99FA298848917618BA148D098F15F74 DUP12 DUP12 DUP6 PUSH1 0x0 ADD DUP1 SLOAD SWAP1 POP DUP5 DUP8 PUSH1 0x6 ADD SLOAD DUP14 PUSH1 0x40 MLOAD PUSH2 0x1CCE SWAP7 SWAP6 SWAP5 SWAP4 SWAP3 SWAP2 SWAP1 PUSH2 0x4A10 JUMP JUMPDEST PUSH1 0x40 MLOAD DUP1 SWAP2 SUB SWAP1 LOG1 DUP4 PUSH1 0x0 ADD DUP1 SLOAD SWAP1 POP DUP5 PUSH1 0x6 ADD SLOAD EQ DUP1 ISZERO PUSH2 0x1CFA JUMPI POP DUP3 PUSH1 0x0 ADD DUP1 SLOAD SWAP1 POP DUP4 PUSH1 0x6 ADD SLOAD EQ JUMPDEST ISZERO PUSH2 0x1D0A JUMPI PUSH2 0x1D09 DUP12 DUP12 PUSH2 0x2FFA JUMP JUMPDEST JUMPDEST POP POP POP POP PUSH2 0x1DB7 JUMP JUMPDEST PUSH1 0x0 DUP1 DUP3 PUSH1 0xC ADD PUSH1 0x0 ADD DUP1 SLOAD SWAP1 POP EQ PUSH2 0x1D2F JUMPI DUP2 PUSH1 0xC ADD PUSH2 0x1D34 JUMP JUMPDEST DUP2 PUSH1 0x4 ADD JUMPDEST SWAP1 POP PUSH1 0x0 DUP2 PUSH1 0x6 ADD SLOAD SWAP1 POP PUSH2 0x1D4B DUP10 DUP10 DUP5 DUP11 PUSH2 0x2E52 JUMP JUMPDEST PUSH32 0xD86802201C3BF5D79EF71027C49CDFDEE99FA298848917618BA148D098F15F74 DUP10 DUP10 DUP5 PUSH1 0x0 ADD DUP1 SLOAD SWAP1 POP DUP5 DUP7 PUSH1 0x6 ADD SLOAD DUP12 PUSH1 0x40 MLOAD PUSH2 0x1D8F SWAP7 SWAP6 SWAP5 SWAP4 SWAP3 SWAP2 SWAP1 PUSH2 0x4A10 JUMP JUMPDEST PUSH1 0x40 MLOAD DUP1 SWAP2 SUB SWAP1 LOG1 DUP2 PUSH1 0x0 ADD DUP1 SLOAD SWAP1 POP DUP3 PUSH1 0x6 ADD SLOAD SUB PUSH2 0x1DB4 JUMPI PUSH2 0x1DB3 DUP10 DUP10 PUSH2 0x2FFA JUMP JUMPDEST JUMPDEST POP POP JUMPDEST POP PUSH2 0x2225 JUMP JUMPDEST PUSH1 0x0 DUP2 PUSH1 0xC ADD SWAP1 POP PUSH1 0x0 DUP3 PUSH1 0x4 ADD SWAP1 POP DUP3 PUSH1 0x0 ADD PUSH1 0x5 SWAP1 SLOAD SWAP1 PUSH2 0x100 EXP SWAP1 DIV PUSH1 0x3 SIGNEXTEND PUSH1 0x3 SIGNEXTEND DUP4 PUSH1 0x0 ADD PUSH1 0x1 SWAP1 SLOAD SWAP1 PUSH2 0x100 EXP SWAP1 DIV PUSH1 0x3 SIGNEXTEND PUSH1 0x3 SIGNEXTEND SLT ISZERO PUSH2 0x1E0A JUMPI DUP3 PUSH1 0x4 ADD SWAP2 POP DUP3 PUSH1 0xC ADD SWAP1 POP JUMPDEST PUSH1 0x0 PUSH2 0x1E16 DUP4 DUP4 PUSH2 0x3186 JUMP JUMPDEST SWAP1 POP PUSH1 0x0 DUP9 PUSH4 0xFFFFFFFF AND DUP3 PUSH1 0xE0 ADD MLOAD GT PUSH2 0x1E35 JUMPI DUP2 PUSH1 0xE0 ADD MLOAD PUSH2 0x1E3D JUMP JUMPDEST DUP9 PUSH4 0xFFFFFFFF AND JUMPDEST SWAP1 POP PUSH1 0x0 DUP2 DUP6 PUSH1 0x6 ADD SLOAD PUSH2 0x1E51 SWAP2 SWAP1 PUSH2 0x41E5 JUMP JUMPDEST SWAP1 POP PUSH1 0x0 DUP6 PUSH1 0x6 ADD SLOAD SWAP1 POP JUMPDEST DUP2 DUP2 LT ISZERO PUSH2 0x20E8 JUMPI PUSH1 0x0 PUSH1 0x64 DUP8 PUSH1 0x5 ADD SLOAD PUSH1 0x64 DUP8 PUSH1 0x80 ADD MLOAD DUP11 PUSH1 0x0 ADD DUP7 DUP2 SLOAD DUP2 LT PUSH2 0x1E8B JUMPI PUSH2 0x1E8A PUSH2 0x4A6C JUMP JUMPDEST JUMPDEST SWAP1 PUSH1 0x0 MSTORE PUSH1 0x20 PUSH1 0x0 KECCAK256 ADD SLOAD PUSH2 0x1EA0 SWAP2 SWAP1 PUSH2 0x4A9B JUMP JUMPDEST PUSH2 0x1EAA SWAP2 SWAP1 PUSH2 0x4A9B JUMP JUMPDEST PUSH2 0x1EB4 SWAP2 SWAP1 PUSH2 0x4B0C JUMP JUMPDEST PUSH2 0x1EBE SWAP2 SWAP1 PUSH2 0x4B0C JUMP JUMPDEST SWAP1 POP PUSH2 0x1F89 DUP8 PUSH1 0x1 ADD DUP4 DUP2 SLOAD DUP2 LT PUSH2 0x1ED9 JUMPI PUSH2 0x1ED8 PUSH2 0x4A6C JUMP JUMPDEST JUMPDEST SWAP1 PUSH1 0x0 MSTORE PUSH1 0x20 PUSH1 0x0 KECCAK256 ADD PUSH1 0x0 SWAP1 SLOAD SWAP1 PUSH2 0x100 EXP SWAP1 DIV PUSH20 0xFFFFFFFFFFFFFFFFFFFFFFFFFFFFFFFFFFFFFFFF AND PUSH1 0x64 PUSH1 0x4 PUSH1 0x0 SWAP1 SLOAD SWAP1 PUSH2 0x100 EXP SWAP1 DIV PUSH1 0xFF AND PUSH1 0xFF AND DUP11 PUSH1 0x0 ADD DUP7 DUP2 SLOAD DUP2 LT PUSH2 0x1F2F JUMPI PUSH2 0x1F2E PUSH2 0x4A6C JUMP JUMPDEST JUMPDEST SWAP1 PUSH1 0x0 MSTORE PUSH1 0x20 PUSH1 0x0 KECCAK256 ADD SLOAD PUSH2 0x1F44 SWAP2 SWAP1 PUSH2 0x4A9B JUMP JUMPDEST PUSH2 0x1F4E SWAP2 SWAP1 PUSH2 0x4B0C JUMP JUMPDEST DUP10 PUSH1 0x0 ADD DUP6 DUP2 SLOAD DUP2 LT PUSH2 0x1F64 JUMPI PUSH2 0x1F63 PUSH2 0x4A6C JUMP JUMPDEST JUMPDEST SWAP1 PUSH1 0x0 MSTORE PUSH1 0x20 PUSH1 0x0 KECCAK256 ADD SLOAD PUSH2 0x1F79 SWAP2 SWAP1 PUSH2 0x465B JUMP JUMPDEST DUP4 PUSH2 0x1F84 SWAP2 SWAP1 PUSH2 0x41E5 JUMP JUMPDEST PUSH2 0x3359 JUMP JUMPDEST DUP7 PUSH1 0x1 ADD DUP3 DUP2 SLOAD DUP2 LT PUSH2 0x1F9F JUMPI PUSH2 0x1F9E PUSH2 0x4A6C JUMP JUMPDEST JUMPDEST SWAP1 PUSH1 0x0 MSTORE PUSH1 0x20 PUSH1 0x0 KECCAK256 ADD PUSH1 0x0 SWAP1 SLOAD SWAP1 PUSH2 0x100 EXP SWAP1 DIV PUSH20 0xFFFFFFFFFFFFFFFFFFFFFFFFFFFFFFFFFFFFFFFF AND PUSH20 0xFFFFFFFFFFFFFFFFFFFFFFFFFFFFFFFFFFFFFFFF AND PUSH32 0xC6F8D1369EF8A4D7D8373CD5079D27245FF35D49ABA7FF57DE55FBAF8D53813B DUP16 DUP16 DUP11 PUSH1 0x1 ADD DUP7 DUP2 SLOAD DUP2 LT PUSH2 0x2019 JUMPI PUSH2 0x2018 PUSH2 0x4A6C JUMP JUMPDEST JUMPDEST SWAP1 PUSH1 0x0 MSTORE PUSH1 0x20 PUSH1 0x0 KECCAK256 ADD PUSH1 0x0 SWAP1 SLOAD SWAP1 PUSH2 0x100 EXP SWAP1 DIV PUSH20 0xFFFFFFFFFFFFFFFFFFFFFFFFFFFFFFFFFFFFFFFF AND DUP12 PUSH1 0x0 ADD DUP8 DUP2 SLOAD DUP2 LT PUSH2 0x205A JUMPI PUSH2 0x2059 PUSH2 0x4A6C JUMP JUMPDEST JUMPDEST SWAP1 PUSH1 0x0 MSTORE PUSH1 0x20 PUSH1 0x0 KECCAK256 ADD SLOAD DUP7 DUP14 PUSH1 0x4 ADD DUP10 DUP2 SLOAD DUP2 LT PUSH2 0x207C JUMPI PUSH2 0x207B PUSH2 0x4A6C JUMP JUMPDEST JUMPDEST SWAP1 PUSH1 0x0 MSTORE PUSH1 0x20 PUSH1 0x0 KECCAK256 ADD PUSH1 0x4 PUSH1 0x0 SWAP1 SLOAD SWAP1 PUSH2 0x100 EXP SWAP1 DIV PUSH1 0xFF AND PUSH1 0x4 PUSH1 0x1 SWAP1 SLOAD SWAP1 PUSH2 0x100 EXP SWAP1 DIV PUSH1 0xFF AND PUSH1 0x40 MLOAD PUSH2 0x20BA SWAP9 SWAP8 SWAP7 SWAP6 SWAP5 SWAP4 SWAP3 SWAP2 SWAP1 PUSH2 0x4BD6 JUMP JUMPDEST PUSH1 0x40 MLOAD DUP1 SWAP2 SUB SWAP1 LOG2 DUP1 DUP8 PUSH1 0x7 ADD SLOAD PUSH2 0x20D2 SWAP2 SWAP1 PUSH2 0x41E5 JUMP JUMPDEST DUP8 PUSH1 0x7 ADD DUP2 SWAP1 SSTORE POP POP DUP1 DUP1 PUSH1 0x1 ADD SWAP2 POP POP PUSH2 0x1E5D JUMP JUMPDEST POP PUSH32 0xD86802201C3BF5D79EF71027C49CDFDEE99FA298848917618BA148D098F15F74 DUP13 DUP13 DUP8 PUSH1 0x0 ADD DUP1 SLOAD SWAP1 POP DUP9 PUSH1 0x6 ADD SLOAD DUP6 DUP15 PUSH1 0x40 MLOAD PUSH2 0x212D SWAP7 SWAP6 SWAP5 SWAP4 SWAP3 SWAP2 SWAP1 PUSH2 0x4A10 JUMP JUMPDEST PUSH1 0x40 MLOAD DUP1 SWAP2 SUB SWAP1 LOG1 DUP1 DUP6 PUSH1 0x6 ADD DUP2 SWAP1 SSTORE POP DUP5 PUSH1 0x0 ADD DUP1 SLOAD SWAP1 POP DUP6 PUSH1 0x6 ADD SLOAD SUB PUSH2 0x221E JUMPI PUSH2 0x2180 PUSH1 0x4 PUSH1 0x3 SWAP1 SLOAD SWAP1 PUSH2 0x100 EXP SWAP1 DIV PUSH20 0xFFFFFFFFFFFFFFFFFFFFFFFFFFFFFFFFFFFFFFFF AND DUP5 PUSH1 0xC0 ADD MLOAD PUSH2 0x3359 JUMP JUMPDEST PUSH2 0x21B0 PUSH1 0x5 PUSH1 0x0 SWAP1 SLOAD SWAP1 PUSH2 0x100 EXP SWAP1 DIV PUSH20 0xFFFFFFFFFFFFFFFFFFFFFFFFFFFFFFFFFFFFFFFF AND DUP5 PUSH1 0x40 ADD MLOAD PUSH2 0x3359 JUMP JUMPDEST PUSH2 0x21E0 PUSH1 0x6 PUSH1 0x0 SWAP1 SLOAD SWAP1 PUSH2 0x100 EXP SWAP1 DIV PUSH20 0xFFFFFFFFFFFFFFFFFFFFFFFFFFFFFFFFFFFFFFFF AND DUP5 PUSH1 0x60 ADD MLOAD PUSH2 0x3359 JUMP JUMPDEST PUSH2 0x2213 PUSH1 0x4 PUSH1 0x3 SWAP1 SLOAD SWAP1 PUSH2 0x100 EXP SWAP1 DIV PUSH20 0xFFFFFFFFFFFFFFFFFFFFFFFFFFFFFFFFFFFFFFFF AND PUSH2 0x220E PUSH2 0x1988 JUMP JUMPDEST PUSH2 0x3359 JUMP JUMPDEST PUSH2 0x221D DUP13 DUP13 PUSH2 0x2FFA JUMP JUMPDEST JUMPDEST POP POP POP POP POP POP JUMPDEST PUSH2 0x222D PUSH2 0x340A JUMP JUMPDEST POP POP POP POP POP POP JUMP JUMPDEST PUSH1 0x2 PUSH1 0x0 SWAP1 SLOAD SWAP1 PUSH2 0x100 EXP SWAP1 DIV PUSH20 0xFFFFFFFFFFFFFFFFFFFFFFFFFFFFFFFFFFFFFFFF AND PUSH20 0xFFFFFFFFFFFFFFFFFFFFFFFFFFFFFFFFFFFFFFFF AND CALLER PUSH20 0xFFFFFFFFFFFFFFFFFFFFFFFFFFFFFFFFFFFFFFFF AND EQ PUSH2 0x22C5 JUMPI PUSH1 0x40 MLOAD PUSH32 0x8C379A000000000000000000000000000000000000000000000000000000000 DUP2 MSTORE PUSH1 0x4 ADD PUSH2 0x22BC SWAP1 PUSH2 0x49F0 JUMP JUMPDEST PUSH1 0x40 MLOAD DUP1 SWAP2 SUB SWAP1 REVERT JUMPDEST DUP4 DUP4 PUSH1 0x3 DUP3 DUP3 PUSH1 0x40 MLOAD PUSH2 0x22D9 SWAP3 SWAP2 SWAP1 PUSH2 0x419D JUMP JUMPDEST SWAP1 DUP2 MSTORE PUSH1 0x20 ADD PUSH1 0x40 MLOAD DUP1 SWAP2 SUB SWAP1 KECCAK256 PUSH1 0x0 ADD PUSH1 0x0 SWAP1 SLOAD SWAP1 PUSH2 0x100 EXP SWAP1 DIV PUSH1 0xFF AND PUSH2 0x2337 JUMPI PUSH1 0x40 MLOAD PUSH32 0x8C379A000000000000000000000000000000000000000000000000000000000 DUP2 MSTORE PUSH1 0x4 ADD PUSH2 0x232E SWAP1 PUSH2 0x43E6 JUMP JUMPDEST PUSH1 0x40 MLOAD DUP1 SWAP2 SUB SWAP1 REVERT JUMPDEST DUP3 DUP5 GT ISZERO PUSH2 0x237A JUMPI PUSH1 0x40 MLOAD PUSH32 0x8C379A000000000000000000000000000000000000000000000000000000000 DUP2 MSTORE PUSH1 0x4 ADD PUSH2 0x2371 SWAP1 PUSH2 0x4CC7 JUMP JUMPDEST PUSH1 0x40 MLOAD DUP1 SWAP2 SUB SWAP1 REVERT JUMPDEST DUP4 PUSH1 0x3 DUP8 DUP8 PUSH1 0x40 MLOAD PUSH2 0x238D SWAP3 SWAP2 SWAP1 PUSH2 0x419D JUMP JUMPDEST SWAP1 DUP2 MSTORE PUSH1 0x20 ADD PUSH1 0x40 MLOAD DUP1 SWAP2 SUB SWAP1 KECCAK256 PUSH1 0x1 ADD DUP2 SWAP1 SSTORE POP DUP3 PUSH1 0x3 DUP8 DUP8 PUSH1 0x40 MLOAD PUSH2 0x23B5 SWAP3 SWAP2 SWAP1 PUSH2 0x419D JUMP JUMPDEST SWAP1 DUP2 MSTORE PUSH1 0x20 ADD PUSH1 0x40 MLOAD DUP1 SWAP2 SUB SWAP1 KECCAK256 PUSH1 0x2 ADD DUP2 SWAP1 SSTORE POP POP POP POP POP POP POP JUMP JUMPDEST PUSH1 0x2 PUSH1 0x0 SWAP1 SLOAD SWAP1 PUSH2 0x100 EXP SWAP1 DIV PUSH20 0xFFFFFFFFFFFFFFFFFFFFFFFFFFFFFFFFFFFFFFFF AND PUSH20 0xFFFFFFFFFFFFFFFFFFFFFFFFFFFFFFFFFFFFFFFF AND CALLER PUSH20 0xFFFFFFFFFFFFFFFFFFFFFFFFFFFFFFFFFFFFFFFF AND EQ PUSH2 0x2462 JUMPI PUSH1 0x40 MLOAD PUSH32 0x8C379A000000000000000000000000000000000000000000000000000000000 DUP2 MSTORE PUSH1 0x4 ADD PUSH2 0x2459 SWAP1 PUSH2 0x49F0 JUMP JUMPDEST PUSH1 0x40 MLOAD DUP1 SWAP2 SUB SWAP1 REVERT JUMPDEST DUP5 DUP5 PUSH1 0x3 DUP3 DUP3 PUSH1 0x40 MLOAD PUSH2 0x2476 SWAP3 SWAP2 SWAP1 PUSH2 0x419D JUMP JUMPDEST SWAP1 DUP2 MSTORE PUSH1 0x20 ADD PUSH1 0x40 MLOAD DUP1 SWAP2 SUB SWAP1 KECCAK256 PUSH1 0x0 ADD PUSH1 0x0 SWAP1 SLOAD SWAP1 PUSH2 0x100 EXP SWAP1 DIV PUSH1 0xFF AND PUSH2 0x24D4 JUMPI PUSH1 0x40 MLOAD PUSH32 0x8C379A000000000000000000000000000000000000000000000000000000000 DUP2 MSTORE PUSH1 0x4 ADD PUSH2 0x24CB SWAP1 PUSH2 0x43E6 JUMP JUMPDEST PUSH1 0x40 MLOAD DUP1 SWAP2 SUB SWAP1 REVERT JUMPDEST PUSH1 0x0 PUSH1 0x3 DUP9 DUP9 PUSH1 0x40 MLOAD PUSH2 0x24E8 SWAP3 SWAP2 SWAP1 PUSH2 0x419D JUMP JUMPDEST SWAP1 DUP2 MSTORE PUSH1 0x20 ADD PUSH1 0x40 MLOAD DUP1 SWAP2 SUB SWAP1 KECCAK256 SWAP1 POP PUSH2 0x2502 DUP9 DUP9 PUSH2 0xFF1 JUMP JUMPDEST ISZERO PUSH2 0x2627 JUMPI PUSH1 0x6 PUSH1 0x14 SWAP1 SLOAD SWAP1 PUSH2 0x100 EXP SWAP1 DIV PUSH1 0xFF AND PUSH2 0x2556 JUMPI PUSH1 0x40 MLOAD PUSH32 0x8C379A000000000000000000000000000000000000000000000000000000000 DUP2 MSTORE PUSH1 0x4 ADD PUSH2 0x254D SWAP1 PUSH2 0x4D59 JUMP JUMPDEST PUSH1 0x40 MLOAD DUP1 SWAP2 SUB SWAP1 REVERT JUMPDEST DUP5 DUP2 PUSH1 0x0 ADD PUSH1 0x1 PUSH2 0x100 EXP DUP2 SLOAD DUP2 PUSH4 0xFFFFFFFF MUL NOT AND SWAP1 DUP4 PUSH1 0x3 SIGNEXTEND PUSH4 0xFFFFFFFF AND MUL OR SWAP1 SSTORE POP DUP6 DUP2 PUSH1 0x14 ADD PUSH1 0x0 PUSH2 0x100 EXP DUP2 SLOAD DUP2 PUSH8 0xFFFFFFFFFFFFFFFF MUL NOT AND SWAP1 DUP4 PUSH1 0x7 SIGNEXTEND PUSH8 0xFFFFFFFFFFFFFFFF AND MUL OR SWAP1 SSTORE POP DUP8 DUP8 PUSH1 0x40 MLOAD PUSH2 0x25BA SWAP3 SWAP2 SWAP1 PUSH2 0x419D JUMP JUMPDEST PUSH1 0x40 MLOAD DUP1 SWAP2 SUB SWAP1 KECCAK256 PUSH32 0x977F157300BB4D69D09B3E083FB55A17A0C02F978E5B220C08173C63DE9665AA DUP10 DUP10 DUP10 DUP6 PUSH1 0x0 ADD PUSH1 0x1 SWAP1 SLOAD SWAP1 PUSH2 0x100 EXP SWAP1 DIV PUSH1 0x3 SIGNEXTEND DUP7 PUSH1 0x1 ADD SLOAD DUP8 PUSH1 0x2 ADD SLOAD DUP9 PUSH1 0x3 ADD SLOAD PUSH1 0x40 MLOAD PUSH2 0x261A SWAP8 SWAP7 SWAP6 SWAP5 SWAP4 SWAP3 SWAP2 SWAP1 PUSH2 0x4D79 JUMP JUMPDEST PUSH1 0x40 MLOAD DUP1 SWAP2 SUB SWAP1 LOG2 PUSH2 0x2726 JUMP JUMPDEST PUSH1 0x0 DUP2 PUSH1 0x0 ADD PUSH1 0x5 SWAP1 SLOAD SWAP1 PUSH2 0x100 EXP SWAP1 DIV PUSH1 0x3 SIGNEXTEND PUSH1 0x3 SIGNEXTEND SUB PUSH2 0x26F3 JUMPI DUP5 DUP2 PUSH1 0x0 ADD PUSH1 0x5 PUSH2 0x100 EXP DUP2 SLOAD DUP2 PUSH4 0xFFFFFFFF MUL NOT AND SWAP1 DUP4 PUSH1 0x3 SIGNEXTEND PUSH4 0xFFFFFFFF AND MUL OR SWAP1 SSTORE POP DUP8 DUP8 PUSH1 0x40 MLOAD PUSH2 0x2679 SWAP3 SWAP2 SWAP1 PUSH2 0x419D JUMP JUMPDEST PUSH1 0x40 MLOAD DUP1 SWAP2 SUB SWAP1 KECCAK256 PUSH32 0xE097BF610F5827FFCDD36EB07B790E6EE02DD498F911AB45664208CFAD9323B0 DUP10 DUP10 DUP10 DUP6 PUSH1 0x0 ADD PUSH1 0x1 SWAP1 SLOAD SWAP1 PUSH2 0x100 EXP SWAP1 DIV PUSH1 0x3 SIGNEXTEND DUP7 PUSH1 0x0 ADD PUSH1 0x5 SWAP1 SLOAD SWAP1 PUSH2 0x100 EXP SWAP1 DIV PUSH1 0x3 SIGNEXTEND PUSH1 0x40 MLOAD PUSH2 0x26DA SWAP6 SWAP5 SWAP4 SWAP3 SWAP2 SWAP1 PUSH2 0x4DE3 JUMP JUMPDEST PUSH1 0x40 MLOAD DUP1 SWAP2 SUB SWAP1 LOG2 PUSH2 0x26EE DUP9 DUP9 DUP7 DUP10 PUSH2 0x1A4D JUMP JUMPDEST PUSH2 0x2725 JUMP JUMPDEST PUSH1 0x40 MLOAD PUSH32 0xD56BE5DB00000000000000000000000000000000000000000000000000000000 DUP2 MSTORE PUSH1 0x4 ADD PUSH1 0x40 MLOAD DUP1 SWAP2 SUB SWAP1 REVERT JUMPDEST JUMPDEST POP POP POP POP POP POP POP POP JUMP JUMPDEST PUSH1 0x6 PUSH1 0x0 SWAP1 SLOAD SWAP1 PUSH2 0x100 EXP SWAP1 DIV PUSH20 0xFFFFFFFFFFFFFFFFFFFFFFFFFFFFFFFFFFFFFFFF AND DUP2 JUMP JUMPDEST PUSH2 0x275E PUSH2 0x2CC1 JUMP JUMPDEST PUSH1 0x64 DUP2 PUSH1 0xFF AND GT ISZERO PUSH2 0x27A5 JUMPI PUSH1 0x40 MLOAD PUSH32 0x8C379A000000000000000000000000000000000000000000000000000000000 DUP2 MSTORE PUSH1 0x4 ADD PUSH2 0x279C SWAP1 PUSH2 0x4EA3 JUMP JUMPDEST PUSH1 0x40 MLOAD DUP1 SWAP2 SUB SWAP1 REVERT JUMPDEST DUP1 PUSH1 0x4 PUSH1 0x2 PUSH2 0x100 EXP DUP2 SLOAD DUP2 PUSH1 0xFF MUL NOT AND SWAP1 DUP4 PUSH1 0xFF AND MUL OR SWAP1 SSTORE POP POP JUMP JUMPDEST PUSH2 0x27CB PUSH2 0x2CC1 JUMP JUMPDEST PUSH1 0x64 DUP2 PUSH1 0xFF AND GT ISZERO PUSH2 0x2812 JUMPI PUSH1 0x40 MLOAD PUSH32 0x8C379A000000000000000000000000000000000000000000000000000000000 DUP2 MSTORE PUSH1 0x4 ADD PUSH2 0x2809 SWAP1 PUSH2 0x4F0F JUMP JUMPDEST PUSH1 0x40 MLOAD DUP1 SWAP2 SUB SWAP1 REVERT JUMPDEST DUP1 PUSH1 0x4 PUSH1 0x0 PUSH2 0x100 EXP DUP2 SLOAD DUP2 PUSH1 0xFF MUL NOT AND SWAP1 DUP4 PUSH1 0xFF AND MUL OR SWAP1 SSTORE POP POP JUMP JUMPDEST PUSH2 0x2838 PUSH2 0x2CC1 JUMP JUMPDEST PUSH1 0x1 PUSH1 0x6 PUSH1 0x14 PUSH2 0x100 EXP DUP2 SLOAD DUP2 PUSH1 0xFF MUL NOT AND SWAP1 DUP4 ISZERO ISZERO MUL OR SWAP1 SSTORE POP PUSH1 0x40 MLOAD DUP1 PUSH1 0x20 ADD PUSH1 0x40 MSTORE DUP1 PUSH1 0x0 DUP2 MSTORE POP PUSH1 0x7 SWAP1 DUP2 PUSH2 0x2871 SWAP2 SWAP1 PUSH2 0x50DB JUMP JUMPDEST POP PUSH32 0x762F260439BB4BE3EF6E4DC2786E2E7BD187D3D80B79057D7A424FE98563E335 PUSH1 0x40 MLOAD PUSH1 0x40 MLOAD DUP1 SWAP2 SUB SWAP1 LOG1 JUMP JUMPDEST PUSH1 0x2 PUSH1 0x0 SWAP1 SLOAD SWAP1 PUSH2 0x100 EXP SWAP1 DIV PUSH20 0xFFFFFFFFFFFFFFFFFFFFFFFFFFFFFFFFFFFFFFFF AND PUSH20 0xFFFFFFFFFFFFFFFFFFFFFFFFFFFFFFFFFFFFFFFF AND CALLER PUSH20 0xFFFFFFFFFFFFFFFFFFFFFFFFFFFFFFFFFFFFFFFF AND EQ PUSH2 0x2930 JUMPI PUSH1 0x40 MLOAD PUSH32 0x8C379A000000000000000000000000000000000000000000000000000000000 DUP2 MSTORE PUSH1 0x4 ADD PUSH2 0x2927 SWAP1 PUSH2 0x49F0 JUMP JUMPDEST PUSH1 0x40 MLOAD DUP1 SWAP2 SUB SWAP1 REVERT JUMPDEST PUSH1 0x1 PUSH1 0x3 DUP7 DUP7 PUSH1 0x40 MLOAD PUSH2 0x2944 SWAP3 SWAP2 SWAP1 PUSH2 0x419D JUMP JUMPDEST SWAP1 DUP2 MSTORE PUSH1 0x20 ADD PUSH1 0x40 MLOAD DUP1 SWAP2 SUB SWAP1 KECCAK256 PUSH1 0x0 ADD PUSH1 0x0 PUSH2 0x100 EXP DUP2 SLOAD DUP2 PUSH1 0xFF MUL NOT AND SWAP1 DUP4 ISZERO ISZERO MUL OR SWAP1 SSTORE POP DUP3 PUSH1 0x3 DUP7 DUP7 PUSH1 0x40 MLOAD PUSH2 0x297F SWAP3 SWAP2 SWAP1 PUSH2 0x419D JUMP JUMPDEST SWAP1 DUP2 MSTORE PUSH1 0x20 ADD PUSH1 0x40 MLOAD DUP1 SWAP2 SUB SWAP1 KECCAK256 PUSH1 0x1 ADD DUP2 SWAP1 SSTORE POP DUP2 PUSH1 0x3 DUP7 DUP7 PUSH1 0x40 MLOAD PUSH2 0x29A7 SWAP3 SWAP2 SWAP1 PUSH2 0x419D JUMP JUMPDEST SWAP1 DUP2 MSTORE PUSH1 0x20 ADD PUSH1 0x40 MLOAD DUP1 SWAP2 SUB SWAP1 KECCAK256 PUSH1 0x2 ADD DUP2 SWAP1 SSTORE POP DUP1 PUSH1 0x3 DUP7 DUP7 PUSH1 0x40 MLOAD PUSH2 0x29CF SWAP3 SWAP2 SWAP1 PUSH2 0x419D JUMP JUMPDEST SWAP1 DUP2 MSTORE PUSH1 0x20 ADD PUSH1 0x40 MLOAD DUP1 SWAP2 SUB SWAP1 KECCAK256 PUSH1 0x3 ADD DUP2 SWAP1 SSTORE POP POP POP POP POP POP JUMP JUMPDEST PUSH2 0x29F3 PUSH2 0x2CC1 JUMP JUMPDEST PUSH1 0x0 PUSH1 0x6 PUSH1 0x14 PUSH2 0x100 EXP DUP2 SLOAD DUP2 PUSH1 0xFF MUL NOT AND SWAP1 DUP4 ISZERO ISZERO MUL OR SWAP1 SSTORE POP DUP2 DUP2 PUSH1 0x7 SWAP2 DUP3 PUSH2 0x2A1F SWAP3 SWAP2 SWAP1 PUSH2 0x51B8 JUMP JUMPDEST POP PUSH32 0xBBED56C796999EC9481DE9169E54D6F193C57A335189C8B82053D80E263FDBD6 DUP3 DUP3 PUSH1 0x40 MLOAD PUSH2 0x2A51 SWAP3 SWAP2 SWAP1 PUSH2 0x5288 JUMP JUMPDEST PUSH1 0x40 MLOAD DUP1 SWAP2 SUB SWAP1 LOG1 POP POP JUMP JUMPDEST PUSH2 0x2A65 PUSH2 0x2CC1 JUMP JUMPDEST PUSH1 0x0 PUSH20 0xFFFFFFFFFFFFFFFFFFFFFFFFFFFFFFFFFFFFFFFF AND DUP2 PUSH20 0xFFFFFFFFFFFFFFFFFFFFFFFFFFFFFFFFFFFFFFFF AND SUB PUSH2 0x2AD7 JUMPI PUSH1 0x0 PUSH1 0x40 MLOAD PUSH32 0x1E4FBDF700000000000000000000000000000000000000000000000000000000 DUP2 MSTORE PUSH1 0x4 ADD PUSH2 0x2ACE SWAP2 SWAP1 PUSH2 0x37B0 JUMP JUMPDEST PUSH1 0x40 MLOAD DUP1 SWAP2 SUB SWAP1 REVERT JUMPDEST PUSH2 0x2AE0 DUP2 PUSH2 0x2D48 JUMP JUMPDEST POP JUMP JUMPDEST PUSH1 0x2 PUSH1 0x0 SWAP1 SLOAD SWAP1 PUSH2 0x100 EXP SWAP1 DIV PUSH20 0xFFFFFFFFFFFFFFFFFFFFFFFFFFFFFFFFFFFFFFFF AND DUP2 JUMP JUMPDEST PUSH1 0x0 ORIGIN PUSH20 0xFFFFFFFFFFFFFFFFFFFFFFFFFFFFFFFFFFFFFFFF AND DUP3 PUSH20 0xFFFFFFFFFFFFFFFFFFFFFFFFFFFFFFFFFFFFFFFF AND EQ SWAP1 POP SWAP2 SWAP1 POP JUMP JUMPDEST PUSH1 0x0 DUP9 PUSH1 0x0 ADD DUP9 SWAP1 DUP1 PUSH1 0x1 DUP2 SLOAD ADD DUP1 DUP3 SSTORE DUP1 SWAP2 POP POP PUSH1 0x1 SWAP1 SUB SWAP1 PUSH1 0x0 MSTORE PUSH1 0x20 PUSH1 0x0 KECCAK256 ADD PUSH1 0x0 SWAP1 SWAP2 SWAP1 SWAP2 SWAP1 SWAP2 POP SSTORE DUP9 PUSH1 0x1 ADD CALLER SWAP1 DUP1 PUSH1 0x1 DUP2 SLOAD ADD DUP1 DUP3 SSTORE DUP1 SWAP2 POP POP PUSH1 0x1 SWAP1 SUB SWAP1 PUSH1 0x0 MSTORE PUSH1 0x20 PUSH1 0x0 KECCAK256 ADD PUSH1 0x0 SWAP1 SWAP2 SWAP1 SWAP2 SWAP1 SWAP2 PUSH2 0x100 EXP DUP2 SLOAD DUP2 PUSH20 0xFFFFFFFFFFFFFFFFFFFFFFFFFFFFFFFFFFFFFFFF MUL NOT AND SWAP1 DUP4 PUSH20 0xFFFFFFFFFFFFFFFFFFFFFFFFFFFFFFFFFFFFFFFF AND MUL OR SWAP1 SSTORE POP DUP9 PUSH1 0x2 ADD DUP8 DUP8 SWAP1 SWAP2 DUP1 PUSH1 0x1 DUP2 SLOAD ADD DUP1 DUP3 SSTORE DUP1 SWAP2 POP POP PUSH1 0x1 SWAP1 SUB SWAP1 PUSH1 0x0 MSTORE PUSH1 0x20 PUSH1 0x0 KECCAK256 ADD PUSH1 0x0 SWAP1 SWAP2 SWAP3 SWAP1 SWAP2 SWAP3 SWAP1 SWAP2 SWAP3 SWAP1 SWAP2 SWAP3 POP SWAP2 DUP3 PUSH2 0x2C12 SWAP3 SWAP2 SWAP1 PUSH2 0x52FD JUMP JUMPDEST POP DUP9 PUSH1 0x3 ADD DUP6 DUP6 SWAP1 SWAP2 DUP1 PUSH1 0x1 DUP2 SLOAD ADD DUP1 DUP3 SSTORE DUP1 SWAP2 POP POP PUSH1 0x1 SWAP1 SUB SWAP1 PUSH1 0x0 MSTORE PUSH1 0x20 PUSH1 0x0 KECCAK256 ADD PUSH1 0x0 SWAP1 SWAP2 SWAP3 SWAP1 SWAP2 SWAP3 SWAP1 SWAP2 SWAP3 SWAP1 SWAP2 SWAP3 POP SWAP2 DUP3 PUSH2 0x2C52 SWAP3 SWAP2 SWAP1 PUSH2 0x52FD JUMP JUMPDEST POP DUP9 PUSH1 0x4 ADD DUP4 DUP4 SWAP1 SWAP2 DUP1 PUSH1 0x1 DUP2 SLOAD ADD DUP1 DUP3 SSTORE DUP1 SWAP2 POP POP PUSH1 0x1 SWAP1 SUB SWAP1 PUSH1 0x0 MSTORE PUSH1 0x20 PUSH1 0x0 KECCAK256 ADD PUSH1 0x0 SWAP1 SWAP2 SWAP3 SWAP1 SWAP2 SWAP3 SWAP1 SWAP2 SWAP3 SWAP1 SWAP2 SWAP3 POP SWAP2 DUP3 PUSH2 0x2C92 SWAP3 SWAP2 SWAP1 PUSH2 0x52FD JUMP JUMPDEST POP DUP8 DUP10 PUSH1 0x5 ADD PUSH1 0x0 DUP3 DUP3 SLOAD PUSH2 0x2CA7 SWAP2 SWAP1 PUSH2 0x41E5 JUMP JUMPDEST SWAP3 POP POP DUP2 SWAP1 SSTORE POP DUP9 PUSH1 0x5 ADD SLOAD SWAP1 POP SWAP9 SWAP8 POP POP POP POP POP POP POP POP JUMP JUMPDEST PUSH2 0x2CC9 PUSH2 0x3413 JUMP JUMPDEST PUSH20 0xFFFFFFFFFFFFFFFFFFFFFFFFFFFFFFFFFFFFFFFF AND PUSH2 0x2CE7 PUSH2 0x19A4 JUMP JUMPDEST PUSH20 0xFFFFFFFFFFFFFFFFFFFFFFFFFFFFFFFFFFFFFFFF AND EQ PUSH2 0x2D46 JUMPI PUSH2 0x2D0A PUSH2 0x3413 JUMP JUMPDEST PUSH1 0x40 MLOAD PUSH32 0x118CDAA700000000000000000000000000000000000000000000000000000000 DUP2 MSTORE PUSH1 0x4 ADD PUSH2 0x2D3D SWAP2 SWAP1 PUSH2 0x37B0 JUMP JUMPDEST PUSH1 0x40 MLOAD DUP1 SWAP2 SUB SWAP1 REVERT JUMPDEST JUMP JUMPDEST PUSH1 0x0 DUP1 PUSH1 0x0 SWAP1 SLOAD SWAP1 PUSH2 0x100 EXP SWAP1 DIV PUSH20 0xFFFFFFFFFFFFFFFFFFFFFFFFFFFFFFFFFFFFFFFF AND SWAP1 POP DUP2 PUSH1 0x0 DUP1 PUSH2 0x100 EXP DUP2 SLOAD DUP2 PUSH20 0xFFFFFFFFFFFFFFFFFFFFFFFFFFFFFFFFFFFFFFFF MUL NOT AND SWAP1 DUP4 PUSH20 0xFFFFFFFFFFFFFFFFFFFFFFFFFFFFFFFFFFFFFFFF AND MUL OR SWAP1 SSTORE POP DUP2 PUSH20 0xFFFFFFFFFFFFFFFFFFFFFFFFFFFFFFFFFFFFFFFF AND DUP2 PUSH20 0xFFFFFFFFFFFFFFFFFFFFFFFFFFFFFFFFFFFFFFFF AND PUSH32 0x8BE0079C531659141344CD1FD0A4F28419497F9722A3DAAFE3B4186F6B6457E0 PUSH1 0x40 MLOAD PUSH1 0x40 MLOAD DUP1 SWAP2 SUB SWAP1 LOG3 POP POP JUMP JUMPDEST PUSH1 0x2 PUSH1 0x1 SLOAD SUB PUSH2 0x2E48 JUMPI PUSH1 0x40 MLOAD PUSH32 0x3EE5AEB500000000000000000000000000000000000000000000000000000000 DUP2 MSTORE PUSH1 0x4 ADD PUSH1 0x40 MLOAD DUP1 SWAP2 SUB SWAP1 REVERT JUMPDEST PUSH1 0x2 PUSH1 0x1 DUP2 SWAP1 SSTORE POP JUMP JUMPDEST PUSH1 0x0 DUP3 PUSH1 0x6 ADD SLOAD DUP4 PUSH1 0x0 ADD DUP1 SLOAD SWAP1 POP PUSH2 0x2E6B SWAP2 SWAP1 PUSH2 0x465B JUMP JUMPDEST SWAP1 POP PUSH1 0x0 DUP3 PUSH4 0xFFFFFFFF AND DUP3 GT PUSH2 0x2E82 JUMPI DUP2 PUSH2 0x2E8A JUMP JUMPDEST DUP3 PUSH4 0xFFFFFFFF AND JUMPDEST SWAP1 POP PUSH1 0x0 DUP2 DUP6 PUSH1 0x6 ADD SLOAD PUSH2 0x2E9E SWAP2 SWAP1 PUSH2 0x41E5 JUMP JUMPDEST SWAP1 POP PUSH1 0x0 DUP6 PUSH1 0x6 ADD SLOAD SWAP1 POP JUMPDEST DUP2 DUP2 LT ISZERO PUSH2 0x2FE7 JUMPI PUSH2 0x2F1C DUP7 PUSH1 0x1 ADD DUP3 DUP2 SLOAD DUP2 LT PUSH2 0x2ECB JUMPI PUSH2 0x2ECA PUSH2 0x4A6C JUMP JUMPDEST JUMPDEST SWAP1 PUSH1 0x0 MSTORE PUSH1 0x20 PUSH1 0x0 KECCAK256 ADD PUSH1 0x0 SWAP1 SLOAD SWAP1 PUSH2 0x100 EXP SWAP1 DIV PUSH20 0xFFFFFFFFFFFFFFFFFFFFFFFFFFFFFFFFFFFFFFFF AND DUP8 PUSH1 0x0 ADD DUP4 DUP2 SLOAD DUP2 LT PUSH2 0x2F0C JUMPI PUSH2 0x2F0B PUSH2 0x4A6C JUMP JUMPDEST JUMPDEST SWAP1 PUSH1 0x0 MSTORE PUSH1 0x20 PUSH1 0x0 KECCAK256 ADD SLOAD PUSH2 0x3359 JUMP JUMPDEST PUSH32 0xB9B3CF88E16DDD6B941FFA04B763047AF17BAFD3CDECEF4D26D46F43E64C1205 DUP9 DUP9 DUP9 PUSH1 0x1 ADD DUP5 DUP2 SLOAD DUP2 LT PUSH2 0x2F55 JUMPI PUSH2 0x2F54 PUSH2 0x4A6C JUMP JUMPDEST JUMPDEST SWAP1 PUSH1 0x0 MSTORE PUSH1 0x20 PUSH1 0x0 KECCAK256 ADD PUSH1 0x0 SWAP1 SLOAD SWAP1 PUSH2 0x100 EXP SWAP1 DIV PUSH20 0xFFFFFFFFFFFFFFFFFFFFFFFFFFFFFFFFFFFFFFFF AND DUP10 PUSH1 0x0 ADD DUP6 DUP2 SLOAD DUP2 LT PUSH2 0x2F96 JUMPI PUSH2 0x2F95 PUSH2 0x4A6C JUMP JUMPDEST JUMPDEST SWAP1 PUSH1 0x0 MSTORE PUSH1 0x20 PUSH1 0x0 KECCAK256 ADD SLOAD DUP11 PUSH1 0x4 ADD DUP7 DUP2 SLOAD DUP2 LT PUSH2 0x2FB7 JUMPI PUSH2 0x2FB6 PUSH2 0x4A6C JUMP JUMPDEST JUMPDEST SWAP1 PUSH1 0x0 MSTORE PUSH1 0x20 PUSH1 0x0 KECCAK256 ADD PUSH1 0x40 MLOAD PUSH2 0x2FD2 SWAP6 SWAP5 SWAP4 SWAP3 SWAP2 SWAP1 PUSH2 0x53CD JUMP JUMPDEST PUSH1 0x40 MLOAD DUP1 SWAP2 SUB SWAP1 LOG1 DUP1 DUP1 PUSH1 0x1 ADD SWAP2 POP POP PUSH2 0x2EAA JUMP JUMPDEST POP DUP1 DUP6 PUSH1 0x6 ADD DUP2 SWAP1 SSTORE POP POP POP POP POP POP POP POP JUMP JUMPDEST PUSH1 0x3 DUP3 DUP3 PUSH1 0x40 MLOAD PUSH2 0x300C SWAP3 SWAP2 SWAP1 PUSH2 0x419D JUMP JUMPDEST SWAP1 DUP2 MSTORE PUSH1 0x20 ADD PUSH1 0x40 MLOAD DUP1 SWAP2 SUB SWAP1 KECCAK256 PUSH1 0x4 ADD PUSH1 0x0 DUP1 DUP3 ADD PUSH1 0x0 PUSH2 0x302E SWAP2 SWAP1 PUSH2 0x344D JUMP JUMPDEST PUSH1 0x1 DUP3 ADD PUSH1 0x0 PUSH2 0x303E SWAP2 SWAP1 PUSH2 0x346E JUMP JUMPDEST PUSH1 0x2 DUP3 ADD PUSH1 0x0 PUSH2 0x304E SWAP2 SWAP1 PUSH2 0x348F JUMP JUMPDEST PUSH1 0x3 DUP3 ADD PUSH1 0x0 PUSH2 0x305E SWAP2 SWAP1 PUSH2 0x348F JUMP JUMPDEST PUSH1 0x4 DUP3 ADD PUSH1 0x0 PUSH2 0x306E SWAP2 SWAP1 PUSH2 0x348F JUMP JUMPDEST PUSH1 0x5 DUP3 ADD PUSH1 0x0 SWAP1 SSTORE PUSH1 0x6 DUP3 ADD PUSH1 0x0 SWAP1 SSTORE PUSH1 0x7 DUP3 ADD PUSH1 0x0 SWAP1 SSTORE POP POP PUSH1 0x3 DUP3 DUP3 PUSH1 0x40 MLOAD PUSH2 0x309A SWAP3 SWAP2 SWAP1 PUSH2 0x419D JUMP JUMPDEST SWAP1 DUP2 MSTORE PUSH1 0x20 ADD PUSH1 0x40 MLOAD DUP1 SWAP2 SUB SWAP1 KECCAK256 PUSH1 0xC ADD PUSH1 0x0 DUP1 DUP3 ADD PUSH1 0x0 PUSH2 0x30BC SWAP2 SWAP1 PUSH2 0x344D JUMP JUMPDEST PUSH1 0x1 DUP3 ADD PUSH1 0x0 PUSH2 0x30CC SWAP2 SWAP1 PUSH2 0x346E JUMP JUMPDEST PUSH1 0x2 DUP3 ADD PUSH1 0x0 PUSH2 0x30DC SWAP2 SWAP1 PUSH2 0x348F JUMP JUMPDEST PUSH1 0x3 DUP3 ADD PUSH1 0x0 PUSH2 0x30EC SWAP2 SWAP1 PUSH2 0x348F JUMP JUMPDEST PUSH1 0x4 DUP3 ADD PUSH1 0x0 PUSH2 0x30FC SWAP2 SWAP1 PUSH2 0x348F JUMP JUMPDEST PUSH1 0x5 DUP3 ADD PUSH1 0x0 SWAP1 SSTORE PUSH1 0x6 DUP3 ADD PUSH1 0x0 SWAP1 SSTORE PUSH1 0x7 DUP3 ADD PUSH1 0x0 SWAP1 SSTORE POP POP PUSH1 0x3 DUP3 DUP3 PUSH1 0x40 MLOAD PUSH2 0x3128 SWAP3 SWAP2 SWAP1 PUSH2 0x419D JUMP JUMPDEST SWAP1 DUP2 MSTORE PUSH1 0x20 ADD PUSH1 0x40 MLOAD DUP1 SWAP2 SUB SWAP1 KECCAK256 PUSH1 0x0 ADD PUSH1 0x1 PUSH2 0x100 EXP DUP2 SLOAD SWAP1 PUSH4 0xFFFFFFFF MUL NOT AND SWAP1 SSTORE PUSH1 0x3 DUP3 DUP3 PUSH1 0x40 MLOAD PUSH2 0x315E SWAP3 SWAP2 SWAP1 PUSH2 0x419D JUMP JUMPDEST SWAP1 DUP2 MSTORE PUSH1 0x20 ADD PUSH1 0x40 MLOAD DUP1 SWAP2 SUB SWAP1 KECCAK256 PUSH1 0x0 ADD PUSH1 0x5 PUSH2 0x100 EXP DUP2 SLOAD SWAP1 PUSH4 0xFFFFFFFF MUL NOT AND SWAP1 SSTORE POP POP JUMP JUMPDEST PUSH2 0x318E PUSH2 0x34B0 JUMP JUMPDEST PUSH1 0x0 PUSH1 0x64 PUSH1 0x4 PUSH1 0x0 SWAP1 SLOAD SWAP1 PUSH2 0x100 EXP SWAP1 DIV PUSH1 0xFF AND PUSH1 0xFF AND DUP5 PUSH1 0x5 ADD SLOAD DUP7 PUSH1 0x5 ADD SLOAD PUSH2 0x31B9 SWAP2 SWAP1 PUSH2 0x41E5 JUMP JUMPDEST PUSH2 0x31C3 SWAP2 SWAP1 PUSH2 0x4A9B JUMP JUMPDEST PUSH2 0x31CD SWAP2 SWAP1 PUSH2 0x4B0C JUMP JUMPDEST SWAP1 POP PUSH1 0x0 PUSH1 0x64 PUSH1 0x4 PUSH1 0x1 SWAP1 SLOAD SWAP1 PUSH2 0x100 EXP SWAP1 DIV PUSH1 0xFF AND PUSH1 0xFF AND DUP4 PUSH2 0x31F1 SWAP2 SWAP1 PUSH2 0x4A9B JUMP JUMPDEST PUSH2 0x31FB SWAP2 SWAP1 PUSH2 0x4B0C JUMP JUMPDEST SWAP1 POP PUSH1 0x0 PUSH1 0x64 PUSH1 0x4 PUSH1 0x2 SWAP1 SLOAD SWAP1 PUSH2 0x100 EXP SWAP1 DIV PUSH1 0xFF AND PUSH1 0xFF AND DUP5 PUSH2 0x321F SWAP2 SWAP1 PUSH2 0x4A9B JUMP JUMPDEST PUSH2 0x3229 SWAP2 SWAP1 PUSH2 0x4B0C JUMP JUMPDEST SWAP1 POP PUSH1 0x0 DUP2 DUP4 PUSH2 0x3239 SWAP2 SWAP1 PUSH2 0x41E5 JUMP JUMPDEST DUP5 PUSH2 0x3244 SWAP2 SWAP1 PUSH2 0x465B JUMP JUMPDEST SWAP1 POP PUSH1 0x0 PUSH1 0x64 PUSH1 0x4 PUSH1 0x0 SWAP1 SLOAD SWAP1 PUSH2 0x100 EXP SWAP1 DIV PUSH1 0xFF AND PUSH1 0xFF AND DUP9 PUSH1 0x5 ADD SLOAD PUSH2 0x326C SWAP2 SWAP1 PUSH2 0x4A9B JUMP JUMPDEST PUSH2 0x3276 SWAP2 SWAP1 PUSH2 0x4B0C JUMP JUMPDEST DUP8 PUSH1 0x5 ADD SLOAD PUSH2 0x3285 SWAP2 SWAP1 PUSH2 0x465B JUMP JUMPDEST SWAP1 POP PUSH1 0x0 PUSH1 0x64 PUSH1 0x4 PUSH1 0x0 SWAP1 SLOAD SWAP1 PUSH2 0x100 EXP SWAP1 DIV PUSH1 0xFF AND PUSH1 0xFF AND DUP11 PUSH1 0x5 ADD SLOAD PUSH2 0x32AD SWAP2 SWAP1 PUSH2 0x4A9B JUMP JUMPDEST PUSH2 0x32B7 SWAP2 SWAP1 PUSH2 0x4B0C JUMP JUMPDEST DUP10 PUSH1 0x5 ADD SLOAD PUSH2 0x32C6 SWAP2 SWAP1 PUSH2 0x465B JUMP JUMPDEST SWAP1 POP PUSH1 0x0 DUP10 PUSH1 0x6 ADD SLOAD DUP11 PUSH1 0x0 ADD DUP1 SLOAD SWAP1 POP PUSH2 0x32E1 SWAP2 SWAP1 PUSH2 0x465B JUMP JUMPDEST SWAP1 POP PUSH1 0x40 MLOAD DUP1 PUSH2 0x100 ADD PUSH1 0x40 MSTORE DUP1 PUSH1 0x64 PUSH1 0x4 PUSH1 0x0 SWAP1 SLOAD SWAP1 PUSH2 0x100 EXP SWAP1 DIV PUSH1 0xFF AND PUSH1 0xFF AND DUP14 PUSH1 0x5 ADD SLOAD PUSH2 0x3313 SWAP2 SWAP1 PUSH2 0x4A9B JUMP JUMPDEST PUSH2 0x331D SWAP2 SWAP1 PUSH2 0x4B0C JUMP JUMPDEST DUP2 MSTORE PUSH1 0x20 ADD DUP9 DUP2 MSTORE PUSH1 0x20 ADD DUP8 DUP2 MSTORE PUSH1 0x20 ADD DUP7 DUP2 MSTORE PUSH1 0x20 ADD DUP5 DUP2 MSTORE PUSH1 0x20 ADD DUP4 DUP2 MSTORE PUSH1 0x20 ADD DUP6 DUP2 MSTORE PUSH1 0x20 ADD DUP3 DUP2 MSTORE POP SWAP8 POP POP POP POP POP POP POP POP SWAP3 SWAP2 POP POP JUMP JUMPDEST PUSH1 0x0 DUP3 PUSH20 0xFFFFFFFFFFFFFFFFFFFFFFFFFFFFFFFFFFFFFFFF AND DUP3 PUSH1 0x40 MLOAD PUSH2 0x337F SWAP1 PUSH2 0x5448 JUMP JUMPDEST PUSH1 0x0 PUSH1 0x40 MLOAD DUP1 DUP4 SUB DUP2 DUP6 DUP8 GAS CALL SWAP3 POP POP POP RETURNDATASIZE DUP1 PUSH1 0x0 DUP2 EQ PUSH2 0x33BC JUMPI PUSH1 0x40 MLOAD SWAP2 POP PUSH1 0x1F NOT PUSH1 0x3F RETURNDATASIZE ADD AND DUP3 ADD PUSH1 0x40 MSTORE RETURNDATASIZE DUP3 MSTORE RETURNDATASIZE PUSH1 0x0 PUSH1 0x20 DUP5 ADD RETURNDATACOPY PUSH2 0x33C1 JUMP JUMPDEST PUSH1 0x60 SWAP2 POP JUMPDEST POP POP SWAP1 POP DUP1 PUSH2 0x3405 JUMPI PUSH1 0x40 MLOAD PUSH32 0x8C379A000000000000000000000000000000000000000000000000000000000 DUP2 MSTORE PUSH1 0x4 ADD PUSH2 0x33FC SWAP1 PUSH2 0x54A9 JUMP JUMPDEST PUSH1 0x40 MLOAD DUP1 SWAP2 SUB SWAP1 REVERT JUMPDEST POP POP POP JUMP JUMPDEST PUSH1 0x1 DUP1 DUP2 SWAP1 SSTORE POP JUMP JUMPDEST PUSH1 0x0 CALLER SWAP1 POP SWAP1 JUMP JUMPDEST PUSH1 0x40 MLOAD DUP1 PUSH1 0xA0 ADD PUSH1 0x40 MSTORE DUP1 PUSH1 0x60 DUP2 MSTORE PUSH1 0x20 ADD PUSH1 0x60 DUP2 MSTORE PUSH1 0x20 ADD PUSH1 0x60 DUP2 MSTORE PUSH1 0x20 ADD PUSH1 0x0 PUSH1 0x7 SIGNEXTEND DUP2 MSTORE PUSH1 0x20 ADD PUSH1 0x60 DUP2 MSTORE POP SWAP1 JUMP JUMPDEST POP DUP1 SLOAD PUSH1 0x0 DUP3 SSTORE SWAP1 PUSH1 0x0 MSTORE PUSH1 0x20 PUSH1 0x0 KECCAK256 SWAP1 DUP2 ADD SWAP1 PUSH2 0x346B SWAP2 SWAP1 PUSH2 0x34F5 JUMP JUMPDEST POP JUMP JUMPDEST POP DUP1 SLOAD PUSH1 0x0 DUP3 SSTORE SWAP1 PUSH1 0x0 MSTORE PUSH1 0x20 PUSH1 0x0 KECCAK256 SWAP1 DUP2 ADD SWAP1 PUSH2 0x348C SWAP2 SWAP1 PUSH2 0x34F5 JUMP JUMPDEST POP JUMP JUMPDEST POP DUP1 SLOAD PUSH1 0x0 DUP3 SSTORE SWAP1 PUSH1 0x0 MSTORE PUSH1 0x20 PUSH1 0x0 KECCAK256 SWAP1 DUP2 ADD SWAP1 PUSH2 0x34AD SWAP2 SWAP1 PUSH2 0x3512 JUMP JUMPDEST POP JUMP JUMPDEST PUSH1 0x40 MLOAD DUP1 PUSH2 0x100 ADD PUSH1 0x40 MSTORE DUP1 PUSH1 0x0 DUP2 MSTORE PUSH1 0x20 ADD PUSH1 0x0 DUP2 MSTORE PUSH1 0x20 ADD PUSH1 0x0 DUP2 MSTORE PUSH1 0x20 ADD PUSH1 0x0 DUP2 MSTORE PUSH1 0x20 ADD PUSH1 0x0 DUP2 MSTORE PUSH1 0x20 ADD PUSH1 0x0 DUP2 MSTORE PUSH1 0x20 ADD PUSH1 0x0 DUP2 MSTORE PUSH1 0x20 ADD PUSH1 0x0 DUP2 MSTORE POP SWAP1 JUMP JUMPDEST JUMPDEST DUP1 DUP3 GT ISZERO PUSH2 0x350E JUMPI PUSH1 0x0 DUP2 PUSH1 0x0 SWAP1 SSTORE POP PUSH1 0x1 ADD PUSH2 0x34F6 JUMP JUMPDEST POP SWAP1 JUMP JUMPDEST JUMPDEST DUP1 DUP3 GT ISZERO PUSH2 0x3532 JUMPI PUSH1 0x0 DUP2 DUP2 PUSH2 0x3529 SWAP2 SWAP1 PUSH2 0x3536 JUMP JUMPDEST POP PUSH1 0x1 ADD PUSH2 0x3513 JUMP JUMPDEST POP SWAP1 JUMP JUMPDEST POP DUP1 SLOAD PUSH2 0x3542 SWAP1 PUSH2 0x48E1 JUMP JUMPDEST PUSH1 0x0 DUP3 SSTORE DUP1 PUSH1 0x1F LT PUSH2 0x3554 JUMPI POP PUSH2 0x3573 JUMP JUMPDEST PUSH1 0x1F ADD PUSH1 0x20 SWAP1 DIV SWAP1 PUSH1 0x0 MSTORE PUSH1 0x20 PUSH1 0x0 KECCAK256 SWAP1 DUP2 ADD SWAP1 PUSH2 0x3572 SWAP2 SWAP1 PUSH2 0x34F5 JUMP JUMPDEST JUMPDEST POP JUMP JUMPDEST PUSH1 0x0 PUSH1 0x40 MLOAD SWAP1 POP SWAP1 JUMP JUMPDEST PUSH1 0x0 DUP1 REVERT JUMPDEST PUSH1 0x0 DUP1 REVERT JUMPDEST PUSH1 0x0 DUP1 REVERT JUMPDEST PUSH1 0x0 DUP1 REVERT JUMPDEST PUSH1 0x0 DUP1 REVERT JUMPDEST PUSH1 0x0 DUP1 DUP4 PUSH1 0x1F DUP5 ADD SLT PUSH2 0x35AF JUMPI PUSH2 0x35AE PUSH2 0x358A JUMP JUMPDEST JUMPDEST DUP3 CALLDATALOAD SWAP1 POP PUSH8 0xFFFFFFFFFFFFFFFF DUP2 GT ISZERO PUSH2 0x35CC JUMPI PUSH2 0x35CB PUSH2 0x358F JUMP JUMPDEST JUMPDEST PUSH1 0x20 DUP4 ADD SWAP2 POP DUP4 PUSH1 0x1 DUP3 MUL DUP4 ADD GT ISZERO PUSH2 0x35E8 JUMPI PUSH2 0x35E7 PUSH2 0x3594 JUMP JUMPDEST JUMPDEST SWAP3 POP SWAP3 SWAP1 POP JUMP JUMPDEST PUSH1 0x0 DUP1 PUSH1 0x20 DUP4 DUP6 SUB SLT ISZERO PUSH2 0x3606 JUMPI PUSH2 0x3605 PUSH2 0x3580 JUMP JUMPDEST JUMPDEST PUSH1 0x0 DUP4 ADD CALLDATALOAD PUSH8 0xFFFFFFFFFFFFFFFF DUP2 GT ISZERO PUSH2 0x3624 JUMPI PUSH2 0x3623 PUSH2 0x3585 JUMP JUMPDEST JUMPDEST PUSH2 0x3630 DUP6 DUP3 DUP7 ADD PUSH2 0x3599 JUMP JUMPDEST SWAP3 POP SWAP3 POP POP SWAP3 POP SWAP3 SWAP1 POP JUMP JUMPDEST PUSH1 0x0 DUP2 ISZERO ISZERO SWAP1 POP SWAP2 SWAP1 POP JUMP JUMPDEST PUSH2 0x3651 DUP2 PUSH2 0x363C JUMP JUMPDEST DUP3 MSTORE POP POP JUMP JUMPDEST PUSH1 0x0 PUSH1 0x20 DUP3 ADD SWAP1 POP PUSH2 0x366C PUSH1 0x0 DUP4 ADD DUP5 PUSH2 0x3648 JUMP JUMPDEST SWAP3 SWAP2 POP POP JUMP JUMPDEST PUSH1 0x0 DUP1 REVERT JUMPDEST PUSH1 0x0 PUSH1 0xC0 DUP3 DUP5 SUB SLT ISZERO PUSH2 0x368D JUMPI PUSH2 0x368C PUSH2 0x3672 JUMP JUMPDEST JUMPDEST DUP2 SWAP1 POP SWAP3 SWAP2 POP POP JUMP JUMPDEST PUSH1 0x0 PUSH1 0x20 DUP3 DUP5 SUB SLT ISZERO PUSH2 0x36AC JUMPI PUSH2 0x36AB PUSH2 0x3580 JUMP JUMPDEST JUMPDEST PUSH1 0x0 DUP3 ADD CALLDATALOAD PUSH8 0xFFFFFFFFFFFFFFFF DUP2 GT ISZERO PUSH2 0x36CA JUMPI PUSH2 0x36C9 PUSH2 0x3585 JUMP JUMPDEST JUMPDEST PUSH2 0x36D6 DUP5 DUP3 DUP6 ADD PUSH2 0x3677 JUMP JUMPDEST SWAP2 POP POP SWAP3 SWAP2 POP POP JUMP JUMPDEST PUSH1 0x0 PUSH1 0xFF DUP3 AND SWAP1 POP SWAP2 SWAP1 POP JUMP JUMPDEST PUSH2 0x36F5 DUP2 PUSH2 0x36DF JUMP JUMPDEST DUP3 MSTORE POP POP JUMP JUMPDEST PUSH1 0x0 PUSH1 0x20 DUP3 ADD SWAP1 POP PUSH2 0x3710 PUSH1 0x0 DUP4 ADD DUP5 PUSH2 0x36EC JUMP JUMPDEST SWAP3 SWAP2 POP POP JUMP JUMPDEST PUSH1 0x0 PUSH20 0xFFFFFFFFFFFFFFFFFFFFFFFFFFFFFFFFFFFFFFFF DUP3 AND SWAP1 POP SWAP2 SWAP1 POP JUMP JUMPDEST PUSH1 0x0 PUSH2 0x3741 DUP3 PUSH2 0x3716 JUMP JUMPDEST SWAP1 POP SWAP2 SWAP1 POP JUMP JUMPDEST PUSH2 0x3751 DUP2 PUSH2 0x3736 JUMP JUMPDEST DUP2 EQ PUSH2 0x375C JUMPI PUSH1 0x0 DUP1 REVERT JUMPDEST POP JUMP JUMPDEST PUSH1 0x0 DUP2 CALLDATALOAD SWAP1 POP PUSH2 0x376E DUP2 PUSH2 0x3748 JUMP JUMPDEST SWAP3 SWAP2 POP POP JUMP JUMPDEST PUSH1 0x0 PUSH1 0x20 DUP3 DUP5 SUB SLT ISZERO PUSH2 0x378A JUMPI PUSH2 0x3789 PUSH2 0x3580 JUMP JUMPDEST JUMPDEST PUSH1 0x0 PUSH2 0x3798 DUP5 DUP3 DUP6 ADD PUSH2 0x375F JUMP JUMPDEST SWAP2 POP POP SWAP3 SWAP2 POP POP JUMP JUMPDEST PUSH2 0x37AA DUP2 PUSH2 0x3736 JUMP JUMPDEST DUP3 MSTORE POP POP JUMP JUMPDEST PUSH1 0x0 PUSH1 0x20 DUP3 ADD SWAP1 POP PUSH2 0x37C5 PUSH1 0x0 DUP4 ADD DUP5 PUSH2 0x37A1 JUMP JUMPDEST SWAP3 SWAP2 POP POP JUMP JUMPDEST PUSH1 0x0 DUP1 REVERT JUMPDEST PUSH1 0x0 PUSH1 0x1F NOT PUSH1 0x1F DUP4 ADD AND SWAP1 POP SWAP2 SWAP1 POP JUMP JUMPDEST PUSH32 0x4E487B7100000000000000000000000000000000000000000000000000000000 PUSH1 0x0 MSTORE PUSH1 0x41 PUSH1 0x4 MSTORE PUSH1 0x24 PUSH1 0x0 REVERT JUMPDEST PUSH2 0x3819 DUP3 PUSH2 0x37D0 JUMP JUMPDEST DUP2 ADD DUP2 DUP2 LT PUSH8 0xFFFFFFFFFFFFFFFF DUP3 GT OR ISZERO PUSH2 0x3838 JUMPI PUSH2 0x3837 PUSH2 0x37E1 JUMP JUMPDEST JUMPDEST DUP1 PUSH1 0x40 MSTORE POP POP POP JUMP JUMPDEST PUSH1 0x0 PUSH2 0x384B PUSH2 0x3576 JUMP JUMPDEST SWAP1 POP PUSH2 0x3857 DUP3 DUP3 PUSH2 0x3810 JUMP JUMPDEST SWAP2 SWAP1 POP JUMP JUMPDEST PUSH1 0x0 PUSH8 0xFFFFFFFFFFFFFFFF DUP3 GT ISZERO PUSH2 0x3877 JUMPI PUSH2 0x3876 PUSH2 0x37E1 JUMP JUMPDEST JUMPDEST PUSH2 0x3880 DUP3 PUSH2 0x37D0 JUMP JUMPDEST SWAP1 POP PUSH1 0x20 DUP2 ADD SWAP1 POP SWAP2 SWAP1 POP JUMP JUMPDEST DUP3 DUP2 DUP4 CALLDATACOPY PUSH1 0x0 DUP4 DUP4 ADD MSTORE POP POP POP JUMP JUMPDEST PUSH1 0x0 PUSH2 0x38AF PUSH2 0x38AA DUP5 PUSH2 0x385C JUMP JUMPDEST PUSH2 0x3841 JUMP JUMPDEST SWAP1 POP DUP3 DUP2 MSTORE PUSH1 0x20 DUP2 ADD DUP5 DUP5 DUP5 ADD GT ISZERO PUSH2 0x38CB JUMPI PUSH2 0x38CA PUSH2 0x37CB JUMP JUMPDEST JUMPDEST PUSH2 0x38D6 DUP5 DUP3 DUP6 PUSH2 0x388D JUMP JUMPDEST POP SWAP4 SWAP3 POP POP POP JUMP JUMPDEST PUSH1 0x0 DUP3 PUSH1 0x1F DUP4 ADD SLT PUSH2 0x38F3 JUMPI PUSH2 0x38F2 PUSH2 0x358A JUMP JUMPDEST JUMPDEST DUP2 CALLDATALOAD PUSH2 0x3903 DUP5 DUP3 PUSH1 0x20 DUP7 ADD PUSH2 0x389C JUMP JUMPDEST SWAP2 POP POP SWAP3 SWAP2 POP POP JUMP JUMPDEST PUSH1 0x0 PUSH1 0x20 DUP3 DUP5 SUB SLT ISZERO PUSH2 0x3922 JUMPI PUSH2 0x3921 PUSH2 0x3580 JUMP JUMPDEST JUMPDEST PUSH1 0x0 DUP3 ADD CALLDATALOAD PUSH8 0xFFFFFFFFFFFFFFFF DUP2 GT ISZERO PUSH2 0x3940 JUMPI PUSH2 0x393F PUSH2 0x3585 JUMP JUMPDEST JUMPDEST PUSH2 0x394C DUP5 DUP3 DUP6 ADD PUSH2 0x38DE JUMP JUMPDEST SWAP2 POP POP SWAP3 SWAP2 POP POP JUMP JUMPDEST PUSH1 0x0 DUP2 PUSH1 0x3 SIGNEXTEND SWAP1 POP SWAP2 SWAP1 POP JUMP JUMPDEST PUSH2 0x396B DUP2 PUSH2 0x3955 JUMP JUMPDEST DUP3 MSTORE POP POP JUMP JUMPDEST PUSH1 0x0 DUP2 SWAP1 POP SWAP2 SWAP1 POP JUMP JUMPDEST PUSH2 0x3984 DUP2 PUSH2 0x3971 JUMP JUMPDEST DUP3 MSTORE POP POP JUMP JUMPDEST PUSH1 0x0 DUP2 MLOAD SWAP1 POP SWAP2 SWAP1 POP JUMP JUMPDEST PUSH1 0x0 DUP3 DUP3 MSTORE PUSH1 0x20 DUP3 ADD SWAP1 POP SWAP3 SWAP2 POP POP JUMP JUMPDEST PUSH1 0x0 DUP2 SWAP1 POP PUSH1 0x20 DUP3 ADD SWAP1 POP SWAP2 SWAP1 POP JUMP JUMPDEST PUSH2 0x39BF DUP2 PUSH2 0x3971 JUMP JUMPDEST DUP3 MSTORE POP POP JUMP JUMPDEST PUSH1 0x0 PUSH2 0x39D1 DUP4 DUP4 PUSH2 0x39B6 JUMP JUMPDEST PUSH1 0x20 DUP4 ADD SWAP1 POP SWAP3 SWAP2 POP POP JUMP JUMPDEST PUSH1 0x0 PUSH1 0x20 DUP3 ADD SWAP1 POP SWAP2 SWAP1 POP JUMP JUMPDEST PUSH1 0x0 PUSH2 0x39F5 DUP3 PUSH2 0x398A JUMP JUMPDEST PUSH2 0x39FF DUP2 DUP6 PUSH2 0x3995 JUMP JUMPDEST SWAP4 POP PUSH2 0x3A0A DUP4 PUSH2 0x39A6 JUMP JUMPDEST DUP1 PUSH1 0x0 JUMPDEST DUP4 DUP2 LT ISZERO PUSH2 0x3A3B JUMPI DUP2 MLOAD PUSH2 0x3A22 DUP9 DUP3 PUSH2 0x39C5 JUMP JUMPDEST SWAP8 POP PUSH2 0x3A2D DUP4 PUSH2 0x39DD JUMP JUMPDEST SWAP3 POP POP PUSH1 0x1 DUP2 ADD SWAP1 POP PUSH2 0x3A0E JUMP JUMPDEST POP DUP6 SWAP4 POP POP POP POP SWAP3 SWAP2 POP POP JUMP JUMPDEST PUSH1 0x0 DUP2 MLOAD SWAP1 POP SWAP2 SWAP1 POP JUMP JUMPDEST PUSH1 0x0 DUP3 DUP3 MSTORE PUSH1 0x20 DUP3 ADD SWAP1 POP SWAP3 SWAP2 POP POP JUMP JUMPDEST PUSH1 0x0 DUP2 SWAP1 POP PUSH1 0x20 DUP3 ADD SWAP1 POP SWAP2 SWAP1 POP JUMP JUMPDEST PUSH2 0x3A7D DUP2 PUSH2 0x3736 JUMP JUMPDEST DUP3 MSTORE POP POP JUMP JUMPDEST PUSH1 0x0 PUSH2 0x3A8F DUP4 DUP4 PUSH2 0x3A74 JUMP JUMPDEST PUSH1 0x20 DUP4 ADD SWAP1 POP SWAP3 SWAP2 POP POP JUMP JUMPDEST PUSH1 0x0 PUSH1 0x20 DUP3 ADD SWAP1 POP SWAP2 SWAP1 POP JUMP JUMPDEST PUSH1 0x0 PUSH2 0x3AB3 DUP3 PUSH2 0x3A48 JUMP JUMPDEST PUSH2 0x3ABD DUP2 DUP6 PUSH2 0x3A53 JUMP JUMPDEST SWAP4 POP PUSH2 0x3AC8 DUP4 PUSH2 0x3A64 JUMP JUMPDEST DUP1 PUSH1 0x0 JUMPDEST DUP4 DUP2 LT ISZERO PUSH2 0x3AF9 JUMPI DUP2 MLOAD PUSH2 0x3AE0 DUP9 DUP3 PUSH2 0x3A83 JUMP JUMPDEST SWAP8 POP PUSH2 0x3AEB DUP4 PUSH2 0x3A9B JUMP JUMPDEST SWAP3 POP POP PUSH1 0x1 DUP2 ADD SWAP1 POP PUSH2 0x3ACC JUMP JUMPDEST POP DUP6 SWAP4 POP POP POP POP SWAP3 SWAP2 POP POP JUMP JUMPDEST PUSH1 0x0 DUP2 MLOAD SWAP1 POP SWAP2 SWAP1 POP JUMP JUMPDEST PUSH1 0x0 DUP3 DUP3 MSTORE PUSH1 0x20 DUP3 ADD SWAP1 POP SWAP3 SWAP2 POP POP JUMP JUMPDEST PUSH1 0x0 DUP2 SWAP1 POP PUSH1 0x20 DUP3 ADD SWAP1 POP SWAP2 SWAP1 POP JUMP JUMPDEST PUSH1 0x0 DUP2 MLOAD SWAP1 POP SWAP2 SWAP1 POP JUMP JUMPDEST PUSH1 0x0 DUP3 DUP3 MSTORE PUSH1 0x20 DUP3 ADD SWAP1 POP SWAP3 SWAP2 POP POP JUMP JUMPDEST PUSH1 0x0 JUMPDEST DUP4 DUP2 LT ISZERO PUSH2 0x3B6C JUMPI DUP1 DUP3 ADD MLOAD DUP2 DUP5 ADD MSTORE PUSH1 0x20 DUP2 ADD SWAP1 POP PUSH2 0x3B51 JUMP JUMPDEST PUSH1 0x0 DUP5 DUP5 ADD MSTORE POP POP POP POP JUMP JUMPDEST PUSH1 0x0 PUSH2 0x3B83 DUP3 PUSH2 0x3B32 JUMP JUMPDEST PUSH2 0x3B8D DUP2 DUP6 PUSH2 0x3B3D JUMP JUMPDEST SWAP4 POP PUSH2 0x3B9D DUP2 DUP6 PUSH1 0x20 DUP7 ADD PUSH2 0x3B4E JUMP JUMPDEST PUSH2 0x3BA6 DUP2 PUSH2 0x37D0 JUMP JUMPDEST DUP5 ADD SWAP2 POP POP SWAP3 SWAP2 POP POP JUMP JUMPDEST PUSH1 0x0 PUSH2 0x3BBD DUP4 DUP4 PUSH2 0x3B78 JUMP JUMPDEST SWAP1 POP SWAP3 SWAP2 POP POP JUMP JUMPDEST PUSH1 0x0 PUSH1 0x20 DUP3 ADD SWAP1 POP SWAP2 SWAP1 POP JUMP JUMPDEST PUSH1 0x0 PUSH2 0x3BDD DUP3 PUSH2 0x3B06 JUMP JUMPDEST PUSH2 0x3BE7 DUP2 DUP6 PUSH2 0x3B11 JUMP JUMPDEST SWAP4 POP DUP4 PUSH1 0x20 DUP3 MUL DUP6 ADD PUSH2 0x3BF9 DUP6 PUSH2 0x3B22 JUMP JUMPDEST DUP1 PUSH1 0x0 JUMPDEST DUP6 DUP2 LT ISZERO PUSH2 0x3C35 JUMPI DUP5 DUP5 SUB DUP10 MSTORE DUP2 MLOAD PUSH2 0x3C16 DUP6 DUP3 PUSH2 0x3BB1 JUMP JUMPDEST SWAP5 POP PUSH2 0x3C21 DUP4 PUSH2 0x3BC5 JUMP JUMPDEST SWAP3 POP PUSH1 0x20 DUP11 ADD SWAP10 POP POP PUSH1 0x1 DUP2 ADD SWAP1 POP PUSH2 0x3BFD JUMP JUMPDEST POP DUP3 SWAP8 POP DUP8 SWAP6 POP POP POP POP POP POP SWAP3 SWAP2 POP POP JUMP JUMPDEST PUSH1 0x0 PUSH2 0x100 DUP4 ADD PUSH1 0x0 DUP4 ADD MLOAD DUP5 DUP3 SUB PUSH1 0x0 DUP7 ADD MSTORE PUSH2 0x3C65 DUP3 DUP3 PUSH2 0x39EA JUMP JUMPDEST SWAP2 POP POP PUSH1 0x20 DUP4 ADD MLOAD DUP5 DUP3 SUB PUSH1 0x20 DUP7 ADD MSTORE PUSH2 0x3C7F DUP3 DUP3 PUSH2 0x3AA8 JUMP JUMPDEST SWAP2 POP POP PUSH1 0x40 DUP4 ADD MLOAD DUP5 DUP3 SUB PUSH1 0x40 DUP7 ADD MSTORE PUSH2 0x3C99 DUP3 DUP3 PUSH2 0x3BD2 JUMP JUMPDEST SWAP2 POP POP PUSH1 0x60 DUP4 ADD MLOAD DUP5 DUP3 SUB PUSH1 0x60 DUP7 ADD MSTORE PUSH2 0x3CB3 DUP3 DUP3 PUSH2 0x3BD2 JUMP JUMPDEST SWAP2 POP POP PUSH1 0x80 DUP4 ADD MLOAD DUP5 DUP3 SUB PUSH1 0x80 DUP7 ADD MSTORE PUSH2 0x3CCD DUP3 DUP3 PUSH2 0x3BD2 JUMP JUMPDEST SWAP2 POP POP PUSH1 0xA0 DUP4 ADD MLOAD PUSH2 0x3CE2 PUSH1 0xA0 DUP7 ADD DUP3 PUSH2 0x39B6 JUMP JUMPDEST POP PUSH1 0xC0 DUP4 ADD MLOAD PUSH2 0x3CF5 PUSH1 0xC0 DUP7 ADD DUP3 PUSH2 0x39B6 JUMP JUMPDEST POP PUSH1 0xE0 DUP4 ADD MLOAD PUSH2 0x3D08 PUSH1 0xE0 DUP7 ADD DUP3 PUSH2 0x39B6 JUMP JUMPDEST POP DUP1 SWAP2 POP POP SWAP3 SWAP2 POP POP JUMP JUMPDEST PUSH1 0x0 DUP2 PUSH1 0x7 SIGNEXTEND SWAP1 POP SWAP2 SWAP1 POP JUMP JUMPDEST PUSH2 0x3D29 DUP2 PUSH2 0x3D13 JUMP JUMPDEST DUP3 MSTORE POP POP JUMP JUMPDEST PUSH1 0x0 PUSH2 0x120 DUP3 ADD SWAP1 POP PUSH2 0x3D45 PUSH1 0x0 DUP4 ADD DUP13 PUSH2 0x3648 JUMP JUMPDEST PUSH2 0x3D52 PUSH1 0x20 DUP4 ADD DUP12 PUSH2 0x3962 JUMP JUMPDEST PUSH2 0x3D5F PUSH1 0x40 DUP4 ADD DUP11 PUSH2 0x3962 JUMP JUMPDEST PUSH2 0x3D6C PUSH1 0x60 DUP4 ADD DUP10 PUSH2 0x397B JUMP JUMPDEST PUSH2 0x3D79 PUSH1 0x80 DUP4 ADD DUP9 PUSH2 0x397B JUMP JUMPDEST PUSH2 0x3D86 PUSH1 0xA0 DUP4 ADD DUP8 PUSH2 0x397B JUMP JUMPDEST DUP2 DUP2 SUB PUSH1 0xC0 DUP4 ADD MSTORE PUSH2 0x3D98 DUP2 DUP7 PUSH2 0x3C47 JUMP JUMPDEST SWAP1 POP DUP2 DUP2 SUB PUSH1 0xE0 DUP4 ADD MSTORE PUSH2 0x3DAC DUP2 DUP6 PUSH2 0x3C47 JUMP JUMPDEST SWAP1 POP PUSH2 0x3DBC PUSH2 0x100 DUP4 ADD DUP5 PUSH2 0x3D20 JUMP JUMPDEST SWAP11 SWAP10 POP POP POP POP POP POP POP POP POP POP JUMP JUMPDEST PUSH1 0x0 DUP2 MLOAD SWAP1 POP SWAP2 SWAP1 POP JUMP JUMPDEST PUSH1 0x0 DUP3 DUP3 MSTORE PUSH1 0x20 DUP3 ADD SWAP1 POP SWAP3 SWAP2 POP POP JUMP JUMPDEST PUSH1 0x0 PUSH2 0x3DF1 DUP3 PUSH2 0x3DCA JUMP JUMPDEST PUSH2 0x3DFB DUP2 DUP6 PUSH2 0x3DD5 JUMP JUMPDEST SWAP4 POP PUSH2 0x3E0B DUP2 DUP6 PUSH1 0x20 DUP7 ADD PUSH2 0x3B4E JUMP JUMPDEST PUSH2 0x3E14 DUP2 PUSH2 0x37D0 JUMP JUMPDEST DUP5 ADD SWAP2 POP POP SWAP3 SWAP2 POP POP JUMP JUMPDEST PUSH1 0x0 PUSH1 0x20 DUP3 ADD SWAP1 POP DUP2 DUP2 SUB PUSH1 0x0 DUP4 ADD MSTORE PUSH2 0x3E39 DUP2 DUP5 PUSH2 0x3DE6 JUMP JUMPDEST SWAP1 POP SWAP3 SWAP2 POP POP JUMP JUMPDEST PUSH1 0x0 PUSH1 0x20 DUP3 ADD SWAP1 POP PUSH2 0x3E56 PUSH1 0x0 DUP4 ADD DUP5 PUSH2 0x397B JUMP JUMPDEST SWAP3 SWAP2 POP POP JUMP JUMPDEST PUSH2 0x3E65 DUP2 PUSH2 0x36DF JUMP JUMPDEST DUP2 EQ PUSH2 0x3E70 JUMPI PUSH1 0x0 DUP1 REVERT JUMPDEST POP JUMP JUMPDEST PUSH1 0x0 DUP2 CALLDATALOAD SWAP1 POP PUSH2 0x3E82 DUP2 PUSH2 0x3E5C JUMP JUMPDEST SWAP3 SWAP2 POP POP JUMP JUMPDEST PUSH1 0x0 PUSH1 0x20 DUP3 DUP5 SUB SLT ISZERO PUSH2 0x3E9E JUMPI PUSH2 0x3E9D PUSH2 0x3580 JUMP JUMPDEST JUMPDEST PUSH1 0x0 PUSH2 0x3EAC DUP5 DUP3 DUP6 ADD PUSH2 0x3E73 JUMP JUMPDEST SWAP2 POP POP SWAP3 SWAP2 POP POP JUMP JUMPDEST PUSH1 0x0 PUSH4 0xFFFFFFFF DUP3 AND SWAP1 POP SWAP2 SWAP1 POP JUMP JUMPDEST PUSH2 0x3ECE DUP2 PUSH2 0x3EB5 JUMP JUMPDEST DUP2 EQ PUSH2 0x3ED9 JUMPI PUSH1 0x0 DUP1 REVERT JUMPDEST POP JUMP JUMPDEST PUSH1 0x0 DUP2 CALLDATALOAD SWAP1 POP PUSH2 0x3EEB DUP2 PUSH2 0x3EC5 JUMP JUMPDEST SWAP3 SWAP2 POP POP JUMP JUMPDEST PUSH2 0x3EFA DUP2 PUSH2 0x3D13 JUMP JUMPDEST DUP2 EQ PUSH2 0x3F05 JUMPI PUSH1 0x0 DUP1 REVERT JUMPDEST POP JUMP JUMPDEST PUSH1 0x0 DUP2 CALLDATALOAD SWAP1 POP PUSH2 0x3F17 DUP2 PUSH2 0x3EF1 JUMP JUMPDEST SWAP3 SWAP2 POP POP JUMP JUMPDEST PUSH1 0x0 DUP1 PUSH1 0x0 DUP1 PUSH1 0x60 DUP6 DUP8 SUB SLT ISZERO PUSH2 0x3F37 JUMPI PUSH2 0x3F36 PUSH2 0x3580 JUMP JUMPDEST JUMPDEST PUSH1 0x0 DUP6 ADD CALLDATALOAD PUSH8 0xFFFFFFFFFFFFFFFF DUP2 GT ISZERO PUSH2 0x3F55 JUMPI PUSH2 0x3F54 PUSH2 0x3585 JUMP JUMPDEST JUMPDEST PUSH2 0x3F61 DUP8 DUP3 DUP9 ADD PUSH2 0x3599 JUMP JUMPDEST SWAP5 POP SWAP5 POP POP PUSH1 0x20 PUSH2 0x3F74 DUP8 DUP3 DUP9 ADD PUSH2 0x3EDC JUMP JUMPDEST SWAP3 POP POP PUSH1 0x40 PUSH2 0x3F85 DUP8 DUP3 DUP9 ADD PUSH2 0x3F08 JUMP JUMPDEST SWAP2 POP POP SWAP3 SWAP6 SWAP2 SWAP5 POP SWAP3 POP JUMP JUMPDEST PUSH2 0x3F9A DUP2 PUSH2 0x3971 JUMP JUMPDEST DUP2 EQ PUSH2 0x3FA5 JUMPI PUSH1 0x0 DUP1 REVERT JUMPDEST POP JUMP JUMPDEST PUSH1 0x0 DUP2 CALLDATALOAD SWAP1 POP PUSH2 0x3FB7 DUP2 PUSH2 0x3F91 JUMP JUMPDEST SWAP3 SWAP2 POP POP JUMP JUMPDEST PUSH1 0x0 DUP1 PUSH1 0x0 DUP1 PUSH1 0x60 DUP6 DUP8 SUB SLT ISZERO PUSH2 0x3FD7 JUMPI PUSH2 0x3FD6 PUSH2 0x3580 JUMP JUMPDEST JUMPDEST PUSH1 0x0 DUP6 ADD CALLDATALOAD PUSH8 0xFFFFFFFFFFFFFFFF DUP2 GT ISZERO PUSH2 0x3FF5 JUMPI PUSH2 0x3FF4 PUSH2 0x3585 JUMP JUMPDEST JUMPDEST PUSH2 0x4001 DUP8 DUP3 DUP9 ADD PUSH2 0x3599 JUMP JUMPDEST SWAP5 POP SWAP5 POP POP PUSH1 0x20 PUSH2 0x4014 DUP8 DUP3 DUP9 ADD PUSH2 0x3FA8 JUMP JUMPDEST SWAP3 POP POP PUSH1 0x40 PUSH2 0x4025 DUP8 DUP3 DUP9 ADD PUSH2 0x3FA8 JUMP JUMPDEST SWAP2 POP POP SWAP3 SWAP6 SWAP2 SWAP5 POP SWAP3 POP JUMP JUMPDEST PUSH2 0x403A DUP2 PUSH2 0x3955 JUMP JUMPDEST DUP2 EQ PUSH2 0x4045 JUMPI PUSH1 0x0 DUP1 REVERT JUMPDEST POP JUMP JUMPDEST PUSH1 0x0 DUP2 CALLDATALOAD SWAP1 POP PUSH2 0x4057 DUP2 PUSH2 0x4031 JUMP JUMPDEST SWAP3 SWAP2 POP POP JUMP JUMPDEST PUSH1 0x0 DUP1 PUSH1 0x0 DUP1 PUSH1 0x0 PUSH1 0x80 DUP7 DUP9 SUB SLT ISZERO PUSH2 0x4079 JUMPI PUSH2 0x4078 PUSH2 0x3580 JUMP JUMPDEST JUMPDEST PUSH1 0x0 DUP7 ADD CALLDATALOAD PUSH8 0xFFFFFFFFFFFFFFFF DUP2 GT ISZERO PUSH2 0x4097 JUMPI PUSH2 0x4096 PUSH2 0x3585 JUMP JUMPDEST JUMPDEST PUSH2 0x40A3 DUP9 DUP3 DUP10 ADD PUSH2 0x3599 JUMP JUMPDEST SWAP6 POP SWAP6 POP POP PUSH1 0x20 PUSH2 0x40B6 DUP9 DUP3 DUP10 ADD PUSH2 0x3F08 JUMP JUMPDEST SWAP4 POP POP PUSH1 0x40 PUSH2 0x40C7 DUP9 DUP3 DUP10 ADD PUSH2 0x4048 JUMP JUMPDEST SWAP3 POP POP PUSH1 0x60 PUSH2 0x40D8 DUP9 DUP3 DUP10 ADD PUSH2 0x3EDC JUMP JUMPDEST SWAP2 POP POP SWAP3 SWAP6 POP SWAP3 SWAP6 SWAP1 SWAP4 POP JUMP JUMPDEST PUSH1 0x0 DUP1 PUSH1 0x0 DUP1 PUSH1 0x0 PUSH1 0x80 DUP7 DUP9 SUB SLT ISZERO PUSH2 0x4101 JUMPI PUSH2 0x4100 PUSH2 0x3580 JUMP JUMPDEST JUMPDEST PUSH1 0x0 DUP7 ADD CALLDATALOAD PUSH8 0xFFFFFFFFFFFFFFFF DUP2 GT ISZERO PUSH2 0x411F JUMPI PUSH2 0x411E PUSH2 0x3585 JUMP JUMPDEST JUMPDEST PUSH2 0x412B DUP9 DUP3 DUP10 ADD PUSH2 0x3599 JUMP JUMPDEST SWAP6 POP SWAP6 POP POP PUSH1 0x20 PUSH2 0x413E DUP9 DUP3 DUP10 ADD PUSH2 0x3FA8 JUMP JUMPDEST SWAP4 POP POP PUSH1 0x40 PUSH2 0x414F DUP9 DUP3 DUP10 ADD PUSH2 0x3FA8 JUMP JUMPDEST SWAP3 POP POP PUSH1 0x60 PUSH2 0x4160 DUP9 DUP3 DUP10 ADD PUSH2 0x3FA8 JUMP JUMPDEST SWAP2 POP POP SWAP3 SWAP6 POP SWAP3 SWAP6 SWAP1 SWAP4 POP JUMP JUMPDEST PUSH1 0x0 DUP2 SWAP1 POP SWAP3 SWAP2 POP POP JUMP JUMPDEST PUSH1 0x0 PUSH2 0x4184 DUP4 DUP6 PUSH2 0x416D JUMP JUMPDEST SWAP4 POP PUSH2 0x4191 DUP4 DUP6 DUP5 PUSH2 0x388D JUMP JUMPDEST DUP3 DUP5 ADD SWAP1 POP SWAP4 SWAP3 POP POP POP JUMP JUMPDEST PUSH1 0x0 PUSH2 0x41AA DUP3 DUP5 DUP7 PUSH2 0x4178 JUMP JUMPDEST SWAP2 POP DUP2 SWAP1 POP SWAP4 SWAP3 POP POP POP JUMP JUMPDEST PUSH32 0x4E487B7100000000000000000000000000000000000000000000000000000000 PUSH1 0x0 MSTORE PUSH1 0x11 PUSH1 0x4 MSTORE PUSH1 0x24 PUSH1 0x0 REVERT JUMPDEST PUSH1 0x0 PUSH2 0x41F0 DUP3 PUSH2 0x3971 JUMP JUMPDEST SWAP2 POP PUSH2 0x41FB DUP4 PUSH2 0x3971 JUMP JUMPDEST SWAP3 POP DUP3 DUP3 ADD SWAP1 POP DUP1 DUP3 GT ISZERO PUSH2 0x4213 JUMPI PUSH2 0x4212 PUSH2 0x41B6 JUMP JUMPDEST JUMPDEST SWAP3 SWAP2 POP POP JUMP JUMPDEST PUSH1 0x0 DUP1 REVERT JUMPDEST PUSH1 0x0 DUP1 REVERT JUMPDEST PUSH1 0x0 DUP1 REVERT JUMPDEST PUSH1 0x0 DUP1 DUP4 CALLDATALOAD PUSH1 0x1 PUSH1 0x20 SUB DUP5 CALLDATASIZE SUB SUB DUP2 SLT PUSH2 0x4245 JUMPI PUSH2 0x4244 PUSH2 0x4219 JUMP JUMPDEST JUMPDEST DUP1 DUP5 ADD SWAP3 POP DUP3 CALLDATALOAD SWAP2 POP PUSH8 0xFFFFFFFFFFFFFFFF DUP3 GT ISZERO PUSH2 0x4267 JUMPI PUSH2 0x4266 PUSH2 0x421E JUMP JUMPDEST JUMPDEST PUSH1 0x20 DUP4 ADD SWAP3 POP PUSH1 0x1 DUP3 MUL CALLDATASIZE SUB DUP4 SGT ISZERO PUSH2 0x4283 JUMPI PUSH2 0x4282 PUSH2 0x4223 JUMP JUMPDEST JUMPDEST POP SWAP3 POP SWAP3 SWAP1 POP JUMP JUMPDEST PUSH1 0x0 DUP3 DUP3 MSTORE PUSH1 0x20 DUP3 ADD SWAP1 POP SWAP3 SWAP2 POP POP JUMP JUMPDEST PUSH32 0x5468697320706F6F6C20686173206120726F756E6420696E2070726F67726573 PUSH1 0x0 DUP3 ADD MSTORE PUSH32 0x7300000000000000000000000000000000000000000000000000000000000000 PUSH1 0x20 DUP3 ADD MSTORE POP JUMP JUMPDEST PUSH1 0x0 PUSH2 0x42F8 PUSH1 0x21 DUP4 PUSH2 0x428B JUMP JUMPDEST SWAP2 POP PUSH2 0x4303 DUP3 PUSH2 0x429C JUMP JUMPDEST PUSH1 0x40 DUP3 ADD SWAP1 POP SWAP2 SWAP1 POP JUMP JUMPDEST PUSH1 0x0 PUSH1 0x20 DUP3 ADD SWAP1 POP DUP2 DUP2 SUB PUSH1 0x0 DUP4 ADD MSTORE PUSH2 0x4327 DUP2 PUSH2 0x42EB JUMP JUMPDEST SWAP1 POP SWAP2 SWAP1 POP JUMP JUMPDEST PUSH32 0x5468652067616D65206973206E6F742072756E6E696E67000000000000000000 PUSH1 0x0 DUP3 ADD MSTORE POP JUMP JUMPDEST PUSH1 0x0 PUSH2 0x4364 PUSH1 0x17 DUP4 PUSH2 0x428B JUMP JUMPDEST SWAP2 POP PUSH2 0x436F DUP3 PUSH2 0x432E JUMP JUMPDEST PUSH1 0x20 DUP3 ADD SWAP1 POP SWAP2 SWAP1 POP JUMP JUMPDEST PUSH1 0x0 PUSH1 0x20 DUP3 ADD SWAP1 POP DUP2 DUP2 SUB PUSH1 0x0 DUP4 ADD MSTORE PUSH2 0x4393 DUP2 PUSH2 0x4357 JUMP JUMPDEST SWAP1 POP SWAP2 SWAP1 POP JUMP JUMPDEST PUSH32 0x506F6F6C20646F6573206E6F7420657869737400000000000000000000000000 PUSH1 0x0 DUP3 ADD MSTORE POP JUMP JUMPDEST PUSH1 0x0 PUSH2 0x43D0 PUSH1 0x13 DUP4 PUSH2 0x428B JUMP JUMPDEST SWAP2 POP PUSH2 0x43DB DUP3 PUSH2 0x439A JUMP JUMPDEST PUSH1 0x20 DUP3 ADD SWAP1 POP SWAP2 SWAP1 POP JUMP JUMPDEST PUSH1 0x0 PUSH1 0x20 DUP3 ADD SWAP1 POP DUP2 DUP2 SUB PUSH1 0x0 DUP4 ADD MSTORE PUSH2 0x43FF DUP2 PUSH2 0x43C3 JUMP JUMPDEST SWAP1 POP SWAP2 SWAP1 POP JUMP JUMPDEST PUSH32 0x6D75737420626520454F41000000000000000000000000000000000000000000 PUSH1 0x0 DUP3 ADD MSTORE POP JUMP JUMPDEST PUSH1 0x0 PUSH2 0x443C PUSH1 0xB DUP4 PUSH2 0x428B JUMP JUMPDEST SWAP2 POP PUSH2 0x4447 DUP3 PUSH2 0x4406 JUMP JUMPDEST PUSH1 0x20 DUP3 ADD SWAP1 POP SWAP2 SWAP1 POP JUMP JUMPDEST PUSH1 0x0 PUSH1 0x20 DUP3 ADD SWAP1 POP DUP2 DUP2 SUB PUSH1 0x0 DUP4 ADD MSTORE PUSH2 0x446B DUP2 PUSH2 0x442F JUMP JUMPDEST SWAP1 POP SWAP2 SWAP1 POP JUMP JUMPDEST PUSH32 0x76616C7565206D7573742062652067726561746572207468616E207A65726F00 PUSH1 0x0 DUP3 ADD MSTORE POP JUMP JUMPDEST PUSH1 0x0 PUSH2 0x44A8 PUSH1 0x1F DUP4 PUSH2 0x428B JUMP JUMPDEST SWAP2 POP PUSH2 0x44B3 DUP3 PUSH2 0x4472 JUMP JUMPDEST PUSH1 0x20 DUP3 ADD SWAP1 POP SWAP2 SWAP1 POP JUMP JUMPDEST PUSH1 0x0 PUSH1 0x20 DUP3 ADD SWAP1 POP DUP2 DUP2 SUB PUSH1 0x0 DUP4 ADD MSTORE PUSH2 0x44D7 DUP2 PUSH2 0x449B JUMP JUMPDEST SWAP1 POP SWAP2 SWAP1 POP JUMP JUMPDEST PUSH32 0x616D6F756E742073686F756C6420626520686967686572207468616E20746865 PUSH1 0x0 DUP3 ADD MSTORE PUSH32 0x206D696E696D756D000000000000000000000000000000000000000000000000 PUSH1 0x20 DUP3 ADD MSTORE POP JUMP JUMPDEST PUSH1 0x0 PUSH2 0x453A PUSH1 0x28 DUP4 PUSH2 0x428B JUMP JUMPDEST SWAP2 POP PUSH2 0x4545 DUP3 PUSH2 0x44DE JUMP JUMPDEST PUSH1 0x40 DUP3 ADD SWAP1 POP SWAP2 SWAP1 POP JUMP JUMPDEST PUSH1 0x0 PUSH1 0x20 DUP3 ADD SWAP1 POP DUP2 DUP2 SUB PUSH1 0x0 DUP4 ADD MSTORE PUSH2 0x4569 DUP2 PUSH2 0x452D JUMP JUMPDEST SWAP1 POP SWAP2 SWAP1 POP JUMP JUMPDEST PUSH32 0x616D6F756E742073686F756C64206265206C6F776572207468616E2074686520 PUSH1 0x0 DUP3 ADD MSTORE PUSH32 0x6D6178696D756D00000000000000000000000000000000000000000000000000 PUSH1 0x20 DUP3 ADD MSTORE POP JUMP JUMPDEST PUSH1 0x0 PUSH2 0x45CC PUSH1 0x27 DUP4 PUSH2 0x428B JUMP JUMPDEST SWAP2 POP PUSH2 0x45D7 DUP3 PUSH2 0x4570 JUMP JUMPDEST PUSH1 0x40 DUP3 ADD SWAP1 POP SWAP2 SWAP1 POP JUMP JUMPDEST PUSH1 0x0 PUSH1 0x20 DUP3 ADD SWAP1 POP DUP2 DUP2 SUB PUSH1 0x0 DUP4 ADD MSTORE PUSH2 0x45FB DUP2 PUSH2 0x45BF JUMP JUMPDEST SWAP1 POP SWAP2 SWAP1 POP JUMP JUMPDEST PUSH2 0x460B DUP2 PUSH2 0x363C JUMP JUMPDEST DUP2 EQ PUSH2 0x4616 JUMPI PUSH1 0x0 DUP1 REVERT JUMPDEST POP JUMP JUMPDEST PUSH1 0x0 DUP2 CALLDATALOAD SWAP1 POP PUSH2 0x4628 DUP2 PUSH2 0x4602 JUMP JUMPDEST SWAP3 SWAP2 POP POP JUMP JUMPDEST PUSH1 0x0 PUSH1 0x20 DUP3 DUP5 SUB SLT ISZERO PUSH2 0x4644 JUMPI PUSH2 0x4643 PUSH2 0x3580 JUMP JUMPDEST JUMPDEST PUSH1 0x0 PUSH2 0x4652 DUP5 DUP3 DUP6 ADD PUSH2 0x4619 JUMP JUMPDEST SWAP2 POP POP SWAP3 SWAP2 POP POP JUMP JUMPDEST PUSH1 0x0 PUSH2 0x4666 DUP3 PUSH2 0x3971 JUMP JUMPDEST SWAP2 POP PUSH2 0x4671 DUP4 PUSH2 0x3971 JUMP JUMPDEST SWAP3 POP DUP3 DUP3 SUB SWAP1 POP DUP2 DUP2 GT ISZERO PUSH2 0x4689 JUMPI PUSH2 0x4688 PUSH2 0x41B6 JUMP JUMPDEST JUMPDEST SWAP3 SWAP2 POP POP JUMP JUMPDEST PUSH32 0x506F6F6C2069732066756C6C2C207761697420666F72206E65787420726F756E PUSH1 0x0 DUP3 ADD MSTORE PUSH32 0x6400000000000000000000000000000000000000000000000000000000000000 PUSH1 0x20 DUP3 ADD MSTORE POP JUMP JUMPDEST PUSH1 0x0 PUSH2 0x46EB PUSH1 0x21 DUP4 PUSH2 0x428B JUMP JUMPDEST SWAP2 POP PUSH2 0x46F6 DUP3 PUSH2 0x468F JUMP JUMPDEST PUSH1 0x40 DUP3 ADD SWAP1 POP SWAP2 SWAP1 POP JUMP JUMPDEST PUSH1 0x0 PUSH1 0x20 DUP3 ADD SWAP1 POP DUP2 DUP2 SUB PUSH1 0x0 DUP4 ADD MSTORE PUSH2 0x471A DUP2 PUSH2 0x46DE JUMP JUMPDEST SWAP1 POP SWAP2 SWAP1 POP JUMP JUMPDEST PUSH1 0x0 DUP1 DUP4 CALLDATALOAD PUSH1 0x1 PUSH1 0x20 SUB DUP5 CALLDATASIZE SUB SUB DUP2 SLT PUSH2 0x473E JUMPI PUSH2 0x473D PUSH2 0x4219 JUMP JUMPDEST JUMPDEST DUP1 DUP5 ADD SWAP3 POP DUP3 CALLDATALOAD SWAP2 POP PUSH8 0xFFFFFFFFFFFFFFFF DUP3 GT ISZERO PUSH2 0x4760 JUMPI PUSH2 0x475F PUSH2 0x421E JUMP JUMPDEST JUMPDEST PUSH1 0x20 DUP4 ADD SWAP3 POP PUSH1 0x1 DUP3 MUL CALLDATASIZE SUB DUP4 SGT ISZERO PUSH2 0x477C JUMPI PUSH2 0x477B PUSH2 0x4223 JUMP JUMPDEST JUMPDEST POP SWAP3 POP SWAP3 SWAP1 POP JUMP JUMPDEST PUSH1 0x0 PUSH2 0x4790 DUP4 DUP6 PUSH2 0x3DD5 JUMP JUMPDEST SWAP4 POP PUSH2 0x479D DUP4 DUP6 DUP5 PUSH2 0x388D JUMP JUMPDEST PUSH2 0x47A6 DUP4 PUSH2 0x37D0 JUMP JUMPDEST DUP5 ADD SWAP1 POP SWAP4 SWAP3 POP POP POP JUMP JUMPDEST PUSH1 0x0 PUSH2 0x47BC DUP3 PUSH2 0x3B32 JUMP JUMPDEST PUSH2 0x47C6 DUP2 DUP6 PUSH2 0x428B JUMP JUMPDEST SWAP4 POP PUSH2 0x47D6 DUP2 DUP6 PUSH1 0x20 DUP7 ADD PUSH2 0x3B4E JUMP JUMPDEST PUSH2 0x47DF DUP2 PUSH2 0x37D0 JUMP JUMPDEST DUP5 ADD SWAP2 POP POP SWAP3 SWAP2 POP POP JUMP JUMPDEST PUSH1 0x0 PUSH2 0x140 DUP3 ADD SWAP1 POP DUP2 DUP2 SUB PUSH1 0x0 DUP4 ADD MSTORE PUSH2 0x4806 DUP2 DUP14 DUP16 PUSH2 0x4784 JUMP JUMPDEST SWAP1 POP PUSH2 0x4815 PUSH1 0x20 DUP4 ADD DUP13 PUSH2 0x37A1 JUMP JUMPDEST PUSH2 0x4822 PUSH1 0x40 DUP4 ADD DUP12 PUSH2 0x397B JUMP JUMPDEST DUP2 DUP2 SUB PUSH1 0x60 DUP4 ADD MSTORE PUSH2 0x4834 DUP2 DUP11 PUSH2 0x47B1 JUMP JUMPDEST SWAP1 POP PUSH2 0x4843 PUSH1 0x80 DUP4 ADD DUP10 PUSH2 0x397B JUMP JUMPDEST DUP2 DUP2 SUB PUSH1 0xA0 DUP4 ADD MSTORE PUSH2 0x4855 DUP2 DUP9 PUSH2 0x47B1 JUMP JUMPDEST SWAP1 POP DUP2 DUP2 SUB PUSH1 0xC0 DUP4 ADD MSTORE PUSH2 0x4869 DUP2 DUP8 PUSH2 0x47B1 JUMP JUMPDEST SWAP1 POP PUSH2 0x4878 PUSH1 0xE0 DUP4 ADD DUP7 PUSH2 0x3D20 JUMP JUMPDEST DUP2 DUP2 SUB PUSH2 0x100 DUP4 ADD MSTORE PUSH2 0x488B DUP2 DUP6 PUSH2 0x47B1 JUMP JUMPDEST SWAP1 POP DUP2 DUP2 SUB PUSH2 0x120 DUP4 ADD MSTORE PUSH2 0x48A0 DUP2 DUP5 PUSH2 0x47B1 JUMP JUMPDEST SWAP1 POP SWAP13 SWAP12 POP POP POP POP POP POP POP POP POP POP POP POP JUMP JUMPDEST PUSH32 0x4E487B7100000000000000000000000000000000000000000000000000000000 PUSH1 0x0 MSTORE PUSH1 0x22 PUSH1 0x4 MSTORE PUSH1 0x24 PUSH1 0x0 REVERT JUMPDEST PUSH1 0x0 PUSH1 0x2 DUP3 DIV SWAP1 POP PUSH1 0x1 DUP3 AND DUP1 PUSH2 0x48F9 JUMPI PUSH1 0x7F DUP3 AND SWAP2 POP JUMPDEST PUSH1 0x20 DUP3 LT DUP2 SUB PUSH2 0x490C JUMPI PUSH2 0x490B PUSH2 0x48B2 JUMP JUMPDEST JUMPDEST POP SWAP2 SWAP1 POP JUMP JUMPDEST PUSH32 0x57726F6E67206A61636B706F74206665652070657263656E746167652076616C PUSH1 0x0 DUP3 ADD MSTORE PUSH32 0x7565000000000000000000000000000000000000000000000000000000000000 PUSH1 0x20 DUP3 ADD MSTORE POP JUMP JUMPDEST PUSH1 0x0 PUSH2 0x496E PUSH1 0x22 DUP4 PUSH2 0x428B JUMP JUMPDEST SWAP2 POP PUSH2 0x4979 DUP3 PUSH2 0x4912 JUMP JUMPDEST PUSH1 0x40 DUP3 ADD SWAP1 POP SWAP2 SWAP1 POP JUMP JUMPDEST PUSH1 0x0 PUSH1 0x20 DUP3 ADD SWAP1 POP DUP2 DUP2 SUB PUSH1 0x0 DUP4 ADD MSTORE PUSH2 0x499D DUP2 PUSH2 0x4961 JUMP JUMPDEST SWAP1 POP SWAP2 SWAP1 POP JUMP JUMPDEST PUSH32 0x4F6E6C792067616D6520636F6E74726F6C6C65722063616E20646F2074686973 PUSH1 0x0 DUP3 ADD MSTORE POP JUMP JUMPDEST PUSH1 0x0 PUSH2 0x49DA PUSH1 0x20 DUP4 PUSH2 0x428B JUMP JUMPDEST SWAP2 POP PUSH2 0x49E5 DUP3 PUSH2 0x49A4 JUMP JUMPDEST PUSH1 0x20 DUP3 ADD SWAP1 POP SWAP2 SWAP1 POP JUMP JUMPDEST PUSH1 0x0 PUSH1 0x20 DUP3 ADD SWAP1 POP DUP2 DUP2 SUB PUSH1 0x0 DUP4 ADD MSTORE PUSH2 0x4A09 DUP2 PUSH2 0x49CD JUMP JUMPDEST SWAP1 POP SWAP2 SWAP1 POP JUMP JUMPDEST PUSH1 0x0 PUSH1 0xA0 DUP3 ADD SWAP1 POP DUP2 DUP2 SUB PUSH1 0x0 DUP4 ADD MSTORE PUSH2 0x4A2B DUP2 DUP9 DUP11 PUSH2 0x4784 JUMP JUMPDEST SWAP1 POP PUSH2 0x4A3A PUSH1 0x20 DUP4 ADD DUP8 PUSH2 0x397B JUMP JUMPDEST PUSH2 0x4A47 PUSH1 0x40 DUP4 ADD DUP7 PUSH2 0x397B JUMP JUMPDEST PUSH2 0x4A54 PUSH1 0x60 DUP4 ADD DUP6 PUSH2 0x397B JUMP JUMPDEST PUSH2 0x4A61 PUSH1 0x80 DUP4 ADD DUP5 PUSH2 0x3D20 JUMP JUMPDEST SWAP8 SWAP7 POP POP POP POP POP POP POP JUMP JUMPDEST PUSH32 0x4E487B7100000000000000000000000000000000000000000000000000000000 PUSH1 0x0 MSTORE PUSH1 0x32 PUSH1 0x4 MSTORE PUSH1 0x24 PUSH1 0x0 REVERT JUMPDEST PUSH1 0x0 PUSH2 0x4AA6 DUP3 PUSH2 0x3971 JUMP JUMPDEST SWAP2 POP PUSH2 0x4AB1 DUP4 PUSH2 0x3971 JUMP JUMPDEST SWAP3 POP DUP3 DUP3 MUL PUSH2 0x4ABF DUP2 PUSH2 0x3971 JUMP JUMPDEST SWAP2 POP DUP3 DUP3 DIV DUP5 EQ DUP4 ISZERO OR PUSH2 0x4AD6 JUMPI PUSH2 0x4AD5 PUSH2 0x41B6 JUMP JUMPDEST JUMPDEST POP SWAP3 SWAP2 POP POP JUMP JUMPDEST PUSH32 0x4E487B7100000000000000000000000000000000000000000000000000000000 PUSH1 0x0 MSTORE PUSH1 0x12 PUSH1 0x4 MSTORE PUSH1 0x24 PUSH1 0x0 REVERT JUMPDEST PUSH1 0x0 PUSH2 0x4B17 DUP3 PUSH2 0x3971 JUMP JUMPDEST SWAP2 POP PUSH2 0x4B22 DUP4 PUSH2 0x3971 JUMP JUMPDEST SWAP3 POP DUP3 PUSH2 0x4B32 JUMPI PUSH2 0x4B31 PUSH2 0x4ADD JUMP JUMPDEST JUMPDEST DUP3 DUP3 DIV SWAP1 POP SWAP3 SWAP2 POP POP JUMP JUMPDEST PUSH1 0x0 DUP2 SWAP1 POP DUP2 PUSH1 0x0 MSTORE PUSH1 0x20 PUSH1 0x0 KECCAK256 SWAP1 POP SWAP2 SWAP1 POP JUMP JUMPDEST PUSH1 0x0 DUP2 SLOAD PUSH2 0x4B5F DUP2 PUSH2 0x48E1 JUMP JUMPDEST PUSH2 0x4B69 DUP2 DUP7 PUSH2 0x428B JUMP JUMPDEST SWAP5 POP PUSH1 0x1 DUP3 AND PUSH1 0x0 DUP2 EQ PUSH2 0x4B84 JUMPI PUSH1 0x1 DUP2 EQ PUSH2 0x4B9A JUMPI PUSH2 0x4BCD JUMP JUMPDEST PUSH1 0xFF NOT DUP4 AND DUP7 MSTORE DUP2 ISZERO ISZERO PUSH1 0x20 MUL DUP7 ADD SWAP4 POP PUSH2 0x4BCD JUMP JUMPDEST PUSH2 0x4BA3 DUP6 PUSH2 0x4B3D JUMP JUMPDEST PUSH1 0x0 JUMPDEST DUP4 DUP2 LT ISZERO PUSH2 0x4BC5 JUMPI DUP2 SLOAD DUP2 DUP10 ADD MSTORE PUSH1 0x1 DUP3 ADD SWAP2 POP PUSH1 0x20 DUP2 ADD SWAP1 POP PUSH2 0x4BA6 JUMP JUMPDEST DUP1 DUP9 ADD SWAP6 POP POP POP JUMPDEST POP POP POP SWAP3 SWAP2 POP POP JUMP JUMPDEST PUSH1 0x0 PUSH1 0xE0 DUP3 ADD SWAP1 POP DUP2 DUP2 SUB PUSH1 0x0 DUP4 ADD MSTORE PUSH2 0x4BF1 DUP2 DUP11 DUP13 PUSH2 0x4784 JUMP JUMPDEST SWAP1 POP PUSH2 0x4C00 PUSH1 0x20 DUP4 ADD DUP10 PUSH2 0x37A1 JUMP JUMPDEST PUSH2 0x4C0D PUSH1 0x40 DUP4 ADD DUP9 PUSH2 0x397B JUMP JUMPDEST PUSH2 0x4C1A PUSH1 0x60 DUP4 ADD DUP8 PUSH2 0x397B JUMP JUMPDEST DUP2 DUP2 SUB PUSH1 0x80 DUP4 ADD MSTORE PUSH2 0x4C2C DUP2 DUP7 PUSH2 0x4B52 JUMP JUMPDEST SWAP1 POP PUSH2 0x4C3B PUSH1 0xA0 DUP4 ADD DUP6 PUSH2 0x36EC JUMP JUMPDEST PUSH2 0x4C48 PUSH1 0xC0 DUP4 ADD DUP5 PUSH2 0x36EC JUMP JUMPDEST SWAP10 SWAP9 POP POP POP POP POP POP POP POP POP JUMP JUMPDEST PUSH32 0x4D696E696D756D2062657420616D6F756E74206D757374206265206C65737320 PUSH1 0x0 DUP3 ADD MSTORE PUSH32 0x7468616E206D6178696D756D2062657420616D6F756E74000000000000000000 PUSH1 0x20 DUP3 ADD MSTORE POP JUMP JUMPDEST PUSH1 0x0 PUSH2 0x4CB1 PUSH1 0x37 DUP4 PUSH2 0x428B JUMP JUMPDEST SWAP2 POP PUSH2 0x4CBC DUP3 PUSH2 0x4C55 JUMP JUMPDEST PUSH1 0x40 DUP3 ADD SWAP1 POP SWAP2 SWAP1 POP JUMP JUMPDEST PUSH1 0x0 PUSH1 0x20 DUP3 ADD SWAP1 POP DUP2 DUP2 SUB PUSH1 0x0 DUP4 ADD MSTORE PUSH2 0x4CE0 DUP2 PUSH2 0x4CA4 JUMP JUMPDEST SWAP1 POP SWAP2 SWAP1 POP JUMP JUMPDEST PUSH32 0x5468652067616D65206973206E6F742072756E6E696E672C20726F756E647320 PUSH1 0x0 DUP3 ADD MSTORE PUSH32 0x63616E206F6E6C7920626520656E646564206174207468697320706F696E7400 PUSH1 0x20 DUP3 ADD MSTORE POP JUMP JUMPDEST PUSH1 0x0 PUSH2 0x4D43 PUSH1 0x3F DUP4 PUSH2 0x428B JUMP JUMPDEST SWAP2 POP PUSH2 0x4D4E DUP3 PUSH2 0x4CE7 JUMP JUMPDEST PUSH1 0x40 DUP3 ADD SWAP1 POP SWAP2 SWAP1 POP JUMP JUMPDEST PUSH1 0x0 PUSH1 0x20 DUP3 ADD SWAP1 POP DUP2 DUP2 SUB PUSH1 0x0 DUP4 ADD MSTORE PUSH2 0x4D72 DUP2 PUSH2 0x4D36 JUMP JUMPDEST SWAP1 POP SWAP2 SWAP1 POP JUMP JUMPDEST PUSH1 0x0 PUSH1 0xC0 DUP3 ADD SWAP1 POP DUP2 DUP2 SUB PUSH1 0x0 DUP4 ADD MSTORE PUSH2 0x4D94 DUP2 DUP10 DUP12 PUSH2 0x4784 JUMP JUMPDEST SWAP1 POP PUSH2 0x4DA3 PUSH1 0x20 DUP4 ADD DUP9 PUSH2 0x3D20 JUMP JUMPDEST PUSH2 0x4DB0 PUSH1 0x40 DUP4 ADD DUP8 PUSH2 0x3962 JUMP JUMPDEST PUSH2 0x4DBD PUSH1 0x60 DUP4 ADD DUP7 PUSH2 0x397B JUMP JUMPDEST PUSH2 0x4DCA PUSH1 0x80 DUP4 ADD DUP6 PUSH2 0x397B JUMP JUMPDEST PUSH2 0x4DD7 PUSH1 0xA0 DUP4 ADD DUP5 PUSH2 0x397B JUMP JUMPDEST SWAP9 SWAP8 POP POP POP POP POP POP POP POP JUMP JUMPDEST PUSH1 0x0 PUSH1 0x80 DUP3 ADD SWAP1 POP DUP2 DUP2 SUB PUSH1 0x0 DUP4 ADD MSTORE PUSH2 0x4DFE DUP2 DUP8 DUP10 PUSH2 0x4784 JUMP JUMPDEST SWAP1 POP PUSH2 0x4E0D PUSH1 0x20 DUP4 ADD DUP7 PUSH2 0x3D20 JUMP JUMPDEST PUSH2 0x4E1A PUSH1 0x40 DUP4 ADD DUP6 PUSH2 0x3962 JUMP JUMPDEST PUSH2 0x4E27 PUSH1 0x60 DUP4 ADD DUP5 PUSH2 0x3962 JUMP JUMPDEST SWAP7 SWAP6 POP POP POP POP POP POP JUMP JUMPDEST PUSH32 0x57726F6E672053657276696365206665652070657263656E746167652076616C PUSH1 0x0 DUP3 ADD MSTORE PUSH32 0x7565000000000000000000000000000000000000000000000000000000000000 PUSH1 0x20 DUP3 ADD MSTORE POP JUMP JUMPDEST PUSH1 0x0 PUSH2 0x4E8D PUSH1 0x22 DUP4 PUSH2 0x428B JUMP JUMPDEST SWAP2 POP PUSH2 0x4E98 DUP3 PUSH2 0x4E31 JUMP JUMPDEST PUSH1 0x40 DUP3 ADD SWAP1 POP SWAP2 SWAP1 POP JUMP JUMPDEST PUSH1 0x0 PUSH1 0x20 DUP3 ADD SWAP1 POP DUP2 DUP2 SUB PUSH1 0x0 DUP4 ADD MSTORE PUSH2 0x4EBC DUP2 PUSH2 0x4E80 JUMP JUMPDEST SWAP1 POP SWAP2 SWAP1 POP JUMP JUMPDEST PUSH32 0x57726F6E67206665652070657263656E746167652076616C7565000000000000 PUSH1 0x0 DUP3 ADD MSTORE POP JUMP JUMPDEST PUSH1 0x0 PUSH2 0x4EF9 PUSH1 0x1A DUP4 PUSH2 0x428B JUMP JUMPDEST SWAP2 POP PUSH2 0x4F04 DUP3 PUSH2 0x4EC3 JUMP JUMPDEST PUSH1 0x20 DUP3 ADD SWAP1 POP SWAP2 SWAP1 POP JUMP JUMPDEST PUSH1 0x0 PUSH1 0x20 DUP3 ADD SWAP1 POP DUP2 DUP2 SUB PUSH1 0x0 DUP4 ADD MSTORE PUSH2 0x4F28 DUP2 PUSH2 0x4EEC JUMP JUMPDEST SWAP1 POP SWAP2 SWAP1 POP JUMP JUMPDEST PUSH1 0x0 DUP2 SWAP1 POP DUP2 PUSH1 0x0 MSTORE PUSH1 0x20 PUSH1 0x0 KECCAK256 SWAP1 POP SWAP2 SWAP1 POP JUMP JUMPDEST PUSH1 0x0 PUSH1 0x20 PUSH1 0x1F DUP4 ADD DIV SWAP1 POP SWAP2 SWAP1 POP JUMP JUMPDEST PUSH1 0x0 DUP3 DUP3 SHL SWAP1 POP SWAP3 SWAP2 POP POP JUMP JUMPDEST PUSH1 0x0 PUSH1 0x8 DUP4 MUL PUSH2 0x4F91 PUSH32 0xFFFFFFFFFFFFFFFFFFFFFFFFFFFFFFFFFFFFFFFFFFFFFFFFFFFFFFFFFFFFFFFF DUP3 PUSH2 0x4F54 JUMP JUMPDEST PUSH2 0x4F9B DUP7 DUP4 PUSH2 0x4F54 JUMP JUMPDEST SWAP6 POP DUP1 NOT DUP5 AND SWAP4 POP DUP1 DUP7 AND DUP5 OR SWAP3 POP POP POP SWAP4 SWAP3 POP POP POP JUMP JUMPDEST PUSH1 0x0 DUP2 SWAP1 POP SWAP2 SWAP1 POP JUMP JUMPDEST PUSH1 0x0 PUSH2 0x4FD8 PUSH2 0x4FD3 PUSH2 0x4FCE DUP5 PUSH2 0x3971 JUMP JUMPDEST PUSH2 0x4FB3 JUMP JUMPDEST PUSH2 0x3971 JUMP JUMPDEST SWAP1 POP SWAP2 SWAP1 POP JUMP JUMPDEST PUSH1 0x0 DUP2 SWAP1 POP SWAP2 SWAP1 POP JUMP JUMPDEST PUSH2 0x4FF2 DUP4 PUSH2 0x4FBD JUMP JUMPDEST PUSH2 0x5006 PUSH2 0x4FFE DUP3 PUSH2 0x4FDF JUMP JUMPDEST DUP5 DUP5 SLOAD PUSH2 0x4F61 JUMP JUMPDEST DUP3 SSTORE POP POP POP POP JUMP JUMPDEST PUSH1 0x0 SWAP1 JUMP JUMPDEST PUSH2 0x501B PUSH2 0x500E JUMP JUMPDEST PUSH2 0x5026 DUP2 DUP5 DUP5 PUSH2 0x4FE9 JUMP JUMPDEST POP POP POP JUMP JUMPDEST JUMPDEST DUP2 DUP2 LT ISZERO PUSH2 0x504A JUMPI PUSH2 0x503F PUSH1 0x0 DUP3 PUSH2 0x5013 JUMP JUMPDEST PUSH1 0x1 DUP2 ADD SWAP1 POP PUSH2 0x502C JUMP JUMPDEST POP POP JUMP JUMPDEST PUSH1 0x1F DUP3 GT ISZERO PUSH2 0x508F JUMPI PUSH2 0x5060 DUP2 PUSH2 0x4F2F JUMP JUMPDEST PUSH2 0x5069 DUP5 PUSH2 0x4F44 JUMP JUMPDEST DUP2 ADD PUSH1 0x20 DUP6 LT ISZERO PUSH2 0x5078 JUMPI DUP2 SWAP1 POP JUMPDEST PUSH2 0x508C PUSH2 0x5084 DUP6 PUSH2 0x4F44 JUMP JUMPDEST DUP4 ADD DUP3 PUSH2 0x502B JUMP JUMPDEST POP POP JUMPDEST POP POP POP JUMP JUMPDEST PUSH1 0x0 DUP3 DUP3 SHR SWAP1 POP SWAP3 SWAP2 POP POP JUMP JUMPDEST PUSH1 0x0 PUSH2 0x50B2 PUSH1 0x0 NOT DUP5 PUSH1 0x8 MUL PUSH2 0x5094 JUMP JUMPDEST NOT DUP1 DUP4 AND SWAP2 POP POP SWAP3 SWAP2 POP POP JUMP JUMPDEST PUSH1 0x0 PUSH2 0x50CB DUP4 DUP4 PUSH2 0x50A1 JUMP JUMPDEST SWAP2 POP DUP3 PUSH1 0x2 MUL DUP3 OR SWAP1 POP SWAP3 SWAP2 POP POP JUMP JUMPDEST PUSH2 0x50E4 DUP3 PUSH2 0x3B32 JUMP JUMPDEST PUSH8 0xFFFFFFFFFFFFFFFF DUP2 GT ISZERO PUSH2 0x50FD JUMPI PUSH2 0x50FC PUSH2 0x37E1 JUMP JUMPDEST JUMPDEST PUSH2 0x5107 DUP3 SLOAD PUSH2 0x48E1 JUMP JUMPDEST PUSH2 0x5112 DUP3 DUP3 DUP6 PUSH2 0x504E JUMP JUMPDEST PUSH1 0x0 PUSH1 0x20 SWAP1 POP PUSH1 0x1F DUP4 GT PUSH1 0x1 DUP2 EQ PUSH2 0x5145 JUMPI PUSH1 0x0 DUP5 ISZERO PUSH2 0x5133 JUMPI DUP3 DUP8 ADD MLOAD SWAP1 POP JUMPDEST PUSH2 0x513D DUP6 DUP3 PUSH2 0x50BF JUMP JUMPDEST DUP7 SSTORE POP PUSH2 0x51A5 JUMP JUMPDEST PUSH1 0x1F NOT DUP5 AND PUSH2 0x5153 DUP7 PUSH2 0x4F2F JUMP JUMPDEST PUSH1 0x0 JUMPDEST DUP3 DUP2 LT ISZERO PUSH2 0x517B JUMPI DUP5 DUP10 ADD MLOAD DUP3 SSTORE PUSH1 0x1 DUP3 ADD SWAP2 POP PUSH1 0x20 DUP6 ADD SWAP5 POP PUSH1 0x20 DUP2 ADD SWAP1 POP PUSH2 0x5156 JUMP JUMPDEST DUP7 DUP4 LT ISZERO PUSH2 0x5198 JUMPI DUP5 DUP10 ADD MLOAD PUSH2 0x5194 PUSH1 0x1F DUP10 AND DUP3 PUSH2 0x50A1 JUMP JUMPDEST DUP4 SSTORE POP JUMPDEST PUSH1 0x1 PUSH1 0x2 DUP9 MUL ADD DUP9 SSTORE POP POP POP JUMPDEST POP POP POP POP POP POP JUMP JUMPDEST PUSH1 0x0 DUP3 SWAP1 POP SWAP3 SWAP2 POP POP JUMP JUMPDEST PUSH2 0x51C2 DUP4 DUP4 PUSH2 0x51AD JUMP JUMPDEST PUSH8 0xFFFFFFFFFFFFFFFF DUP2 GT ISZERO PUSH2 0x51DB JUMPI PUSH2 0x51DA PUSH2 0x37E1 JUMP JUMPDEST JUMPDEST PUSH2 0x51E5 DUP3 SLOAD PUSH2 0x48E1 JUMP JUMPDEST PUSH2 0x51F0 DUP3 DUP3 DUP6 PUSH2 0x504E JUMP JUMPDEST PUSH1 0x0 PUSH1 0x1F DUP4 GT PUSH1 0x1 DUP2 EQ PUSH2 0x521F JUMPI PUSH1 0x0 DUP5 ISZERO PUSH2 0x520D JUMPI DUP3 DUP8 ADD CALLDATALOAD SWAP1 POP JUMPDEST PUSH2 0x5217 DUP6 DUP3 PUSH2 0x50BF JUMP JUMPDEST DUP7 SSTORE POP PUSH2 0x527F JUMP JUMPDEST PUSH1 0x1F NOT DUP5 AND PUSH2 0x522D DUP7 PUSH2 0x4F2F JUMP JUMPDEST PUSH1 0x0 JUMPDEST DUP3 DUP2 LT ISZERO PUSH2 0x5255 JUMPI DUP5 DUP10 ADD CALLDATALOAD DUP3 SSTORE PUSH1 0x1 DUP3 ADD SWAP2 POP PUSH1 0x20 DUP6 ADD SWAP5 POP PUSH1 0x20 DUP2 ADD SWAP1 POP PUSH2 0x5230 JUMP JUMPDEST DUP7 DUP4 LT ISZERO PUSH2 0x5272 JUMPI DUP5 DUP10 ADD CALLDATALOAD PUSH2 0x526E PUSH1 0x1F DUP10 AND DUP3 PUSH2 0x50A1 JUMP JUMPDEST DUP4 SSTORE POP JUMPDEST PUSH1 0x1 PUSH1 0x2 DUP9 MUL ADD DUP9 SSTORE POP POP POP JUMPDEST POP POP POP POP POP POP POP JUMP JUMPDEST PUSH1 0x0 PUSH1 0x20 DUP3 ADD SWAP1 POP DUP2 DUP2 SUB PUSH1 0x0 DUP4 ADD MSTORE PUSH2 0x52A3 DUP2 DUP5 DUP7 PUSH2 0x4784 JUMP JUMPDEST SWAP1 POP SWAP4 SWAP3 POP POP POP JUMP JUMPDEST PUSH1 0x0 DUP3 SWAP1 POP SWAP3 SWAP2 POP POP JUMP JUMPDEST PUSH1 0x1F DUP3 GT ISZERO PUSH2 0x52F8 JUMPI PUSH2 0x52C9 DUP2 PUSH2 0x4B3D JUMP JUMPDEST PUSH2 0x52D2 DUP5 PUSH2 0x4F44 JUMP JUMPDEST DUP2 ADD PUSH1 0x20 DUP6 LT ISZERO PUSH2 0x52E1 JUMPI DUP2 SWAP1 POP JUMPDEST PUSH2 0x52F5 PUSH2 0x52ED DUP6 PUSH2 0x4F44 JUMP JUMPDEST DUP4 ADD DUP3 PUSH2 0x502B JUMP JUMPDEST POP POP JUMPDEST POP POP POP JUMP JUMPDEST PUSH2 0x5307 DUP4 DUP4 PUSH2 0x52AC JUMP JUMPDEST PUSH8 0xFFFFFFFFFFFFFFFF DUP2 GT ISZERO PUSH2 0x5320 JUMPI PUSH2 0x531F PUSH2 0x37E1 JUMP JUMPDEST JUMPDEST PUSH2 0x532A DUP3 SLOAD PUSH2 0x48E1 JUMP JUMPDEST PUSH2 0x5335 DUP3 DUP3 DUP6 PUSH2 0x52B7 JUMP JUMPDEST PUSH1 0x0 PUSH1 0x1F DUP4 GT PUSH1 0x1 DUP2 EQ PUSH2 0x5364 JUMPI PUSH1 0x0 DUP5 ISZERO PUSH2 0x5352 JUMPI DUP3 DUP8 ADD CALLDATALOAD SWAP1 POP JUMPDEST PUSH2 0x535C DUP6 DUP3 PUSH2 0x50BF JUMP JUMPDEST DUP7 SSTORE POP PUSH2 0x53C4 JUMP JUMPDEST PUSH1 0x1F NOT DUP5 AND PUSH2 0x5372 DUP7 PUSH2 0x4B3D JUMP JUMPDEST PUSH1 0x0 JUMPDEST DUP3 DUP2 LT ISZERO PUSH2 0x539A JUMPI DUP5 DUP10 ADD CALLDATALOAD DUP3 SSTORE PUSH1 0x1 DUP3 ADD SWAP2 POP PUSH1 0x20 DUP6 ADD SWAP5 POP PUSH1 0x20 DUP2 ADD SWAP1 POP PUSH2 0x5375 JUMP JUMPDEST DUP7 DUP4 LT ISZERO PUSH2 0x53B7 JUMPI DUP5 DUP10 ADD CALLDATALOAD PUSH2 0x53B3 PUSH1 0x1F DUP10 AND DUP3 PUSH2 0x50A1 JUMP JUMPDEST DUP4 SSTORE POP JUMPDEST PUSH1 0x1 PUSH1 0x2 DUP9 MUL ADD DUP9 SSTORE POP POP POP JUMPDEST POP POP POP POP POP POP POP JUMP JUMPDEST PUSH1 0x0 PUSH1 0x80 DUP3 ADD SWAP1 POP DUP2 DUP2 SUB PUSH1 0x0 DUP4 ADD MSTORE PUSH2 0x53E8 DUP2 DUP8 DUP10 PUSH2 0x4784 JUMP JUMPDEST SWAP1 POP PUSH2 0x53F7 PUSH1 0x20 DUP4 ADD DUP7 PUSH2 0x37A1 JUMP JUMPDEST PUSH2 0x5404 PUSH1 0x40 DUP4 ADD DUP6 PUSH2 0x397B JUMP JUMPDEST DUP2 DUP2 SUB PUSH1 0x60 DUP4 ADD MSTORE PUSH2 0x5416 DUP2 DUP5 PUSH2 0x4B52 JUMP JUMPDEST SWAP1 POP SWAP7 SWAP6 POP POP POP POP POP POP JUMP JUMPDEST POP JUMP JUMPDEST PUSH1 0x0 PUSH2 0x5432 PUSH1 0x0 DUP4 PUSH2 0x416D JUMP JUMPDEST SWAP2 POP PUSH2 0x543D DUP3 PUSH2 0x5422 JUMP JUMPDEST PUSH1 0x0 DUP3 ADD SWAP1 POP SWAP2 SWAP1 POP JUMP JUMPDEST PUSH1 0x0 PUSH2 0x5453 DUP3 PUSH2 0x5425 JUMP JUMPDEST SWAP2 POP DUP2 SWAP1 POP SWAP2 SWAP1 POP JUMP JUMPDEST PUSH32 0x436F756C646E27742073656E6420657468657200000000000000000000000000 PUSH1 0x0 DUP3 ADD MSTORE POP JUMP JUMPDEST PUSH1 0x0 PUSH2 0x5493 PUSH1 0x13 DUP4 PUSH2 0x428B JUMP JUMPDEST SWAP2 POP PUSH2 0x549E DUP3 PUSH2 0x545D JUMP JUMPDEST PUSH1 0x20 DUP3 ADD SWAP1 POP SWAP2 SWAP1 POP JUMP JUMPDEST PUSH1 0x0 PUSH1 0x20 DUP3 ADD SWAP1 POP DUP2 DUP2 SUB PUSH1 0x0 DUP4 ADD MSTORE PUSH2 0x54C2 DUP2 PUSH2 0x5486 JUMP JUMPDEST SWAP1 POP SWAP2 SWAP1 POP JUMP INVALID LOG2 PUSH5 0x6970667358 0x22 SLT KECCAK256 LOG1 SWAP1 PUSH15 0xAA6265EB3DFC1BACFBBAF784220D2A CREATE POP 0xBC SWAP11 0x29 SWAP10 0x2B 0xD0 PUSH27 0x110950075964736F6C634300081800330000000000000000000000 "
        },
        "methodIdentifiers": {
          "changeBetAmounts(bytes,uint256,uint256)": "a813cf9b",
          "changeGameControllerAddress(address)": "1d0d625b",
          "changeGameFeeAddress(address)": "595dc897",
          "changeGameFeeJackpotAddress(address)": "1c2db192",
          "changeGameFeeJackpotPercentage(uint8)": "900b7b3f",
          "changeGameFeePercentage(uint8)": "d4c770cf",
          "changeGameServiceFeeAddress(address)": "41581768",
          "changeGameServicePercentage(uint8)": "afad745a",
          "createPool(bytes,uint256,uint256,uint256)": "e4709969",
          "distribute(bytes,uint32,int64)": "a7c3324d",
          "feeAddress()": "41275358",
          "feeJackpotAddress()": "3b9fe1ee",
          "feeJackpotPercentage()": "159dc634",
          "feePercentage()": "a001ecdd",
          "gameController()": "f68256a8",
          "getContractBalance()": "6f9fb98a",
          "hasPendingDistributions(bytes)": "0c2f915e",
          "isPoolOpen(bytes)": "30efabd4",
          "isRunning()": "2014e5d1",
          "makeTrade((bytes,string,string,bool,string,string))": "0d62d031",
          "notRunningReason()": "6518a0a9",
          "owner()": "8da5cb5b",
          "pools(bytes)": "3fafac92",
          "renounceOwnership()": "715018a6",
          "serviceFeeAddress()": "ae38a8b9",
          "serviceFeePercentage()": "603ef649",
          "startGame()": "d65ab5f2",
          "stopGame(bytes)": "eab79b7d",
          "transferOwnership(address)": "f2fde38b",
          "trigger(bytes,int64,int32,uint32)": "a9b99af5"
        }
      }
    }
  }
}